:020000040800F2
:1000000000040020C10100081B030008A30200082F
:100010001903000809020008750400080000000028
:100020000000000000000000000000003D03000888
:100030000B020008000000001D0300081504000862
:10004000DB010008DB010008DB010008DB01000820
:10005000DB010008DB010008DB010008DB01000810
:10006000DB010008DB010008DB010008DB01000800
:10007000DB010008DB010008DB010008DB010008F0
:10008000DB010008DB010008DB010008DB010008E0
:10009000DB010008DB010008DB010008DB010008D0
:1000A000DB010008DB010008DB010008DB010008C0
:1000B000DB010008DB010008DB010008DB010008B0
:1000C000DB010008DB010008DB010008DB010008A0
:1000D000DB010008DB010008DB010008DB01000890
:1000E000DB010008DB010008DB010008DB01000880
:1000F000DB010008DB010008DB010008DB01000870
:10010000DB010008DB010008DB010008DB0100085F
:10011000DB010008DB010008DB010008DB0100084F
:10012000DB010008DB010008DB010008DB0100083F
:10013000DB010008DB010008DB010008DB0100082F
:10014000DB010008DB010008DB010008DB0100081F
:10015000DB010008DB010008DB010008DB0100080F
:10016000DB010008DB010008DB010008DB010008FF
:10017000DB010008DB010008DB010008DB010008EF
:10018000DB010008DB010008DB010008DB010008DF
:10019000DB010008DB010008DB010008DB010008CF
:1001A000DB010008DB010008DB010008DFF80CD0F0
:1001B00000F018F800480047790400080004002007
:1001C0000648804706480047FEE7FEE7FEE7FEE7F1
:1001D000FEE7FEE7FEE7FEE7FEE7FEE7190400089C
:1001E000AD010008064C074D06E0E06840F0010351
:1001F00094E8070098471034AC42F6D3FFF7DAFFD3
:100200009005000890050008FEE7704701B502E080
:100210000098401E009000980028F9D108BD2DE9F3
:10022000F041002201274FF0030C07FA02F50B689A
:100230002B40AB422CD1066853000CFA03F4A643C2
:1002400006600E79D0F800809E4046EA08060660F7
:100250000E79012E01D0022E12D18668A643866047
:100260004E79D0F808809E4046EA080686604668C7
:10027000AE43466045688E799640B6B235434560D8
:10028000C568A543C560CC799C40C3681C43C46065
:10029000521C102AC9D3BDE8F08141837047018305
:1002A0007047FEE72DE9FC410121882000F038F875
:1002B0004FF48065009501218DF8041000208DF821
:1002C00006008DF807108DF80500114F6946384675
:1002D000FFF7A5FF6C00009469463846FFF79FFFC3
:1002E0006600009669463846FFF799FF0094094F6B
:1002F00069463846FFF793FF054918310D800C8099
:100300000E8021463846FFF7C8FFBDE8FC8100009B
:10031000001C0240000C0240FEE7704770470000DE
:10032000054A002903D01168014311607047116824
:100330008143116070470000303802407047000070
:100340001CB50021019100912E4A106840F48030C4
:1003500010604FF4A043106800F400300090019842
:10036000401C0190009810B901989842F3D1106890
:10037000800302D50120009000E000910098012840
:100380003FD120484030016841F0805101601E4952
:10039000086840F4404008601A4808300368036069
:1003A000036843F400430360036843F4A05303600D
:1003B000041F164B2360136843F0807313601368A7
:1003C0009B01FCD50A6842F480320A604A68D20375
:1003D000FCD50A6842F400320A604A689203FCD5F0
:1003E0000B4A40F205711160016821F003010160C0
:1003F000016841F0020101600168C1F38101022935
:10040000FAD11CBD0038024000700040195A400764
:10041000003C02407047000010B51248016841F4EA
:10042000700101601048016841F0010101600E4A4D
:1004300000210832116002680C4B1A400260031D53
:100440000B4A1A60026822F48022026006480C30CF
:100450000160FFF775FF03494FF0006080390860C5
:1004600010BD000088ED00E000380240FFFFF6FEFE
:1004700010300024FEE70000FFF714FFDFF80891BA
:100480004FF48064DFF800B16500DFF8008109F106
:100490001A096FF07F47A600A9F1020A21465846C3
:1004A000FFF7FBFE3846FFF7B1FE21465846FFF73F
:1004B000F6FE29465846FFF7F0FE3846FFF7A6FE3F
:1004C00029465846FFF7EBFE31465846FFF7E5FE52
:1004D0003846FFF79BFE31465846FFF7E0FE2946B7
:1004E0004046FFF7DAFE3846FFF790FE29464046C1
:1004F000FFF7D5FEA9F80040AAF80050AAF800605E
:100500003846FFF783FEAAF80040A9F80050AAF881
:1005100000603846FFF77AFEAAF80040AAF80050BB
:10052000A9F800603846FFF771FEA9F80040A9F865
:100530000050AAF800603846FFF768FEA9F80040AE
:10054000AAF80050A9F800603846FFF75FFEAAF845
:100550000040A9F80050A9F800603846FFF756FEA1
:10056000A9F80040A9F80050A9F800603846FFF744
:100570004DFEAAF80040AAF80050AAF800603846DC
:10058000FFF744FE8AE70000001C0240000C024016
:04000005080001AD41
:00000001FF
