:020000040800F2
:10000000908D0020C1010008C9010008CB01000843
:10001000CD010008CF010008D10100080000000058
:10002000000000000000000000000000D3010008F4
:10003000D501000800000000CB0B0008916D0008FE
:10004000DB010008DB010008DB010008DB01000820
:10005000DB010008DB010008DB010008DB01000810
:10006000DB010008DB010008DB010008DB01000800
:10007000DB010008DB010008DB010008DB010008F0
:10008000DB010008DB010008DB010008DB010008E0
:10009000DB010008DB010008DB010008291A000869
:1000A000DB010008DB010008DB010008DB010008C0
:1000B00019700008DB010008DB010008DB01000803
:1000C000DB010008DB010008DB010008DB010008A0
:1000D000DB01000805750008DB010008DB010008F2
:1000E000DB010008DB010008DB010008DB01000880
:1000F000DB010008DB010008DB010008DB01000870
:10010000DB010008FD620008DB010008DB010008DC
:10011000DB010008DB010008DB010008DB0100084F
:10012000DB010008DB010008DB010008DB0100083F
:10013000DB010008DB010008DB010008DB0100082F
:10014000DB010008DB010008DB010008DB0100081F
:1001500079120008DB0100088D120008DB0100089D
:10016000DB010008DB010008DB010008DB010008FF
:10017000DB010008DB010008DB010008DB010008EF
:10018000DB010008DB010008DB010008DB010008DF
:10019000DB010008DB010008DB010008DB010008CF
:1001A000DB010008DB010008DB010008DFF80CD0F0
:1001B00000F024FC004800471D820108908D0020BB
:1001C0000648804706480047FEE7FEE7FEE7FEE7F1
:1001D000FEE7FEE7FEE7FEE7FEE7FEE7F16D00085B
:1001E000AD01000872B6704762B67047EFF3108039
:1001F00072B6704780F31088704730BF704720BFD9
:100200007047B0FA80F0704790FAA0F0B0FA80F032
:10021000704790FAA0F0704710B54448006868B184
:1002200042480068D0F8A04040480068D0F89000EC
:10023000C4F8E002022120465CF066F83C48006801
:1002400068B13B480068D0F8A04039480068D0F851
:100250009000C4F8E002022120465CF055F810BD81
:100260002DE9F047C2B04FF02708192508EB05002B
:10027000401E90FBF5F000FB05FA002410E000267C
:100280000BE004FB05602B49085C2B49895D484065
:1002900004FB056102AA5054761CAE42F1DB641CDB
:1002A0009AFBF5F0A042EADC02A824490860002786
:1002B000002404E021480068005D4740641C444578
:1002C000F8DB002403E01E48005D4740641C272C37
:1002D000F9D3002403E01B48005D4740641C192C3F
:1002E000F9D33C2F06D0184807F0B4FA17A007F04E
:1002F000B1FA11E01648007848B116A08021002319
:100300001122CDE90010194614482CF05DFCFFF7CE
:1003100083FF42B0BDE8F087DFF844904FF480617E
:1003200002A800F051F800BFF3E70000040300202A
:100330000803002084840A08AC840A08B003002063
:10034000C5840A08EC840A0805850A080D0A00001D
:10035000D80200206D6F6E69746F7200E19E000814
:100360009085002000487047DC850A08A0F1410113
:10037000192900D82030704710B5441A034694421A
:1003800009D28418114403E011F8013D04F8013D3D
:10039000521EF9D210BD40EA0104A40703D009E0BF
:1003A00010C9121F10C3042AFAD203E011F8014B3E
:1003B00003F8014B521EF9D210BDD2B201E000F891
:1003C000012B491EFBD270470022F6E710B51346F9
:1003D0000A4604461946FFF7F0FF204610BD421EAC
:1003E00012F8013F002BFBD111F8013B02F8013B51
:1003F000002BF9D1704730B505462A460B4612F856
:10040000010B13F8014B08B1A042F8D01CB1002831
:1004100002D06D1CF1E7284630BD10B5044604E05B
:100420000B7800F8013B03B1491C521EF8D220465C
:1004300010BDCAB2401E10F8011F8A4202D0002926
:10044000F9D100207047421C10F8011B0029FBD194
:10045000801A704710B5002200E0521C835C8C5C4F
:10046000A34201D1002BF8D1D8B2E1B2401A10BD9D
:1004700030B504460020034600E05B1C934203D2E3
:10048000E05CCD5C401BF8D030BD034611F8012B79
:1004900000F8012B002AF9D11846704730B50546FF
:1004A0000020034600E05B1C934205D2EC5CC85C74
:1004B000201A01D1002CF6D130BD70B5064607F0E8
:1004C00015FA046805460A220021304600F0BBF800
:1004D0002C6070BD2DE9FE4F81EA030404F0004456
:1004E00021F0004100944FF0000B23F0004350EA4C
:1004F00001045ED052EA03045BD0C3F30A54C1F393
:100500000A552C44A4F2F3340194A0FB0254C1F325
:10051000130141F48011C3F3130343F4801301FB6F
:10052000024400FB034E840A970A44EA815447EAD6
:100530008357A4FB076802958D0A05FB07854FEAE0
:10054000932C04FB0C542705029D4FEA065847EAFA
:100550001637B5EB08056EEB070C870E920E47EACF
:10056000811742EA8312A7FB0201B6EB0B0164EB91
:1005700000042B0D43EA0C335E1844EB1C50DA46A2
:100580005146E7FB0201C5F313044FEA0B3343EA7C
:1005900014534FEA0432019C43EA0603A4F10C040D
:1005A0000294009CCDE900B400F094F803B0BDE8DB
:1005B000F08F00200146F9E730B50B4601460020D8
:1005C0002022012409E021FA02F59D4205D303FA15
:1005D00002F5491B04FA02F52844151EA2F1010296
:1005E000F1DC30BD2DE9F05F0546002092469B46C8
:1005F00088460646814640241BE028464146474639
:10060000224600F01CFA53465A46C01A914110D3B4
:1006100011461846224600F003FA2D1A67EB01082E
:100620004F4622460120002100F0FAF917EB00099D
:100630004E41201EA4F10104DFDC484631462A4623
:100640004346BDE8F09F2DE9F04791460F468046AE
:100650000446002614F8015B2DB1FFF783FE006805
:10066000405DC007F6D12B2D02D02D2D18D0641E71
:100670004A463946204600F004FA27B13968A142BB
:1006800001D1C7F8008071054FF002040BD540423C
:10069000002803DD07F02AF90460A007BDE8F08711
:1006A00046F48066E4E70028F8DA07F01FF90460F2
:1006B0006FF00040F2E710B5141E73F1000408DA81
:1006C000401C41F1000192185B411A4301D120F016
:1006D000010010BD2DE9F04D92469B4611B1B1FAD3
:1006E00081F202E0B0FA80F22032904600F098F9F0
:1006F00004460F4640EA0A0041EA0B0153465A46B7
:10070000084313D0114653EA010019D0C8F1400242
:10071000504600F094F905460E465046594642466A
:1007200000F07EF9084305D0012004E02046394658
:10073000BDE8F08D0020054346EAE0762C433743C0
:100740000A986305E40AA0EB08000022FD0A44EAC7
:1007500047540A3002D500200146E9E70105101987
:100760006941DDE9084500196941BDE8F04DA2E79E
:100770002DE9FE4F804681EA0300C00F0C46009031
:1007800021F0004123F00045B8EB0200A94105D259
:100790004046214690461C460B46024623F0004048
:1007A000104347D0270DC7F30A00C3F30A51029044
:1007B000401A019040286BDAC3F3130040F4801B09
:1007C0000098924620B10023D2EB030A63EB0B0B97
:1007D00001985946C0F14002504600F021F9064602
:1007E0000D4650465946019A00F039F910EB0800C1
:1007F0006141002487EA115284EAE7731A4340D02A
:10080000009A62B3019A012A4FEA075215DC001BD5
:1008100061EB02014FF0004202EA0752CDE90042CB
:10082000001C41F5801132462B46FFF753FF03B001
:10083000BDE8F08F40462146F9E7001B61EB02015D
:10084000001C41F5801300185B412018A2F5001729
:1008500047EB030140EAD570B6196D4111E06D0810
:100860004FEA360645EAC0754FEA0752001B61EBB6
:100870000201001C41F5801149084FEA30000019BF
:10088000514132462B4603B0BDE8F04FFFF713BF8E
:100890000098012240000023D0EB020263EBE073DA
:1008A000009821464FEAE074B8EB000061EB0401C8
:1008B000E9E783F000435BE781F0004158E72DE969
:1008C000F04D81EA030404F0004B21F0004514468A
:1008D0004FF0000A23F0004150EA050220D054EA0C
:1008E00001021DD0C5F30A570246C5F31303C1F335
:1008F0001300C1F30A5640F4801543F48013A7EBAC
:100900000608101BD64608F2FD3873EB050002D32B
:1009100008F1010801E092185B41B8F1000F03DA19
:1009200000200146BDE8F08D00204FF480110646FE
:1009300084460EE0171B73EB050705D3121B63EB10
:10094000050306434CEA010C49084FEA30009218AF
:100950005B4150EA0107EDD152EA030012D082EA6E
:10096000040083EA0501084305D0101BAB4106D201
:100970000122002306E000224FF0004302E06FF066
:10098000010253101AEB06004CEB085110EB0A0061
:1009900041EB0B01BDE8F04DFFF78DBEC1F30A52EC
:1009A000C1F3130140F2FF3341F480119A4202DA9D
:1009B00000200146704740F233439A42A2F233428C
:1009C00002DC524200F03BB800F02AB830B5041EF9
:1009D00071F1000404DB4FF00044404264EB01017C
:1009E000141E73F1000405DB1C464FF00043524215
:1009F00063EB0403994208BF904230BD064C074D9B
:100A000006E0E06840F0010394E8070098471034DE
:100A1000AC42F6D3FFF7CEFB2C9B0A084C9B0A088E
:100A2000202A04DB203A00FA02F1002070479140AE
:100A3000C2F1200320FA03F3194390407047202AA3
:100A400004DB203A21FA02F00021704721FA02F378
:100A5000D040C2F120029140084319467047202A35
:100A600006DBCB17203A41FA02F043EAE07306E0D6
:100A700041FA02F3D040C2F12002914008431946E6
:100A800070472DE9F05F82460078002715468B46B7
:100A90000AF10104B946302801D09DB113E014F8E1
:100AA000010B0127782803D0582801D045B10AE06E
:100AB0000DB1102D07D10027102514F8010B02E00D
:100AC000082500E00A250026B0460EE005FB0800D8
:100AD00005FB06F1012701EB10461FFA80F8B6F579
:100AE000803F00D3B94614F8010B294600F018F8EE
:100AF0000028EBDABBF1000F05D00FB1641E00E057
:100B00005446CBF80040B9F1000F06D006F0EEFED7
:100B100002210160C81EBDE8F09F48EA0640FAE7DE
:100B20003A2800D2303820F02002412A01D3A2F125
:100B30003700884201D34FF0FF30704770B58C18F2
:100B400010F8015B15F0070301D110F8013B2A11E1
:100B500006D110F8012B03E010F8016B01F8016BCE
:100B60005B1EF9D12B0705D40023521E0DD401F8CA
:100B7000013BFAE710F8013BCB1A921C03E013F893
:100B8000015B01F8015B521EF9D5A142D8D30020C8
:100B900070BD000023484FF0FF010170002080F37A
:100BA00009882148016881F3088820484FF0805166
:100BB000016062B6FEE71D484FF08051016070474A
:100BC0001A484FF080510160704772B6EFF3098008
:100BD00050B1A0F1200080E8F00FA0F1400080ECBF
:100BE000108B13490968086000B5124880475DF80A
:100BF00004EB114811490A7802700D4810490A683F
:100C00000260106890EC108B00F1400090E8F00F4B
:100C100000F120002EF0100E80F309884EF0040E33
:100C200062B6704722ED00E03800002004ED00E0DD
:100C3000BC000020413A00085A0000205B00002060
:100C4000C00000201CB50121080205F06FF94FF427
:100C50000060009001208DF8040000208DF806004F
:100C600001208DF8070002208DF805006946024832
:100C700001F024F81CBD00000020024010B5FFF771
:100C8000E1FF4FF40061024801F08CF810BD000054
:100C9000002002402DE9F0439FB08046642106A861
:100CA000FFF792FB73A14046FFF7A5FB041E70D02F
:100CB000257A312D04D0322D20D0332D5AD13BE06E
:100CC000A57A302D02D0312D15D109E000BF4FF4A7
:100CD00080606B49088000BF00206A4908700BE003
:100CE00000BF4FF480606649891C088000BF012066
:100CF0006449087000E000BF00BF3CE0A57A302DD9
:100D000002D0312D15D109E000BF4FF400605C49DD
:100D1000088000BF00205C4908700BE000BF4FF462
:100D200000605749891C088000BF0120564908709F
:100D300000E000BF00BF1EE0A57A302D02D0312DAB
:100D400015D109E000BF4FF480504D49088000BF25
:100D500000204E4908700BE000BF4FF48050484916
:100D6000891C088000BF01204849087000E000BFCE
:100D700000BF00E000BF00BF444800780090424838
:100D800003784048027842A106A806F09BFD63E084
:100D9000FFE746A14046FFF72EFB041E20D0E57A70
:100DA000302D02D0312D12D108E04FF400614248BD
:100DB00000F0F8FF00204149087009E04FF400619D
:100DC0003D4800F0F1FF01203C49087000E000BF01
:100DD00000BF3A4802783AA106A806F073FD3BE04E
:100DE0003EA14046FFF707FB041E13D03EA140463C
:100DF000FFF701FB061E0DD0B4422DD2301B0C3084
:100E0000C7B23A46214606A8FFF7B6FA002006A95F
:100E1000C85521E038A14046FFF7EDFAE0B13B4864
:100E200005F0B0F925480378384840783749097803
:100E3000364AD278CDE90403CDE9022133488078DF
:100E400012490978CDE900100F4803780D4802785F
:100E50002F4906A806F036FD06A8FFF7F4FA8146EA
:100E600008234A4606A92B48006805F0F5FF1FB085
:100E7000BDE8F083434D445F4C45445F00000000F3
:100E8000181C0240A4030020A5030020A603002094
:100E9000434D445F4C45445F25645F25645F256492
:100EA0005F454E444C45445F454E4400434D445FCE
:100EB00042555A5A45525F0000200240A7030020C5
:100EC000434D445F42555A5A45525F25645F454E33
:100ED0004442555A5A45525F454E4400434D445F83
:100EE000554152545F0000005F454E4455415254F5
:100EF0005F454E4400000000434D445F524541446D
:100F00005F414C4C5F454E4400000000A8030020A8
:100F1000E09A0A089803002070B5002542F2107488
:100F200000E0641E24B1802005F0D0F90028F8D03C
:100F300014B90325284670BD40F2FF5005F088F92A
:100F40002846F8E72DE9F0410646002742F21078DE
:100F50004B48056809E04A480568B8F10000A8F167
:100F6000010802D12920BDE8F08105F045000028E4
:100F7000F1D005F0040028B10327042005F068F93A
:100F80003846F0E705F0010028B10127012005F0FF
:100F90005FF93846E7E705F093F9B04202D0102731
:100FA0003846E0E740F2FF5005F052F9002005F026
:100FB00099F904463348204008B93846D3E704F08D
:100FC000004008B11C20CEE704F0804008B10920A1
:100FD000C9E704F0005008B10A20C4E704F08050CB
:100FE00008B10B20BFE704F0006008B10C20BAE79D
:100FF00004F0806008B10D20B5E704F0807008B1FE
:101000000E20B0E704F4000008B10F20ABE704F4B1
:10101000800008B11020A6E704F4001008B11120E8
:10102000A1E704F4801008B112209CE704F400202A
:1010300008B1132097E704F4802008B1142092E748
:1010400004F4003008B115208DE704F4803008B1B5
:10105000162088E704F4004008B1172083E704F461
:10106000804008B118207EE704F4005008B1192030
:1010700079E704F0080008B11A2074E7384672E7EF
:10108000342C014008E0FFFD70B5002542F21076D7
:101090000E48046807E00D480468301EA6F10106FA
:1010A00001D1292070BD04F044000028F3D004F0E1
:1010B000040028B10325042005F0CAF82846F1E70A
:1010C00040F2FF5005F0C4F82846EBE7342C01400D
:1010D0002DE9F05F07460E464FF0000842F2107906
:1010E0003148056825E030480568B9F10000A9F1EC
:1010F00001091ED100BF1CF021FD4FF47A71B0FB35
:10110000F1F201FB120A1CF019FD4FF47A71B0FBE9
:10111000F1FB5246594625A006F09CFB294627A024
:1011200006F098FB27A006F095FB00BF2920BDE83C
:10113000F09F05F045000028D5D005F0040030B13F
:101140004FF00308042005F083F84046EFE705F070
:10115000010030B14FF00108012005F079F8404658
:10116000E5E705F0ADF8B84203D04FF0100840466F
:10117000DDE74FF40C6005F06BF8002005F0B2F8E5
:10118000044604F4006008B11020D0E704F40070B5
:1011900008B12120CBE704F4807008B10820C6E72D
:1011A00006B134704046C2E7342C01405B453A201A
:1011B00025642E253033645D200000007374613A8D
:1011C000257800000D0A00002DE9F04706460F467D
:1011D0004FF0000842F210792648056809E02548DA
:1011E0000568B9F10000A9F1010902D12920BDE883
:1011F000F08705F045000028F1D005F0040030B17B
:101200004FF00308042005F023F84046EFE705F00F
:10121000010030B14FF00108012005F019F84046F7
:10122000E5E705F04DF8B04203D04FF01008404616
:10123000DDE740F2FF5005F00BF8002005F052F812
:10124000044604F4604018B9200C38804046CEE7CC
:1012500004F4005008B11320C9E704F4804008B139
:101260001020C4E704F4004008B10F20BFE7404657
:10127000BDE70000342C014010B50249024800F0DF
:1012800073F810BD000200208864024070B50CF0B5
:1012900001FC0021274800F081F8462000F01F02E1
:1012A00001219140244A430942F8231000BF15F060
:1012B00093F806464FF008511E4800F033F9D0B1BC
:1012C00000BF1CF03BFC4FF47A71B0FBF1F201FB64
:1012D00012041CF033FC4FF47A71B0FBF1F5224696
:1012E000294616A006F0B6FA18A006F0B3FA1BA01D
:1012F00006F0B0FA00BF00221C210E4800F034F9BD
:101300004FF03C510B4800F02FF80A48001D0068D0
:1013100013498860304615F059F8002280211148A1
:1013200006F01DF90E4908682EF020FA01200DF094
:101330007DFF70BDB864024080E100E05B453A206B
:1013400025642E253033645D2000000075617274C1
:1013500020646D6120657272000000000D0A0000BB
:10136000FC050020001001400246094B9A4201D2C0
:10137000084801E00648103801F000531BB1064B45
:101380000B40C36002E0044B0B40836070470000D9
:1013900010640240006002407D0F7D0F21B10268A1
:1013A00042F00102026003E0026822F001020260E2
:1013B00070470000016821F0010101600021016017
:1013C00041608160C1600161212141614A498842D7
:1013D00004D13D21484A103A91608CE046491831C9
:1013E000884205D14FF47461434A103A916082E01B
:1013F00041493031884205D14FF474113E4A103AC8
:10140000916078E03C494831884205D14FF07461E1
:10141000394A103A91606EE037496031884204D110
:101420003649354A103AD16065E03349783188420F
:1014300004D13349304A103AD1605CE02E499031F2
:10144000884204D12F492C4A103AD16053E02A49EE
:10145000A831884205D14FF03D51274A103AD1605A
:1014600049E02949884204D13D21274A083A1160C0
:1014700041E025491831884205D14FF47461224A70
:10148000083A116037E020493031884205D14FF4E5
:1014900074111D4A083A11602DE01B4948318842F9
:1014A00005D14FF07461184A083A116023E01649DB
:1014B0006031884204D11149134A121F11601AE0A9
:1014C00011497831884204D10D490F4A121F116029
:1014D00011E00D499031884204D10A490A4A121F8D
:1014E000116008E00849A831884204D14FF03D510D
:1014F000054A121F11607047106002403D00002035
:10150000400F002000003D201064024021B102681D
:1015100042F02002026003E0026822F02002026032
:101520007047000030B503460A46002000240B4DEA
:10153000AB4201D20A4901E00849103902F00055D6
:101540000DB14C6800E00C68064D2C4004EA020521
:101550000DB1012000E0002030BD00001064024009
:10156000006002407D0F7D0F10B501F080034BB18C
:1015700022B1436943F08003436103E0436923F0F0
:101580008003436180290BD02AB1036801F01E0457
:101590002343036004E0036801F01E04A3430360D7
:1015A00010BD000010B500220268134B1A40CC6831
:1015B0000B6823434C6923438C692343CC69234341
:1015C0000C6A23434C6A23438C6A23434C6B2343AA
:1015D0008C6B23431A430260426922F00702D1E96F
:1015E0000B3423431A4342610B6943604B688360A9
:1015F0008B68C36010BD00003F801CF030B58FB019
:1016000005460C4600221C211E48FFF7ADFF1E496F
:101610001C48FFF7A9FE00211A48FFF7BFFE6846E5
:1016200000F07CF84FF0006000901848019002959F
:1016300000200390049405904FF4806006900020F1
:10164000079008904FF48070099000020A90694654
:101650000C48FFF7A7FF00200D4948610122042133
:101660000848FFF781FF01210648FFF797FE012296
:1016700040210648001F05F072FF442000F099FB4E
:101680000FB030BD88640240000F002004100140FC
:10169000BC03002030B58FB004460D4600211D4824
:1016A000FFF77CFE4FF0F8511A48FFF75DFE19482E
:1016B000FFF780FE4FF00060009017480190029401
:1016C00000200390E81C80080490002005904FF44F
:1016D00080600690800007908000089000200990AC
:1016E0004FF440300A9004200B9003200C904FF4EC
:1016F00000000D9080100E9069460648FFF752FFDB
:1017000020210448FFF702FF01210248FFF746FEAF
:101710000FB030BD58640240802C014000210160B0
:1017200041608160C160016141618161C1610162AB
:1017300041628162C162016341638163704700005D
:1017400030B58FB005460C46002240F22771224882
:1017500005F00EFF002240F226611F4805F008FF49
:1017600000221C211D48FFF7FFFE4FF03C511B4893
:10177000FFF7FAFD00211948FFF710FE6846FFF752
:10178000CDFF4FF0006000901348001D01900295BE
:10179000402003900494002005904FF48060069050
:1017A00000200790089009900A9069460B48FFF7BF
:1017B000F9FE012214210948FFF7D6FE012107484E
:1017C000FFF7ECFD01228021034805F0C8FE46200A
:1017D00000F0EFFA0FB030BD00100140B8640240D5
:1017E00030B58FB004460D4600211D48FFF7D6FDE9
:1017F0004FF0F8511A48FFF7B7FD1948FFF7DAFD27
:101800004FF0006000901748019002944020039030
:10181000E81C80080490002005904FF4806006903A
:101820008000079080000890002009904FF440301D
:101830000A9004200B9003200C904FF400000D90B0
:1018400080100E9069460648FFF7ACFE2021044840
:10185000FFF75CFE01210248FFF7A0FD0FB030BD8D
:1018600058640240802C014030B587B04FF41071AD
:101870005D48FEF7A9FD01205B4981F8380101218F
:10188000084604F053FB0121880504F04FFB0121B9
:10189000102004F09BFB07220A21544800F056FA5E
:1018A00007220921514800F051FA00208DF81A0052
:1018B00001208DF81B0002208DF818000002059011
:1018C00002208DF8190005A9484800F0F7F9022018
:1018D0008DF818004002059005A9444800F0EEF983
:1018E0004FF4E13001900020ADF80800ADF80A0097
:1018F000ADF80C00ADF810000C20ADF80E0001A9F9
:101900003B4805F05BFE0121394805F01CFE12F052
:10191000BDFB3849086008460068E0B900BF1CF00C
:101920000DF94FF47A71B0FBF1F201FB12041CF0D7
:1019300005F94FF47A71B0FBF1F5224629462EA045
:1019400005F088FF30A005F085FF36A005F082FF86
:1019500000BF07B030BD012240F22551244805F0F8
:1019600007FE25208DF8000001208DF801000020E1
:101970008DF8020001208DF80300684600F024FA7B
:101980004FF4907118481830FFF738FE40F2266186
:10199000174805F0C9FD40F22551154805F0C4FD72
:1019A000252000F006FA44208DF8000008208DF86C
:1019B000010000208DF8020001208DF80300684628
:1019C00000F002FA46208DF8000009208DF8010091
:1019D00000208DF8020001208DF80300684600F019
:1019E000F3F900BFB5E70000BC030020000002408F
:1019F00000100140FC0500205B453A2025642E259F
:101A00003033645D20000000756172745F696E6937
:101A100074207379735F73656D5F6E6577312065D0
:101A200072720A000D0A000010B50CF033F814F0C1
:101A3000D3FC04464FF4800009490860204614F0A6
:101A4000C5FC0120074981F82C0008465CF0DBF951
:101A500001200DF0EBFB4FF4007000F005F810BD15
:101A6000382C01402C060020014908607047000016
:101A7000143C014010B5024600200023102A03D177
:101A80004FF02044636E0FE0B2F5807F02D10A4C24
:101A9000236809E0B2F5805F03D1074C2034236846
:101AA00002E0054CD434236803EA01048C4201D0DF
:101AB000002000E0012010BD840000A00021D0E93A
:101AC00000231A4383685B1E42EA4312C36842EA5A
:101AD0004321014A11607047500100A070B50022F7
:101AE0000021002300240568AD00A5F1C045D5F80C
:101AF00040216FF30E02D0E901563543C6683543E5
:101B0000066935434669354386693543C6693543B9
:101B1000066A3543466A35432A43056835B9056880
:101B2000AD00A5F1C045C5F8402111E03B4D2B6843
:101B30006FF30E03D0E907563543466A35432B430E
:101B4000364D2B600568AD00A5F1C045C5F84021B4
:101B5000056875BB314D0835066855F8261001F04B
:101B60007041856A2D686D1E866A7668761E45EA24
:101B70000616856AAD686D1E46EA0526856AED681B
:101B80006D1E46EA0536856A2D8A6D1E46EA0546B3
:101B9000856AAD8A6D1E46EA0556856A2D7E6D1EE4
:101BA00046EA056529431D4D0835066845F82610A7
:101BB00032E0FFE7194D0835066855F8261001F0A8
:101BC0007041856A2D686D1E866A7668761E45EAC4
:101BD0000616856AAD686D1E46EA0526856A2D8A59
:101BE0006D1E46EA054529430C4D08352C6804F066
:101BF0007044856AED686D1E2E03856AAD8A6D1E80
:101C000046EA05552C434FF02045C5F84841034DA1
:101C10000835066845F8261070BD0000400100A098
:101C20000449096841EA40014FF02042C2F85411CA
:101C300070470000540100A010B501218C2004F071
:101C400075F90C2208211A4800F080F80C220921AD
:101C5000174800F07BF80C220221164800F076F8B5
:101C60000C221146124800F071F818224FF48071CE
:101C70000F480EF029F81A224FF400710C480EF0AC
:101C800023F8182204210B480EF01EF818224FF4F6
:101C9000805107480EF018F81022510106480EF046
:101CA00013F84FF4007004491831088010BD00008B
:101CB00000080240000C024000180240F0B50A463D
:101CC00000210023002400BF3DE0012505FA01F3B7
:101CD000156805EA03049C4234D105684F000326C9
:101CE000BE40B543056015794E00B54006683543E2
:101CF00005601579012D02D01579022D16D1856860
:101D00004F000326BE40B543856055794E00B5406F
:101D1000866835438560456801268E40B543456039
:101D2000456896798E40B6B235434560C5684F0028
:101D30000326BE40B543C560D5794E00B540C668A0
:101D40003543C560491C1029BFD3F0BDF0B5002351
:101D500000244D07ED0E02FA05F3CE1000F1200528
:101D600055F826504E07F70E0F26BE40B543CF104C
:101D700000F1200646F82750CE1000F1200555F856
:101D8000265045EA0304CE1000F1200545F8264010
:101D9000F0BD0246002013690B400BB1012000E0AA
:101DA00000207047418370470183704700604060A6
:101DB000704700F01F02012191404209920002F198
:101DC000E022C2F80011704770B5002100230F22F5
:101DD000C4781CB3174C246804F4E064C4F5E064D0
:101DE000C4F30721C1F10404E3B20A4144789C40E2
:101DF000E1B28478144021430C07210E0E4C057883
:101E00006155047804F01F050124AC4005786D117C
:101E1000AD0005F1E025C5F8004109E0047804F0C3
:101E20001F050124AC40054D0678761145F8264083
:101E300070BD00000CED00E000E400E080E100E097
:101E400002490143024A1160704700000000FA0590
:101E50000CED00E01148124812481348134814488A
:101E60001448154815481648164817481748184882
:101E70001848194819481A481A481B481B481C4852
:101E80001C481D481D481E481E481F481F48204822
:101E9000204821482148224800BF70478031060869
:101EA000E0300608E4300608E8300608EC300608A2
:101EB0000C310608103106081431060818310608DE
:101EC0001C3106082031060824310608283106088E
:101ED0002C3106083031060834310608383106083E
:101EE0003C310608403106084431060848310608EE
:101EF0004C3106085031060854310608583106089E
:101F00005C3106086031060864310608683106084D
:101F10006C310608703106087431060878310608FD
:101F20007C3106087047000070B5044600F088F860
:101F30000020354908703549087035490870354921
:101F400008603549086035490870354908703549D9
:101F5000087035490870354800680A21B0FBF1F077
:101F6000334908603348006858B13348056845B1C3
:101F70003048066803E0761E002028602D1D002EE4
:101F8000F9D100202D49087002F0B8FC02F09AFD4A
:101F9000204602F081F9208800B170BD204602F091
:101FA00099FA208800B1F8E7204602F01FFD20884A
:101FB00000B1F2E7204602F0E7FE208800B1ECE72E
:101FC000204603F02BF9208800B1E6E7204602F016
:101FD0000FF9208800B1E0E7204603F075FD208866
:101FE00000B1DAE7204603F05DF8208800B1D4E7BD
:101FF000204603F009FE208800B1CEE702F014F875
:10200000FFF728FF00BFC8E7500000205100002064
:1020100066000020BC000020C00000205A00002004
:102020005B0000205C0000206C00002040310608AE
:1020300068000020103106080C3106089A000020C4
:10204000064800680649096800EB810005490860F8
:102050000846006820F00700086070470C31060849
:10206000103106083800002010B5002429480078F7
:10207000012800D010BD00BFFEF7B8F8044600BF2D
:102080002548007828B900BF2046FEF7B3F800BF06
:10209000F0E721480078401E1F4908700846007884
:1020A000002805DD00BF2046FEF7A4F800BFE1E7E9
:1020B0001A480078002805DD00BF2046FEF79AF890
:1020C00000BFD7E702F006FC154908700846007803
:1020D00000EB4000134951F82000134908600846FE
:1020E000006812490968884205D100BF2046FEF702
:1020F00081F800BFBEE70E480068401C0C4908602C
:10210000FEF75EFD00BF2046FEF774F800BF00BF7B
:10211000B0E70000510000205000002066000020C1
:102120005B00002060170020C0000020BC000020E1
:10213000900000202DE9F04104460E461546002788
:102140001B480078002804DD42F6E1602880BDE8E5
:10215000F0811CB945F6C3502880F8E700BF00BFE6
:10216000FEF744F8074600BF00BF124820606660D3
:102170000020206284F82500A062202084F824003A
:1021800004F1080002F05DFA204602F08BF90A48DB
:102190000088401C0849088000BF00BF3846FEF791
:1021A00029F800BF00BF0020288000BFCFE7000053
:1021B000500000204D555458580000202DE9F0479C
:1021C00088B00546894690461C46109E4FF0000A8E
:1021D0008A480078002805DD46F2AE10308008B04D
:1021E000BDE8F0871DB945F6C3503080F7E7B8F178
:1021F000000F03D0B8F5004F02D100E000BF03E0AC
:1022000045F625603080EAE700BF7D4928688842AE
:1022100003D045F6C4503080E1E70CB100202060C7
:1022200000BF00BFFDF7E2FF824600BF00BF95F888
:102230002500C0B97348006828627248006890F8A9
:10224000370085F82400012085F825000CB1A86A24
:10225000206000BF00BF5046FDF7CCFF00BF00BFAD
:1022600000203080BBE76749286A0968884212D19C
:1022700095F82500401C85F825000CB1A86A20605F
:1022800000BF00BF5046FDF7B5FF00BF00BF45F2DD
:1022900082703080A3E708F4004050B100BF00BF57
:1022A0005046FDF7A7FF00BF00BF46F2B0103080D8
:1022B00095E75548007800280ADD00BF00BF50466A
:1022C000FDF798FF00BF00BF46F66350308086E7F9
:1022D0002F6A97F837004B49096891F83710884200
:1022E0003ADD97F8360008282AD2DFE800F0041516
:1022F0001E1F17162021384602F06CFC414800686A
:1023000090F8370087F8370097F8370002F002FBA3
:10231000384602F0FFFB1EE000BF00BF39480068EE
:1023200090F8370087F8370015E000BF00BF00BF06
:102330003448006890F83710384602F05FF90AE038
:1023400000BF00BF5046FDF755FF00BF00BF46F677
:102350002D60308043E700BF4B4604222946684683
:1023600002F0C4F800BF00BF5046FDF743FF00BFB6
:1023700000BF00F019FB00BF00BFFDF737FF82462A
:1023800000BF00BF1F48006890F8350030B1012839
:102390000CD002281AD0032821D110E01CB1194812
:1023A0000068006C2060002030801CE01CB11548E3
:1023B0000068006C206046F2A910308013E00CB178
:1023C0000020206047F2D92030800CE01CB10D487D
:1023D0000068006C206045F6C250308003E046F68D
:1023E0002E60308000BF00BF00BF00BF5046FDF729
:1023F00001FF00BF00BF00BFF1E600005000002059
:102400004D555458BC000020660000202DE9F84FBF
:1024100004460F4615464FF0000A5448007800283D
:1024200004DD46F20E202880BDE8F88F1CB945F681
:10243000C3502880F8E71FB1B7F5004F02D100E084
:1024400000BF03E045F625602880EDE700BF48495E
:102450002068884203D045F6C4502880E4E700BFD6
:1024600000BFFDF7C3FE824600BF00BF4149206A9E
:10247000096888420AD000BF00BF5046FDF7BAFE87
:1024800000BF00BF45F281702880CDE74FF0000902
:102490002534C4F803902078401E207014F82509D4
:1024A00000280ADD00BF00BF5046FDF7A3FE00BFB5
:1024B00000BF45F283702880B6E704F10808B8F839
:1024C000080068B90020206284F8250000BF00BF22
:1024D0005046FDF78FFE00BF00BF00202880A3E715
:1024E0002448006890F8370094F82410884219D0E6
:1024F0002048006802F06EFB94F824001D4909682A
:1025000081F837001B49096891F8370002F002FA98
:102510001848006802F01EFB1648006890F8370063
:1025200015490870D8F800008668266296F83700CA
:1025300084F82400012084F8250000231A4631463F
:102540002046CDF8009002F050F900BF00BF504681
:10255000FDF750FE00BF00BF07F4004008B900F0CF
:1025600023FA0020288000BF5EE700005000002012
:102570004D555458BC0000205A0000202DE9F04170
:1025800004460F4616461D464FF000081C480078CA
:10259000002804DD42F6E1602880BDE8F0811CB926
:1025A00045F6C3502880F8E71EB946F294502880BB
:1025B000F3E700BF00BFFDF719FE804600BF00BF74
:1025C000104820606760314604F1200001F0E4FE0D
:1025D00004F1080002F035F8204602F0D7F90A4865
:1025E0000088401C0849088000BF00BF4046FDF736
:1025F00001FE00BF00BF0020288000BFCDE7000023
:102600005000002051554555640000202DE9FC5F25
:102610000546884614460020009048480078002867
:1026200005DD43F2C92020800020BDE8FC9F25B9CC
:1026300045F6C35020800020F7E7B8F1000F03D023
:10264000B8F1010F02D100E000BF04E045F62560BB
:1026500020800020E9E700BF39492868884204D07B
:1026600045F6C45020800020DFE700BF00BFFDF723
:10267000BDFD009000BF00BF05F10809B9F8086072
:102680003746B8F1000F03D0B8F1010F48D120E070
:10269000A7B9284602F092F92A480088401E294925
:1026A0000880284602F05AF900BF00BF0098FDF7E5
:1026B000A1FD00BF00BF0020208009E000BF00BFD7
:1026C0000098FDF797FD00BF00BF47F25F10208024
:1026D00031E0002001900AE0D9F800A0DAF808B053
:1026E00059462846019A02F01DF8701E86B2002E47
:1026F000F2D1284602F062F912480088401E1149C2
:102700000880284602F02AF900BF00BF0098FDF7B4
:1027100071FD00BF00BF00F047F9002020800AE0F3
:1027200000BF00BF0098FDF765FD00BF00BF45F684
:102730002560208000BF00BF384676E750000020AB
:1027400051554555640000202DE9F04F89B00746EA
:10275000894690461E46DDE912544FF0000B6A4848
:102760000078002806DD46F2AE102080002009B077
:10277000BDE8F08F27B945F6C35020800020F6E76A
:1027800026B946F2D52020800020F0E7B8F1000FEE
:1027900003D0B8F5004F02D100E000BF04E045F6D9
:1027A000256020800020E2E700BF58493868884251
:1027B00004D045F6C45020800020D8E70DB1002099
:1027C000286000BF00BFFDF711FD834600BF00BFBA
:1027D00023462A46314607F1200001F0A9FD824632
:1027E000208840B900BF00BF5846FDF703FD00BF79
:1027F00000BF5046BBE708F4004058B100BF00BF1F
:102800005846FDF7F7FC00BF00BF46F2B01020802D
:102810000020ACE73E48007800280BDD00BF00BF79
:102820005846FDF7E7FC00BF00BF46F66350208026
:1028300000209CE74B460522394601A801F056FED0
:1028400000BF00BF5846FDF7D5FC00BF00BF00F039
:10285000ABF800BF00BFFDF7C9FC834600BF00BF57
:102860002C48006890F8350030B1012815D00228B6
:102870002AD0032835D11DE026480068D0F85CA096
:1028800024480068B0F8600030801DB1214800681D
:10289000006C2860002020802BE04FF0000A002010
:1028A00030801DB11B480068006C286046F2A910FA
:1028B00020801EE04FF0000A0020308005B1286023
:1028C00047F2D920208014E04FF0000A0020308029
:1028D0001DB110480068006C286045F6C250208089
:1028E00007E04FF0000A0020308046F62E6020807E
:1028F00000BF00BF00BF00BF5846FDF77BFC00BF14
:1029000000BF504633E700005000002051554555A8
:1029100066000020BC0000202DE9FC4705468846E3
:1029200091461E460A9C25B945F6C3502080BDE855
:10293000FC87B6F5004F19D009DC9EB1102E12D0DD
:10294000B6F5007F10D0B6F5047F13D10DE0A6F5E3
:102950000040103858B1B0F5F87F09D0B0F5007FCD
:1029600008D106E000BF00BF00BF00BF00BF00BF2E
:1029700000BF03E045F625602080D8E700BF094985
:102980002868884203D045F6C4502080CFE700274E
:1029900033464A4641462846CDE9007402F032F8F3
:1029A00000BFC4E75155455510B500241A480078BA
:1029B000002800DD10BD19480078002800DDF9E787
:1029C00000BFFDF713FC044600BF01F083FF14496C
:1029D00008700846007800EB4000124951F82000CA
:1029E000114908600846006810490968884205D105
:1029F00000BF2046FDF7FEFB00BFDBE70C48006888
:102A0000401C0B490860FEF7D6F800BF2046FDF7D2
:102A1000F1FB00BF00BFCDE75000002066000020A2
:102A20005B00002060170020C0000020BC000020D8
:102A30009000002070B50446002517480078002853
:102A400003DD46F66250208070BD144800780128EE
:102A500003D045F689602080F6E711480078FA280F
:102A600003DB45F209202080EEE700BF00BFFDF741
:102A7000BDFB054600BF00BF09480078401C08495F
:102A8000087000BF00BF2846FDF7B4FB00BF00BFC1
:102A90000020208000BFD7E7500000205100002018
:102AA0006600002070B5044600251F480078002805
:102AB00003DD46F66550208070BD1C480078012873
:102AC00003D045F689602080F6E71948007818B9E8
:102AD00046F664502080EFE700BF00BFFDF786FB9D
:102AE000054600BF00BF12480078401E104908701C
:102AF0000846007800280ADD00BF00BF2846FDF721
:102B000079FB00BF00BF46F663502080D4E700BFCA
:102B100000BF2846FDF76EFB00BF00BFFFF744FF74
:102B20000020208000BFC7E7500000205100002097
:102B3000660000202DE9F04104460E4617461D466A
:102B40004FF0000818480078002804DD42F6E160E4
:102B50002880BDE8F0811CB945F6C3502880F8E70D
:102B600000BF00BFFDF742FB804600BF00BF0F481B
:102B70002060276200206062666004F1080001F0B6
:102B800060FD204602F0D0F809480088401C084942
:102B9000088000BF00BF4046FDF72CFB00BF00BF10
:102BA0000020288000BFD4E75000002053454D414D
:102BB000740000202DE9FC5F05468846144600207D
:102BC000009048480078002805DD43F2C9202080A5
:102BD0000020BDE8FC9F25B945F6C35020800020A9
:102BE000F7E7B8F1000F03D0B8F1010F02D100E010
:102BF00000BF04E045F6256020800020E9E700BF23
:102C000039492868884204D045F6C4502080002005
:102C1000DFE700BF00BFFDF7E9FA009000BF00BF8B
:102C200005F10809B9F808603746B8F1000F03D07C
:102C3000B8F1010F48D120E0A7B9284602F08CF87E
:102C40002A480088401E29490880284602F058F882
:102C500000BF00BF0098FDF7CDFA00BF00BF002005
:102C6000208009E000BF00BF0098FDF7C3FA00BF55
:102C700000BF47F25F10208031E0002001900AE0A1
:102C8000D9F800A0DAF808B059462846019A01F0B0
:102C900049FD701E86B2002EF2D1284602F05CF883
:102CA00012480088401E11490880284602F028F882
:102CB00000BF00BF0098FDF79DFA00BF00BFFFF7FF
:102CC00073FE002020800AE000BF00BF0098FDF7DF
:102CD00091FA00BF00BF45F62560208000BF00BF0D
:102CE000384676E75000002053454D4174000020DF
:102CF0002DE9F04788B00646894690461C46109D4F
:102D00004FF0000A60480078002806DD46F2AE1059
:102D10002880002008B0BDE8F08726B945F6C350EA
:102D200028800020F6E7B8F1000F03D0B8F5004F77
:102D300002D100E000BF04E045F6256028800020B5
:102D4000E8E700BF51493068884204D045F6C450D6
:102D500028800020DEE70CB10020206000BF00BF0B
:102D6000FDF744FA824600BF00BF306A88B1306A7E
:102D7000401E30620CB1706A2060376A00BF00BF2D
:102D80005046FDF737FA00BF00BF002028803846C4
:102D9000C0E708F4004060B1376A00BF00BF50468A
:102DA000FDF728FA00BF00BF46F2B0102880384671
:102DB000B0E73748007800280BDD00BF00BF504661
:102DC000FDF718FA00BF00BF46F6635028800020C8
:102DD000A0E74B4606223146684601F087FB00BF5C
:102DE00000BF5046FDF706FA00BF00BFFFF7DCFD4D
:102DF00000BF00BFFDF7FAF9824600BF00BF2548BB
:102E0000006890F8350030B101280CD002281AD0A3
:102E1000032821D110E01CB11E480068006C20601E
:102E20000020288024E01CB11A480068006C206053
:102E300046F2A91028801BE00CB10020206047F268
:102E4000D920288014E01CB112480068006C206072
:102E500045F6C25028800BE046F62E60288000BF61
:102E600000BF5046FDF7C6F900BF00BF002051E784
:102E700000BF376A00BF00BF5046FDF7BBF900BF77
:102E800000BF384646E700005000002053454D4142
:102E900066000020BC0000202DE9F04105460E46EA
:102EA00014462DB945F6C35020800020BDE8F081BE
:102EB0004EB1B6F5007F07D0B6F5004F05D0B6F598
:102EC000024F04D102E000BF00BF00BF04E045F69E
:102ED000256020800020E9E700BF09492868884272
:102EE00004D045F6C45020800020DFE700272346A9
:102EF0003A463146284601F053FF80464046D5E722
:102F000053454D412DE9F04104460E4615464FF01C
:102F100000081A480078002804DD46F6C6502880CC
:102F2000BDE8F0811CB945F6C3502880F8E7144984
:102F30002068884203D045F6C4502880F0E700207E
:102F4000288000BF00BFFDF751F9804600BF00BFD9
:102F5000206A08B1266208E004F10807388908B938
:102F6000266202E047F25F10288000BF00BF4046A3
:102F7000FDF740F900BF00BF00BFD1E750000020BF
:102F800053454D4110B5044612480078E8B901F0A8
:102F9000A1FC1149087008460078104908700E48D5
:102FA000007800EB40000E4951F820000D49086000
:102FB000084600680C490860012006490870FDF7C2
:102FC000E9FD43F69920208002E045F68A602080E2
:102FD00010BD0000510000205B0000205A000020BE
:102FE00060170020C0000020BC0000202DE9F04147
:102FF00007464FF0000800BF00BFFDF7F7F8804616
:1030000000BF00BF002033490880334908603349BE
:103010000860334908603349088100BF00BF40465B
:10302000FDF7E8F800BF00BF00BF00BFFDF7DEF806
:10303000804600BF00BF2C48046800BF00BF404668
:10304000FDF7D8F800BF00BF13E000BF00BFFDF7D9
:10305000CDF8804600BF00BF04F164060020B081B7
:10306000D4F8884000BF00BF4046FDF7C3F800BF5A
:1030700000BF002CE9D100BF00BFFDF7B7F88046C4
:1030800000BF00BF1948056800BF00BF4046FDF7FC
:10309000B1F800BF00BF12E000BF00BFFDF7A6F807
:1030A000804600BF00BF05F120060020B081AD6959
:1030B00000BF00BF4046FDF79DF800BF00BF002DD8
:1030C000EAD102F01BFC02F09BFE00203880BDE834
:1030D000F08100007A0000208C000020A000002079
:1030E000AC00002054170020940000206000002055
:1030F000F8B5044600266946324800F085FCBDF864
:10310000000018B1BDF800002080F8BD6A4600211B
:10311000022000F097FCBDF8000018B1BDF80000D7
:103120002080F2E700BF00BFFDF760F8064600BF51
:1031300000BF00202449086000BF00BF3046FDF7F3
:1031400059F800BF00BF00252048006820490968E1
:10315000884205D91D4800681D490968B0FBF1F592
:1031600025B91A4800680A21B0FBF1F56A4600212A
:10317000284600F067FC6946124800F0A5F9BDF842
:10318000000018B1BDF800002080BEE700BF00BFFE
:10319000FDF72CF8064600BF00BF00200D4908606F
:1031A000094800680C49086001200C49087000BFFC
:1031B00000BF3046FDF71EF800BF00BF0020208092
:1031C00000BFA2E7001A00207C0000204031060862
:1031D000283106088C000020800000208800002094
:1031E000704700002DE9FF4F85B004469046DDE9A9
:1031F0001995159F139E00200290614800780028C1
:1032000005DD47F24A10288009B0BDE8F08F1CB9EF
:1032100047F2AD102880F7E7B8F1000F03D147F26D
:103220004F102880F0E71EB946F62F602880EBE7A4
:1032300054480068874203D246F630602880E3E7AE
:103240001498B84203D346F631602880DCE7129820
:10325000202803D346F273202880D5E712981F2830
:1032600006D14948844203D046F273202880CBE738
:10327000204601F0E3FF0020288009F0010088B11A
:1032800009F0020070B1B3460020049007E000206E
:10329000CBF800000BF1040B0498401C0490049838
:1032A000B842F4D3149806EB80000390CDE900797E
:1032B00032464046039B089900F07AFA8346C4F8E8
:1032C00028800898E06206982062129884F83700F7
:1032D000C4F800B00398A06017986065179818B9F3
:1032E0002A480068A06501E01798A06518986060FA
:1032F0006662A763A4F83C904FF0000A08E0002142
:1033000004F1740040F82A100AF1010000F0FF0AED
:10331000BAF1000FF3D004F16400169901F03CF803
:10332000204600F039F800BF00BFFCF75FFF0290B5
:1033300000BF00BF94F8370001F0ECFA204601F01E
:1033400009FC204601F030FF11480088401C10495C
:10335000088010480078012807D000BF00BF0298FD
:10336000FCF748FF00BF00BF4EE700BF00BF029858
:10337000FCF740FF00BF00BFFFF716FB00BF43E7AD
:10338000500000203C310608C416002068000020D0
:1033900098000020510000207047000070B50446DE
:1033A0000D46002643480078002803DD47F24E1002
:1033B000288070BD4048844203D147F24C102880D9
:1033C000F7E77CB900BF00BFFCF710FF064600BF5F
:1033D00000BF3A48046800BF00BF3046FCF70AFF50
:1033E00000BF00BF00BF00BFFCF700FF064600BFE4
:1033F00000BF94F8360008282DD2DFE800F0040959
:103400000E10080A0F11204601F0E4FB2EE02DE01B
:1034100000BF204602F056FA28E000BF00BF00BF00
:10342000204602F04FFA94F83400082810D2DFE862
:1034300000F004070508090A0B0600BF00BF08E0FA
:1034400000BF00BF00BF00BF204601F032F900E01E
:1034500000BF00BF0AE000BF00BF3046FCF7CAFE55
:1034600000BF00BF46F62D602880A2E700BF04F130
:10347000640000F03BFF204600F024F8204601F0F5
:10348000ABFE0F480088401E0D490880204601F021
:10349000D5FEFF2084F8360000BF00BF3046FCF7A1
:1034A000A9FE00BF00BF00202880FFF77DFA00BF03
:1034B0007FE7000050000020C4160020BC00002060
:1034C000980000207047000070B504460D460026A5
:1034D00015480078002803DD47F25510288070BD9C
:1034E00000BF00BFFCF782FE064600BF00BF1CB154
:1034F0000E48006884420AD100BF00BF3046FCF786
:1035000079FE00BF00BF47F257102880E7E700BFF1
:1035100000BF3046FCF76EFE00BF00BF29462046C4
:1035200001F0E4FE00BFDAE750000020BC000020FC
:10353000704700002DE9F04780460E4614461D46B0
:103540004FF0000953480078002805DD46F2AE1020
:1035500028800020BDE8F0871EB1B6F5004F02D1EB
:1035600000E000BF04E045F6256028800020F1E778
:1035700000BF0CB10020206000BF00BFFCF736FE8A
:10358000814600BF00BF44480068406CC8B1424853
:103590000068406C401E4049096848643E48006825
:1035A000476C1CB13C480068006C206000BF00BF45
:1035B0004846FCF71FFE00BF00BF002028803846A9
:1035C000C8E706F4004058B100BF00BF4846FCF70A
:1035D00011FE00BF00BF46F2B01028800020B9E7FE
:1035E0002E48007800280BDD00BF00BF4846FCF7DE
:1035F00001FE00BF00BF46F6635028800020A9E707
:10360000434607220021084600F070FF00BF00BFBC
:103610004846FCF7EFFD00BF00BFFFF7C5F900BF4C
:1036200000BFFCF7E3FD814600BF00BF1A480068F9
:1036300090F8350020B101280AD0032818D110E0F5
:103640001CB115480068006C20600020288013E041
:103650001CB111480068006C206046F2A910288057
:103660000AE00CB10020206047F2D920288003E056
:1036700046F62E60288000BF00BF07480068476CF0
:1036800000BF00BF4846FCF7B5FD00BF00BF38468D
:1036900060E7000050000020BC0000206600002011
:1036A0002DE9F04107460D4614461DB1B5F5004F12
:1036B00002D100E000BF05E045F625602080002033
:1036C000BDE8F08100BF0026234632462946384631
:1036D00001F098FE80464046F2E700002DE9F047F1
:1036E00005460E4617461C464FF0000A2E48007845
:1036F000002804DD47F259102080BDE8F0871EB98C
:1037000046F2D5202080F8E71FB946F2D520208068
:10371000F3E700BF00BFFCF769FD824600BF00BFB2
:103720000DB922480568286868B900BF00BF504637
:10373000FCF760FD00BF00BF00203060386047F23A
:1037400052102080D9E795F83C0000F0010068B9DC
:1037500000BF00BF5046FCF74DFD00BF00BF00207A
:103760003060386047F254102080C6E700BF00BFC9
:103770005046FCF73FFD00BF00BF4FF00008D5F8F2
:10378000249003E009F1040908F10108D9F80000C8
:103790000028F7D0C6F80080A86BA0EB08003860BE
:1037A0000020208000BFA8E750000020BC000020BF
:1037B000F0B50446DDE9055602EB850020F0070070
:1037C0004FF0000C071F3846C7F800C0071F3846E7
:1037D000C7F800C04FF0153C071F3846C7F800C0B7
:1037E0004FF0143C071F3846C7F800C04FF0133C99
:1037F000071F3846C7F800C04FF0123C071F384675
:10380000C7F800C04FF0113C071F3846C7F800C08A
:103810004FF0103C071F3846C7F800C04FF0093C76
:10382000071F3846C7F800C04FF0083C071F38464E
:10383000C7F800C04FF0073C071F3846C7F800C064
:103840004FF0063C071F3846C7F800C04FF0053C54
:10385000071F3846C7F800C04FF0043C071F384622
:10386000C7F800C04FF0033C071F3846C7F800C038
:103870004FF0023C071F3846C7F800C04FF0013C2C
:10388000071F3846C7F800C04FF0000C071F384626
:10389000C7F800C04FF0807C071F3846C7F800C04B
:1038A000071F38463C60DFF85CC1071F3846C7F881
:1038B00000C04FF0123C071F3846C7F800C04FF059
:1038C000033C071F3846C7F800C04FF0023C071FF3
:1038D0003846C7F800C0071F38463B60071F384608
:1038E00039604FF0113C071F3846C7F800C04FF051
:1038F000103C071F3846C7F800C04FF0093C071FAF
:103900003846C7F800C04FF0083C071F3846C7F8D4
:1039100000C04FF0073C071F3846C7F800C04FF003
:10392000063C071F3846C7F800C04FF0053C071F8C
:103930003846C7F800C04FF0043C071F3846C7F8A8
:1039400000C04FF0313C071F3846C7F800C04FF0A9
:10395000303C071F3846C7F800C04FF0293C071F0E
:103960003846C7F800C04FF0283C071F3846C7F854
:1039700000C04FF0273C071F3846C7F800C04FF083
:10398000263C071F3846C7F800C04FF0253C071FEC
:103990003846C7F800C04FF0243C071F3846C7F828
:1039A00000C04FF0233C071F3846C7F800C04FF057
:1039B000223C071F3846C7F800C04FF0213C071FC4
:1039C0003846C7F800C04FF0203C071F3846C7F8FC
:1039D00000C04FF0193C071F3846C7F800C04FF031
:1039E000183C071F3846C7F800C04FF0173C071FA8
:1039F0003846C7F800C04FF0163C071F3846C7F8D6
:103A000000C0F0BDED53000870B505460C460A48ED
:103A10000078002803DD47F25D10208070BD074864
:103A2000854203D147F25B102080F7E72146284604
:103A300001F0CAFD00BFF1E750000020C4160020CD
:103A4000704700002DE9F04105460E461446002758
:103A50002A480078002804DD47F275202080BDE860
:103A6000F08127480078002803DD46F66350208067
:103A7000F5E736B1022E05D0042E0AD0082E09D162
:103A800001E000BF00BF1DB947F27E202080E6E7BD
:103A900004E003E045F625602080E0E700BF00BFBA
:103AA00000BFFCF7A3FB074600BF00BF012015497C
:103AB000096881F8360023463246294611480068D5
:103AC00001F022FE208838B100BF00BF3846FCF765
:103AD00091FB00BF00BFC2E70A48006801F07AF816
:103AE00000BF00BF3846FCF785FB00BF00BFFEF7F4
:103AF0005BFF0020208000BFB1E7000050000020E5
:103B000066000020BC0000202DE9FF5F05460E4640
:103B100017469846DDE90EA4002000905D48007825
:103B2000002804DD47F275202080BDE8FF9F5A4839
:103B30000078002803DD46F663502080F5E70AF0A0
:103B40000E0BBBF1000F09D0BBF1020F07D0BBF188
:103B5000040F10D0BBF1080F0ED101E000BF00BF71
:103B6000B8F1000F06D12FB926B91DB947F27E2052
:103B70002080DAE704E003E045F625602080D4E702
:103B800000BF2AF01E0008B1012000E000200390D1
:103B90000398012803D145F625602080C5E7CAF3C4
:103BA000001002900298C0B9B8F57A7F03D347F2AB
:103BB0007B202080B9E73B2F03DD47F27A2020806D
:103BC000B3E73B2E03DD47F279202080ADE7632D7C
:103BD00012DD47F278202080A7E742F20F7086427C
:103BE00003DD47F2792020809FE7B5F57A7F03DB7C
:103BF00047F27820208098E72848D0F800904FF4CA
:103C0000FA70B0FBF9F0404400FB09F04FF47A7110
:103C1000B0FBF1F14FF461606843C6EB061200EBB4
:103C20008200384400FB09100190019860B300BF86
:103C300000BFFCF7DBFA009000BF00BF012018496D
:103C4000096881F8360023465A46154801990068EC
:103C500001F05AFD208838B100BF00BF0098FCF782
:103C6000C9FA00BF00BF60E70D48006800F0B2FF6E
:103C700000BF00BF0098FCF7BDFA00BF00BFFEF711
:103C800093FE0020208002E047F27E20208000BFCB
:103C90004BE700005000002066000020403106087D
:103CA000BC00002008B500F02BF86A4600210E4841
:103CB000FFF7F6FC0D49097801EB41010C4A02EBD4
:103CC000810000F0B5FF0B480068401E09490860FC
:103CD0000846006838B90848006808606A4600214C
:103CE0000648FFF7DDFC08BD701900205A000020CF
:103CF00060170020B8000020B4000020001A002047
:103D0000704700002DE9F84F0446884616461F46C6
:103D1000DDE90BABDDF828900D9D002000902948CF
:103D20000078002804DD47F243302880BDE8F88F92
:103D30001CB945F6C3502880F8E7B9F1010F08D047
:103D4000B9F1020F0BD11FB947F240302880EDE7DF
:103D500009E01EB947F23F302880E7E703E045F667
:103D600025602880E2E700BF00BF00BFFCF73EFAF5
:103D7000009000BF00BF012084F82A001248206094
:103D8000C4F8048026620020A061E0616762A4F8A4
:103D90002890C4F808A0C4F80CB0206160612046E7
:103DA00001F006FF09480088401C0849088000BF50
:103DB00000BF0098FCF71EFA00BF00BF002028805B
:103DC00000BFB3E750000020544D5220A80000204F
:103DD00038B505460C462A480078002804DD47F22D
:103DE00043302080002038BD25B947F24230208082
:103DF0000020F8E723492868884204D045F6C450DB
:103E000020800020EFE76846FEF714FE284601F008
:103E1000E3FE1D480088401E1B49088095F82A00D3
:103E2000F0B1012811D0022802D0032820D10DE0E2
:103E3000284602F053F8284601F0A2FE6846FEF735
:103E400031FE002020800120CDE700BF284601F090
:103E500097FE6846FEF726FE002020800120C2E77C
:103E60006846FEF71FFE47F23D3020800020BAE78B
:103E70006846FEF717FE47F2413020800020B2E787
:103E800050000020544D5220A800002038B50546AF
:103E90000C4627480078002804DD47F24330208094
:103EA000002038BD25B947F2423020800020F8E7D5
:103EB00020492868884204D045F6C450208000205C
:103EC000EFE76846FEF7B6FD95F82A0000B3012833
:103ED00012D0022802D0032822D10EE0284601F099
:103EE000FDFF0021284601F023FF6846FEF7DAFDBA
:103EF000002020800120D4E700BF0021284601F0E7
:103F000017FF6846FEF7CEFD002020800120C8E79D
:103F10006846FEF7C7FD47F23D3020800020C0E72D
:103F20006846FEF7BFFD47F2413020800020B8E729
:103F300050000020544D52202DE9F84305460F460D
:103F400090461C4636480078002805DD47F243308D
:103F500020800020BDE8F88325B947F24230208058
:103F60000020F7E72F492868884204D045F6C4505E
:103F700020800020EEE76846FEF75CFD95F82A00F9
:103F800000283DD0012833D0022802D003283FD199
:103F90002DE0284601F0A2FF00202080C7B1032FAA
:103FA00002D0042F15D109E0AE681EB12846E96899
:103FB000B04702E047F24430208012E0AE681EB104
:103FC00041462846B04702E047F24430208008E0EE
:103FD00007E06846FEF766FD45F625602080002074
:103FE000B8E700BF6846FEF75DFD0120B2E700BFFD
:103FF0006846FEF757FD47F2493020800120A9E7C7
:104000006846FEF74FFD47F23D3020800020A1E7D3
:104010006846FEF747FD47F241302080002099E7CF
:1040200050000020544D5220204821482148224869
:104030002248234823482448244825482548264820
:1040400026482748274828482848294829482A48F0
:104050002A482B482B482C482C482D482D482E48C0
:104060002E482F482F483048304831483148324890
:104070003248334833483448344835483548364860
:1040800036483748374838483848394839483A4830
:104090003A483B483B483C483C483D483D483E4800
:1040A0003E483F483F48404800BF704784310608BB
:1040B000003306088631060887310608883106086D
:1040C0008C310608903106088D310608C231060889
:1040D000C4310608E4310608E8310608EA3106086A
:1040E000EC310608EE310608F03106081C320608ED
:1040F0001D3206081E320608203206082232060843
:10410000233206082432060826320608283206081A
:104110002A3206082C3206082E32060830320608EB
:104120006032060861320608623206086332060809
:1041300064320608663206086832060890320608BD
:104140009132060892320608933206089432060825
:1041500096320608983206089C3206089D320608F8
:104160009E3206089F320608A0320608A1320608D1
:10417000A2320608A3320608A4320608A6320608B0
:10418000A7320608A8320608AA320608AC3206088A
:10419000AD320608B0320608F8320608F9320608D1
:1041A000FA320608FC320608FE320608002400BF78
:1041B00019E000BF00BFFCF719F8044600BF00BFBC
:1041C00009480068401C0849086008480068401C0D
:1041D0000649086000BF00BF2046FCF70BF800BF8F
:1041E00000BFFDF79FFEE4E74C0000207C000020AC
:1041F00010B58AB0044600200E4908600B2000214B
:104200000591CDE90704069108460B4909680B4A58
:1042100012680B4B1B68CDE90132CDE903101F205A
:104220000023084A08A100900C48FEF7DBFF0AB003
:1042300010BD00004C000020E8300608E4300608FD
:10424000E0300608AD41000875432F4F532D494912
:10425000492049646C65205461736B00C4160020CA
:1042600070B502460B461046114610315E1EB5B2BF
:10427000002408E00160002646600681C660103018
:104280001031661CB4B2AC42F4DB00260660466016
:104290000681C66070BD000010B504461048006875
:1042A00018B945F21E70208010BD0E48008818B95C
:1042B00045F21D702080F7E70A4801880848006829
:1042C000FFF7CEFF064800680749086005480088E8
:1042D00088800020C8800881208000BFE4E70000BB
:1042E00020310608183106085417002010B5014681
:1042F00048894B89002B17DD0A680C4B1B6813603B
:104300000A4C4B6823602346DB884C891B1B074CF7
:10431000E38023469B884C892344044CA3800023DC
:104320004B818B810B604B6010BD00005417002047
:10433000F0B504460D46608940B90020288002B1DE
:10434000106046F2925018800020F0BD61684E68FF
:10435000088928800AB1C8681060086860606068D1
:1043600018B900202060608102E06089401E6081F1
:10437000084800680860074801608088401C054FB5
:10438000B8803846C088401EF8800020188030462B
:10439000DBE7000054170020018100224281828166
:1043A00002604260704700002DE9F0410D46DDE9F2
:1043B0000674B0F80AC0B0F80880C44505DB46F2C0
:1043C000935CA4F800C0BDE8F081DFF8D4C0BCF86D
:1043D00004C0BCF1000F04D145F21D7CA4F800C05C
:1043E000F1E7DFF8BCC0DCF80010DFF8B480D1F8EA
:1043F00000C0C8F800C0C446BCF804C0ACF1010C51
:10440000A8F804C0C446BCF806C00CF1010CA8F81A
:1044100006C0C446BCF808C0B8F80680C44507DA30
:10442000DFF87CC0BCF806C0DFF87480A8F808C0CC
:10443000B0F80AC0BCF1000F06D1016041604FF036
:10444000010CA0F80AC017E003F0100CBCF1000F3B
:1044500007D1066831604FF0000CC1F800C0016060
:1044600004E0D0F804C0C1F800C04160B0F80AC050
:104470000CF1010CA0F80AC0B0F80CC0B0F80A802A
:10448000C44503DAB0F80AC0A0F80CC04D600A8138
:10449000CF604FF0000CA4F800C000BF93E700000D
:1044A0005417002009A1C161002141610849096830
:1044B00011B90021816105E005490968816104495C
:1044C0000968486102490860704700002000000048
:1044D000540000200021034A1160034A118001802A
:1044E0007047000054000020580000202DE9F041E2
:1044F00005460C4616461F461548006880F834608D
:1045000000201349096881F83500394610480068D1
:1045100000F02EFE6CB104F10808EC60012229467F
:104520000B48006800F016F82946404600F08EF867
:1045300006E0002006490968C8870549096808633C
:1045400003480168204600F019F8BDE8F08100003A
:10455000BC00002010B5C287016300230AE00024DC
:104560004C600C600C614C610C83CC618860203124
:104570005C1CA3B29342F2DB10BD000030B548B121
:104580004568C1F88C5000F10804226893681D6AE0
:10459000C56113E091F83450022D02D0072D08D1E7
:1045A00003E007A5C1F88C5007E007A5C1F88C50BF
:1045B00003E008A5C1F88C5000BF00BF30BD00006B
:1045C0005461736B205100005461736B2053656D0F
:1045D000000000002000000030B507A5C1F88C5095
:1045E00000F1080422681AB193681D6AC56101E0F0
:1045F00001A5C56130BD0000200000002DE9F04399
:1046000004460F4684F83770256BB4F83E8013E0FB
:10461000D5F80C9009F108063089012807D92946F8
:10462000304600F05EF82946304600F00FF820359D
:10463000A8F101001FFA80F8B8F1000FE8D1BDE839
:10464000F08300210160416001817047F0B58E6800
:1046500096F8375007893FB90127078100274F6037
:104660000F600160416023E007897F1C07810268B9
:1046700006E0946894F83770AF4200DD02E05268BB
:10468000002AF6D100BF32B900274F6043680B60A3
:10469000596041600CE017682FB9116000270F6066
:1046A0004A60016004E013680B604A605960116061
:1046B000F0BD2DE9F0410446256BE68F0AE0D5F800
:1046C0000C8008F108072946384600F00AF8203522
:1046D000701E86B2002EF2DC0020E0872063BDE869
:1046E000F08110B50489012C03D1002404604460DA
:1046F00011E00C6824B94A680024146002600AE0E2
:104700004C6824B90B6800245C60436003E00B68CC
:104710004A685A6013600489641E048100244C6056
:104720000C6010BD70B506460C46154694F8360070
:10473000082845D2DFE800F0040508090607262707
:1047400000BF00BF00BF3CE000BF94F83400032866
:1047500004D12A462146304600F035F80020E065B5
:10476000A4F8600025642046FFF7A3FF204600F070
:10477000AFFD00203434A07002206070002004F8E7
:1047800034091EE000BF94F83400032804D12A46FF
:104790002146304600F017F80020E065A4F86000DC
:1047A0002564204601F08EF82046FFF782FF0420A2
:1047B0003434A07002206070002004F8340900E056
:1047C00000BF00BF70BD30B50346086BCC8F08E05A
:1047D000C5689D4202D10361C26104E02030651EBC
:1047E000ACB2002CF4DC00BF30BD2DE9F843064626
:1047F0000C4617469846089D94F83600082850D273
:10480000DFE800F00405080906072B2C00BF00BFF5
:1048100000BF47E000BF94F83400032807D14346A7
:104820003A4621463046009500F03FF803E0E76540
:10483000A4F86080256436B12046FFF73AFF214690
:104840003046FFF7C9FE204600F042FD0020343418
:10485000A070607004F8340924E000BF94F83400BC
:10486000032807D143463A4621463046009500F0DA
:104870001CF803E0E765A4F860802564204601F099
:1048800021F836B12046FFF714FF21463046FFF7E6
:10489000A3FE04203434A0700020607004F83409B2
:1048A00000E000BF00BFBDE8F883F0B50446059EF8
:1048B000086BCD8F0AE0C768A74204D1046142614A
:1048C0000383C66104E020306F1EBDB2002DF2DC10
:1048D00000BFF0BD70B50025074C03E005F12000D6
:1048E000C5B2241D20680028F8D02068FBF789FC99
:1048F0002844C5B2284670BD48000020002004E0CE
:104900000021034A42F82010401C0028F8D07047CC
:104910004800002030B5420900F01F030121C3F117
:104920001F04A140034C54F822400C43014D45F8AC
:10493000224030BD4800002030B5420900F01F037E
:104940000121C3F11F04A140034C54F822408C43C1
:10495000014D45F8224030BD4800002010B5044606
:1049600004F12000FFF7C2FC0648206006A060604A
:10497000002104F12000FFF70FFD04F10800FFF70C
:1049800060FE10BD4E4F4E453F51000009A1C16170
:10499000002141610849096811B90021816105E0E0
:1049A000054909688161044909684861024908604C
:1049B000704700002000000060000020426981690B
:1049C0003AB9094B196009B100234B610023836197
:1049D00009E019B900239361436104E091614A61E0
:1049E0000023836143617047600000200021034A77
:1049F0001160034A118001807047000060000020B0
:104A0000640000202DE9F04F85B007468A469346A2
:104A10001C460020029000BF00BFFBF7E7FB02909E
:104A200000BF00BF07F108063089E0B904F01000AC
:104A300010B94FF0000801E04FF01008DDE90E0159
:104A400043465A46CDE90001514607F12000FFF7E1
:104A5000ABFC00BF00BF0298FBF7CCFB00BF00BF60
:104A600005B0BDE8F08F04F4007008B1358900E0AE
:104A70000125D6F8009011E0D9F808000390D9F884
:104A8000040004900E985B46524600903846039905
:104A9000FFF7ABFEDDF81090681E85B2002DEBD15C
:104AA00000BF00BF0298FBF7A5FB00BF00BF04F4E6
:104AB000004008B9FDF778FF00210F98018000BF82
:104AC000CEE7000000210AE001EB4102054B03EBB9
:104AD000820000220281026042604A1CD1B2202979
:104AE000F2D370476017002010B5044694F83700E1
:104AF000FFF710FF94F8370005490978884203D181
:104B0000204600F027F802E0204600F003F810BD30
:104B10005A00002010B590F8373003EB43030C4CDB
:104B200004EB83010B893BB901230B810023C36094
:104B300003610860486009E00B895B1C0B810B680E
:104B4000C360002303610A681061086010BD0000A3
:104B50006017002010B590F8373003EB43030B4C7F
:104B600004EB83010B893BB901230B810023C36054
:104B700003610860486008E00B895B1C0B8100231F
:104B8000C3604A680261D060486010BD60170020B1
:104B900010B501460C8924B1012C03D0022C0CD194
:104BA00001E000BF14E008684A6802610024C460A4
:104BB0001461D0600A6048600AE008684A68C36807
:104BC00000241C61C4600261D0600B60486000BFBB
:104BD00000BF10BD2DE9F041054695F8370000EB08
:104BE0004000124901EB80042F69EE6887B946B98D
:104BF000002020812060606095F83700FFF79CFE60
:104C00000EE02089401E208100203061266007E0F0
:104C10002089401E2081FE600EB9676000E0376188
:104C200000202861E860BDE8F081000060170020E6
:104C300070B5054600262E480078012800D070BDCA
:104C400000BF00BFFBF7D2FA064600BF00BF2C68CA
:104C50003CB900BF00BF3046FBF7CCFA00BF00BF35
:104C6000EDE72448844207D100BF00BF3046FBF780
:104C7000C1FA00BF00BFE2E7A06D10B1A06D401EF9
:104C8000A065A06D38B100BF00BF3046FBF7B2FA97
:104C900000BF00BFD3E72889022807DA00BF00BFA2
:104CA0003046FBF7A7FA00BF00BFC8E712480078FC
:104CB000002807DD00BF00BF3046FBF79BFA00BFAE
:104CC00000BFBCE72846FFF763FF2C68606D18B98A
:104CD0000A480068A06501E0606DA06500BF00BFE4
:104CE0003046FBF787FA00BF00BF00BFA7E7000010
:104CF0006C000020C4160020660000206800002020
:104D000010B504460548206000202062606204A0BF
:104D1000606004F10800FFF794FC10BD4E4F4E4553
:104D20003F53454D0000000009A1C16100214161D0
:104D30000849096811B90021816105E00549096840
:104D400081610449096848610249086070470000B0
:104D50002000000070000020426981693AB9094BC7
:104D6000196009B100234B610023836109E019B97F
:104D700000239361436104E091614A6100238361F0
:104D800043617047700000200021034A1160034A0C
:104D90001180018070470000700000207400002026
:104DA0002DE9FF5F0446884691461D46002001908C
:104DB00000BF00BFFBF71AFA019000BF00BF04F16B
:104DC0000807388900284FD10420012804D0022880
:104DD00014D0042834D123E0206AFF280DD100BF6D
:104DE00000BF0198FBF706FA00BF00BF46F6C550AA
:104DF0002880002004B0BDE8F09F22E04FF6FF714C
:104E0000206A88420BD100BF00BF0198FBF7F2F97E
:104E100000BF00BF46F6C55028800020EAE710E03A
:104E2000206A401C58B900BF00BF0198FBF7E2F9A7
:104E300000BF00BF46F6C55028800020DAE700E03A
:104E400000BF00BF206A401C2062D4F820A0C4F834
:104E5000249000BF00BF0198FBF7CCF900BF00BF52
:104E6000002028805046C5E708F4007008B13E894C
:104E700000E00126D7F800B011E0DBF8080002904E
:104E8000DBF80400039000231A46CDF8009020467A
:104E90000299FFF7AAFCDDF80CB0701E86B2002E56
:104EA000EBD1D4F820A000BF00BF0198FBF7A2F916
:104EB00000BF00BF08F4004008B9FDF775FD0020F1
:104EC0002880504696E7000008B54FF0000B00BF61
:104ED00006E06549096848006A460021FEF7B2FD10
:104EE000624800780128F4D16846FEF77FF8002573
:104EF0005F4800685C490968884205D95C480068D9
:104F000059490968B0FBF1F525B9594800680A21EB
:104F1000B0FBF1F5A7E04FF0000800BF00BFFBF7C2
:104F200065F9834600BF00BF5248006852490860D7
:104F300000205049086000BF00BF5846FBF75AF9EF
:104F400000BF00BF4D4800684B490968884243D9FB
:104F50004A4800684A49884204D242F210794FF028
:104F6000010A20E0454800684649884204D24FF4CF
:104F70007A794FF00A0A16E04048006842498842B0
:104F800003D24FF06409CA460DE03C4800683F492F
:104F9000884204D24FF00A094FF47A7A03E04FF0C6
:104FA000010942F2107A35480068B0FBFAF732483E
:104FB000006809FB00F0B0FBF7F042F21071081A2C
:104FC00033490880334800880988884208DA304825
:104FD00000883049088003E042F210702C490880B4
:104FE000FEF7FEF800BF00BFFBF700F9834600BFE5
:104FF00000BF2948046800BF00BF5846FBF7FAF815
:1050000000BF00BF16E06B4604F17C02111D204674
:10501000FEF764FB00BF00BFFBF7E8F8834600BF64
:1050200000BFD4F8884000BF00BF5846FBF7E2F845
:1050300000BF00BF002CE6D118480078012805D138
:105040000020164908706846FDF7D0FFC8F1000639
:1050500013480068B04201D2114806606A46002138
:105060002846FEF7EFFC56E72831060888000020A6
:10507000403106087C0000208400002080000020D1
:10508000801A060000093D00005A62020084D7170A
:10509000780000207A000020940000207600002094
:1050A0008C00002010B58AB0044600201F4908601B
:1050B0001F4908601F4908601F4908701F49087090
:1050C0001F48006820B946F62B6020800AB010BD4A
:1050D0001C4800681C490968884203D246F62C60C7
:1050E0002080F3E7194800781F2803D346F62A608A
:1050F0002080EBE7032000210591CDE9070406910C
:10510000084610490968124A12680D4B1B68CDE920
:105110000132CDE903100D48007800230D4A0EA19D
:1051200000901248FEF75EF800BFCFE77C00002039
:1051300084000020800000208800002076000020ED
:105140002C310608343106083C31060824310608A3
:1051500030310608C94E000875432F4F532D494979
:10516000492053746174205461736B00E01800206F
:1051700038B504460D4685B16B46022229462046C5
:1051800000F0C2FABDF8000018B9032084F8360018
:1051900006E0022084F8360002E0022084F836009F
:1051A0002046FFF717FD38BD0021C0F884100949DB
:1051B000096819B90021C0F8881007E00549096895
:1051C000C0F8881003490968C1F8840001490860E3
:1051D0007047000094000020D0F88420D0F8881098
:1051E0004AB90D4B196011B10023C1F88430002376
:1051F000C0F888300FE029B90023C2F88830C0F821
:10520000843008E0C2F88810C1F884200023C0F878
:105210008830C0F884307047940000200021044A90
:105220001160044A1180044A116001807047000037
:1052300094000020980000209000002070B50446E3
:1052400000202060A0606060E06020616061A0617B
:10525000E0611CA0206200206062A062E062206326
:10526000E0872064E065A4F86000002104F1640098
:10527000FFF792F8002506E0002104F1740040F8E1
:105280002510681CC5B2002DF6D0002034342061F2
:10529000606084F84400E064A06420814FF0004026
:1052A00060610020A061E061206260622070607037
:1052B000A0702020E07000202065606503A0A0653C
:1052C000343C70BD3F5461736B000000200000004F
:1052D00010B50446204600F0F5FA94F8360000F0C8
:1052E000040010B92046FFF7FFFB10BD70B504465F
:1052F0000D46002600BF00BFFAF778FF064600BF44
:1053000000BF0020288094F8360008285ED2DFE82D
:1053100000F0040506071227394B00BF00BF00BF8D
:1053200000BF00BF3046FAF765FF00BF00BF47F27D
:105330005310288055E014F8780F401E207014F8A0
:10534000780928B9002084F836002046FFF7C0FF0E
:1053500000BF00BF3046FAF74DFF00BF00BF40E07E
:1053600014F8780F401E207014F8780910B9012045
:1053700084F8360000BF00BF3046FAF73BFF00BF9D
:1053800000BF2EE014F8780F401E207014F8780942
:1053900010B9022084F8360000BF00BF3046FAF78B
:1053A00029FF00BF00BF1CE014F8780F401E2070DA
:1053B00014F8780910B9032084F8360000BF00BF44
:1053C0003046FAF717FF00BF00BF0AE000BF00BF7A
:1053D0003046FAF70FFF00BF00BF46F62D60288069
:1053E00070BD00BFFDF7E0FA00BFF9E708B504485B
:1053F0000068FEF79DF869460020FDF7CFFF08BD65
:10540000BC0000202DE9F8430446884617461D4697
:105410004FF0000900BF00BFFAF7E8FE814600BF69
:1054200000BF0CB96748046827640020288094F8FE
:105430003600082876D2DFE800F004055051060750
:10544000525300BF00BF00BF0420012804D002282F
:1054500013D0042833D122E0606CFF280CD100BFA8
:1054600000BF4846FAF7C6FE00BF00BF46F6C5506B
:1054700028800020BDE8F88322E04FF6FF71606CC1
:1054800088420BD100BF00BF4846FAF7B3FE00BF09
:1054900000BF46F6C55028800020EBE710E0606CA6
:1054A000401C58B900BF00BF4846FAF7A3FE00BF32
:1054B00000BF46F6C55028800020DBE700E000BFB3
:1054C00000BF606C401C6064666C00BF00BF484653
:1054D000FAF790FE00BF00BF71E000BF00BF00BF41
:1054E00094F83400072815D100231A46214618469F
:1054F0000097FFF77AF9666C00BF00BF4846FAF7DD
:1055000079FE00BF00BF08F4004000284AD1FDF733
:105510004BFA47E00420012805D0022813D00428C4
:1055200033D122E03FE0606CFF280BD100BF00BF09
:105530004846FAF75FFE00BF00BF46F6C550288018
:10554000002097E722E04FF6FF71606C88420BD194
:1055500000BF00BF4846FAF74DFE00BF00BF46F649
:10556000C5502880002085E710E0606C401C58B9C9
:1055700000BF00BF4846FAF73DFE00BF00BF46F639
:10558000C5502880002075E700E000BF00BF606CB8
:10559000401C6064666C00BF00BF4846FAF72AFEF4
:1055A00000BF00BF0BE000BF00BF4846FAF722FE75
:1055B00000BF00BF46F62D602880002600BF00BF58
:1055C000304657E7BC00002070B504460D46002663
:1055D00000BF00BFFAF70AFE064600BF00BF0CB9C5
:1055E0003D4804683C48006884420ED13B4800783E
:1055F00000280ADD00BF00BF3046FAF7FBFD00BF00
:1056000000BF46F66350288070BD0020288094F8C3
:105610003600082850D2DFE800F0041523313F405F
:105620004142042084F83600012084F878002046A6
:10563000FFF7D0FA00BF00BF3046FAF7DBFD00BF2E
:1056400000BF44E0052084F83600012084F878008B
:1056500000BF00BF3046FAF7CDFD00BF00BF36E007
:10566000062084F83600012084F8780000BF00BFCF
:105670003046FAF7BFFD00BF00BF28E0072084F8DE
:105680003600012084F8780000BF00BF3046FAF7EA
:10569000B1FD00BF00BF1AE000BF00BF00BF94F81B
:1056A0007800401C84F8780000BF00BF3046FAF74D
:1056B000A1FD00BF00BF0AE000BF00BF3046FAF7FF
:1056C00099FD00BF00BF46F62D6028809CE700BF13
:1056D000FDF76AF900BF97E7BC00002066000020D4
:1056E000002108E0064A02EBC1000022026082802D
:1056F000C2804A1C91B2034A12889142F2DB704781
:10570000B4130020583106082DE9F04F0C46164618
:105710001D46042E1ED1DFF8A091D9F80090A4EB0D
:105720000909A9F1010313F5803F0DD94FF00009D4
:10573000C0F84C90C0F85090C0F81C9047F27E29F9
:10574000A5F80090BDE8F08FC46403F10109C0F82A
:1057500050903FE084B3082E25D1D0F8489009EB53
:105760000407DFF85491D9F80090A7EB0909A9F1D3
:105770000103A34201D2C76406E0DFF83C91D9F8E7
:105780000090A144C0F84C90DFF82CA1D0F84C90C8
:10579000DAF800A0A9EB0A09C0F85090D0F84C90B4
:1057A000C0F8489016E0DFF81091D9F80090A144B5
:1057B000C0F84C9004650DE0FFE74FF00009C0F819
:1057C0004C90C0F85090C0F81C9047F27E29A5F884
:1057D0000090B7E7DFF8E4A0BAF800A0D0F84C904A
:1057E000B9FBFAFB0AFB1B991FFA89F8DFF8D09086
:1057F00009EBC802B2F80490B9F1000F0BD14FF0D9
:105800000009C0F81490C0F8189010604FF001091A
:10581000A2F804903EE0116834E0DFF89CA0D1F8D3
:105820004C90DAF800A0A9EB0A09C1F85090D0F822
:105830005090D1F850A0D1450ED9D1F81490B9F1BB
:10584000000F01D049691DE04FF00009C0F8149025
:1058500081614861002115E0D1F81890B9F1000F7D
:1058600007D14FF00009C0F81890416188611060BD
:1058700007E0D1F818C0C0F818C04161CCF8140096
:10588000886100210029C8D1B2F8049009F101090A
:10589000A2F80490B2F80690B2F804A0D14503DA59
:1058A000B2F80490A2F80690C2614FF00009A5F882
:1058B000009000BF46E700009C0000205831060819
:1058C000B413002010B5C269BAB10024046514688D
:1058D000844205D14169116039B100248C6104E032
:1058E000816943694B6103B199610024446184611A
:1058F000C461C4649488641E948010BD002006E0D6
:10590000054A02EBC0010022CA80421C90B2034A41
:1059100012889042F4DB7047B41300205831060817
:105920002DE9F05F4FF0000B00BF00BFFAF75EFCFF
:10593000834600BF00BF4FF0000A54480068401C77
:10594000524908600846006851490988B0FBF1F2E5
:1059500001FB12001FFA80F94E4800EBC9073C68B2
:1059600000267EE0002C7BD0D4F8148094F836001A
:10597000082871D2DFE800F00408051B063B074E3B
:1059800000BF00BF00BF68E04049E06C0968401AF2
:1059900020653E49E06C0968884206D1002084F801
:1059A00036002046FFF794FC00E0012655E0374919
:1059B000E06C0968401A20653449E06C0968884247
:1059C00013D10020E065A4F8600020642046FEF7B3
:1059D00070FE2046FFF77CFC00203434A0700320CA
:1059E0006070002004F8340900E0012635E0274902
:1059F000E06C0968401A20652449E06C0968884217
:105A000006D1042084F836002046FFF75BFF00E053
:105A1000012622E01D49E06C0968401A20651B49F7
:105A2000E06C0968884215D10020E065A4F86000A8
:105A300020642046FEF73DFE2046FFF743FF04208A
:105A40003434A07003206070002004F8340902E0B0
:105A500006E001E0012600E000BF00BF444600E090
:105A60000126002E3FF47EAFCAF100050A48006807
:105A7000A84201D20848056000BF00BF5846FAF7A7
:105A8000B9FB00BF00BFBDE8F09F00009C000020F4
:105A900058310608B4130020A00000201CB500BF38
:105AA0000EE001AB6A4600210846FDF743FDBDF854
:105AB000040028B903480078012801D1FFF730FF1E
:105AC000EFE700005100002010B58AB00446002026
:105AD0001D4908601D490860FFF702FE1C48006868
