:020000040800F2
:1000000068040020C50100086F13000835090008C6
:100010006D130008AF020008492500080000000029
:10002000000000000000000000000000B1220008F5
:100030003906000800000000ED19000889230008B7
:10004000DF010008DF010008DF010008DF01000810
:10005000DF010008DF010008DF010008DF01000800
:10006000DF010008DF010008DF010008DF010008F0
:10007000DF010008DF010008DF010008DF010008E0
:10008000DF010008DF010008DF010008DF010008D0
:10009000DF010008DF010008DF010008DF010008C0
:1000A000DF010008DF010008DF010008DF010008B0
:1000B000DF010008DF010008DF010008DF010008A0
:1000C000DF010008DF010008DF010008DF01000890
:1000D000DF010008DF010008DF010008DF01000880
:1000E000DF010008DF010008DF010008DF01000870
:1000F000DF010008DF010008DF010008DF01000860
:10010000DF010008DF010008DF010008DF0100084F
:10011000DF010008DF010008DF010008DF0100083F
:10012000DF01000895040008DF010008DF01000876
:10013000DF010008DF010008DF010008DF0100081F
:10014000DF010008DF010008DF010008DF0100080F
:10015000DF010008DF010008DF010008DF010008FF
:10016000DF010008DF010008DF010008DF010008EF
:10017000DF010008DF01000815030008DF010008A7
:10018000DF010008DF010008DF010008DF010008CF
:10019000DF010008DF010008DF010008DF010008BF
:1001A000DF010008DF010008DF010008DFF810D0E0
:1001B00000F04CF800480047092A0008AFF300801F
:1001C000680400200648804706480047FEE7FEE72F
:1001D000FEE7FEE7FEE7FEE7FEE7FEE7FEE7FEE7F7
:1001E000ED230008AD0100082DE9F05F0546002071
:1001F00092469B4688460646814640241BE0284698
:1002000041464746224600F042F853465A46C01A35
:10021000914110D311461846224600F029F82D1AB4
:1002200067EB01084F4622460120002100F020F82C
:1002300017EB00094E41201EA4F10104DFDC484603
:1002400031462A464346BDE8F09F0000064C074D64
:1002500006E0E06840F0010394E807009847103496
:10026000AC42F6D3FFF7A6FFAC440008CC4400082C
:10027000202A04DB203A00FA02F100207047914066
:10028000C2F1200320FA03F3194390407047202A5B
:1002900004DB203A21FA02F00021704721FA02F330
:1002A000D040C2F120029140084319467047FEE752
:1002B0000649002804D0086840F001000860704733
:1002C000086820F001000860704700000000055039
:1002D00001494861704700000000055006490028A8
:1002E00004D0086840F4804008607047086820F433
:1002F0008040086070470000000005500246002062
:10030000034909691140002900D00120704700000D
:100310000000055010B50120FFF7F0FF01280BD1B8
:1003200006490020088006480178491C0170BDE894
:1003300010400120FFF7CCBF10BD00002A000020B4
:1003400024000020064A002903D0D1680143D1606F
:100350007047D168C04380B20140D160704700004F
:100360000000055030B50D490A6844F201039A4374
:100370000A600A6840F6F2739A4303884488C58885
:10038000234384882C43234304892343448980895D
:100390002343034313430B6030BD000000000550AE
:1003A00010B50121CC05204601F030FB2046BDE808
:1003B0001040002101F02ABB01460020024A526889
:1003C0000A4200D00120704700B0024030B500243E
:1003D0002A4B19682A4A11401960196802681143AA
:1003E0001960596B21F007015963596B4268114339
:1003F00059634168002928D001292DD0022930D025
:10040000032933D0C1680A01016909024469240340
:100410008568214315430D43996B0D439D638169A5
:10042000D963196C6FF30D011964196CC26911431A
:100430001964818C09045A6C02F040425A645A6C67
:10044000006A02430A435A6430BDC1680A02018A45
:100450000904047D2406DBE7C1680A02018A090455
:10046000D6E7C1684A010169C902D1E7C1684A01FA
:10047000016989024469E403CAE7000000B0024050
:10048000FCE0FCFF0248016841F001010160704797
:1004900000B0024070B5154C154D2146284600F0BD
:1004A0005DF8012821D1134A1088401C80B21080C9
:1004B00011490988884201D1002010800F48128814
:1004C000008841080E480088801A0E4A401E128893
:1004D00050434FF0504202EB400000F087FF2146AE
:1004E0002846BDE8704000F00FB870BD00880010CD
:1004F000286402402A0000204C0000204A0000200E
:100500004800002046000020074A904201D20748D8
:1005100001E005481038064A8B0001EA020101D5C6
:10052000C160704781607047106402400060024003
:100530007D0F7D0F002904D0016841F001010160A9
:100540007047016821F001010160704701460020F9
:100550000968C90700D001207047000030B50024A9
:100560000F4A904201D20F4A01E00D4A103A0E4B59
:10057000194205D01E2303EAD12503682B4002E06F
:10058000406900F08003880001D5506800E01068E1
:10059000064A1040084201D003B10124204630BD74
:1005A00010640240006002403C0F3C0F7D0F7D0F45
:1005B0000B0609D522B1436943F08003436103E090
:1005C000436923F080034361802905D001F01E01B7
:1005D0001AB102680A430260704702688A430260E7
:1005E0007047000030B50368124A1340CC680A68AF
:1005F0002243D1E905452C432243CC6922430C6AAE
:1006000022434C6A22438C6A22434C6B22438C6BFC
:1006100022431A430260426922F00703D1E90B2406
:1006200022431A4342610A6942604A6882608968CB
:10063000C16030BD3F801CF07047000070B586B0CF
:100640000121084601F0D4F90121102001F024FA1B
:100650001E4E07220A21304600F032F907220921F6
:10066000304600F02DF900248DF8164001208DF859
:10067000170002258DF81450410204918DF8155091
:1006800004A9304600F0DEF88DF81450680204909A
:1006900004A9304600F0D6F84FF4E1300090ADF8F0
:1006A0000440ADF80640ADF80840ADF80C400C2011
:1006B000ADF80A00064C6946204601F0E3FE012130
:1006C000204601F0CBFE06B070BD000000000240E5
:1006D0000010014000224FF0204310280AD0B0F54E
:1006E000807F09D0B0F5805F09D0D3F858018143ED
:1006F00009D107E0586EFAE7D3F88400F7E7D3F89A
:10070000A400F4E70122104670470000D0E900126F
:1007100011438268C068521E520142EA40200143E0
:100720000148016070470000500100A070B50468E6
:10073000A100A1F1C041D1F84011CE0BF603D0E9E0
:1007400001121143D0E903231A4311434269C369DB
:1007500011438269056A11431943426A29431143CF
:1007600031434FF02046002C3CD0D6F840416FF387
:100770000E042B4322431343C6F840310268920013
:10078000A2F1C042C2F84011016871B38900A1F121
:10079000C041D1F8481101F07043816A0A684C6881
:1007A000521E641E42EA04148A68521E44EA02245D
:1007B0000A8A521E44EA02421A43D6F8483103F02C
:1007C0007043CC68898A641E2403491E44EA01519F
:1007D0001943C6F8481100688000A0F1C040C0F875
:1007E000482170BDC6F84011CEE7FFE7D6F84811A2
:1007F00001F07041806A02684368521E5B1E42EA43
:1008000003138268521E43EA0223C268521E43EA5F
:100810000233028A521E43EA0243828A007E521E3B
:1008200043EA0252401E42EA00600843C6F848010B
:1008300070BD000002490A6842EA40000860704743
:10084000540100A02DE9F041002201274FF0030CD4
:1008500007FA02F50B682B40AB422CD10668530017
:100860000CFA03F4A64306600E79D0F800809E408F
:1008700046EA080606600E79012E01D0022E12D13A
:100880008668A64386604E79D0F808809E4046EA86
:10089000080686604668AE43466045688E79964095
:1008A000B6B235434560C568A543C560CC799C4068
:1008B000C3681C43C460521C102AC9D3BDE8F08130
:1008C00010B54B07DB0E9A40C90800EB8100016AA6
:1008D0000F249C40A1430162016A1143016210BDD3
:1008E000418370470183704770B505460C46104E32
:1008F0003078002803D101F0EDFB01203070220A8E
:10090000E1B2A13AC2EB021000EB421001EB400150
:10091000A13901EBC1008101C81701EB5070C11072
:10092000482201F5AA01284601F0AEFB002070BD67
:1009300044000020FEE7002904D0018841F48061D2
:1009400001807047018821F480610180704703466F
:1009500000209A8A1B8B1B041A4322F07F4291438A
:1009600000D101207047002904D0018841F0010125
:1009700001807047018821F001010180704700006B
:1009800010B5154988420AD101214C05204601F0D5
:1009900075F82046BDE81040002101F06FB80F49FE
:1009A00088420AD101218C05204601F067F82046D3
:1009B000BDE81040002101F061B8094988420AD120
:1009C0000121CC05204601F059F82046BDE8104031
:1009D000002101F053B810BD005400400058004001
:1009E000005C0040002904D0018841F4807101803E
:1009F0007047018821F4807101807047002904D07C
:100A0000018841F4007101807047018821F4007170
:100A1000018070477FB504460D46A08820F03F0650
:100A2000684601F047F802982749B0FBF1F189B216
:100A30000E43A680228822F001022280234B2A68DE
:100A40009A4209D85200B0FBF2F080B2042800D2DA
:100A50000420491C218423E0EB88A3F53F46FF3E98
:100A60000BD002EBC20303EB0212B0FBF2F080B238
:100A700040F48040020506D007E002EB4202B0FBE2
:100A8000F2F080B2F6E740F0010040F400404FF48D
:100A9000967251434FF47A72B1FBF2F1491C2184F2
:100AA000A083208840F00100208020884FF6F53197
:100AB0000840A9886A89114301432180A8892989AE
:100AC000084320817FBD000040420F00A086010046
:100AD000008AC0B27047002A02D041F0010101E053
:100AE00001F0FE0101827047018270472DE9F0415B
:100AF0008AB08046174F3988CC0A01F01F05C1F330
:100B00004516FFF74DFC4FF4403000900220019055
:100B10000396029504944FEA08400012000E0590D7
:100B200078680690002007904FF4F07008904FF41A
:100B3000487009906846FFF749FCFFF7A3FC0220C4
:100B4000FFF73AFC0028FAD0388800F01DFB0AB005
:100B5000BDE8F0812C000020F0B5074600240B4DC5
:100B60004FF4487608E020222146384600F04EF83F
:100B7000E8688088204484B2B44205D2E86881885D
:100B8000081980B28842EED2F0BD00002C0000208F
:100B90002DE9F04393B04FF4C86300FB03F50C4616
:100BA000114601A8FFF7A0FE0023174F0DF1040C1A
:100BB000786803EB43011CF80120120261444E786F
:100BC000164336028A78324300213E88B7F8028005
:100BD0005FEA022904D500EB440929F8056003E027
:100BE00000EB440929F80580641C5200491CC9B275
:100BF0001829EDD304F542745B1CDBB2182BD8D353
:100C000013B0BDE8F08300002C00002010B4203A9F
:100C1000D3B2054AD2681468D2885A4304EB420220
:100C200010BC00F033B800002C0000202DE9F0418A
:100C300080460D460024144E4FF4487717E07E2A74
:100C400009D821464046FFF7E1FFF068808820443C
:100C500084B26D1C0BE02988080200EB112082B2DF
:100C600021464046FFF794FF1834A4B2AD1CBC42A5
:100C700008D22A78002A05D0F0688188081980B245
:100C80008842DCD2BDE8F0812C0000202DE9F04341
:100C900000254FF4C8635843DFF87890D9F804C0B2
:100CA000D9F80C7030E0002326E00C26B4FBF6F6F1
:100CB000F6004FF0800808FA06F832F8156048FA96
:100CC00003F818EA060F01D10C2C08D94FF00108DF
:100CD00008FA03F816EA080F07D10C2C05D90CEB1B
:100CE0004106B9F80240345204E00CEB4106B9F871
:100CF00000403452491C5B1CBC889C42D5D8BB8840
:100D0000C3F5487319446D1CFB88AB42CBD8BDE8D2
:100D1000F08300002C0000202DE9FC5F012140F24F
:100D2000FF1000F065FE4FF00408CDF800800220AF
:100D30008DF805008DF8040000208DF806008DF870
:100D400007006946AA48FFF77DFD0E220221A84848
:100D5000FFF7B6FD4FF00809CDF800906946A448AA
:100D6000FFF770FD0E220321A148FFF7A9FD4FF404
:100D7000807ACDF800A069469D48FFF763FD0E22FA
:100D800008219B48FFF79CFD01240094694699487F
:100D9000FFF758FD092200219648FFF791FD4FF417
:100DA000006BCDF800B069469348FFF74BFD0E226B
:100DB0000B219148FFF784FD2003009069468E487F
:100DC000FFF740FD0E220C218B48FFF779FD022032
:100DD000009069468748FFF735FD092201218548C3
:100DE000FFF76EFD4025009569468448FFF72AFD10
:100DF0000E2206218148FFF763FD202000906946FE
:100E00007F48FFF71FFD0E2205217D48FFF758FDA3
:100E1000009569467A48FFF715FD0E2206217848AD
:100E2000FFF74EFD6003009069467148FFF70AFD29
:100E30000E220D216E48FFF743FDA602009669467B
:100E40006E48FFF7FFFC09220A216C48FFF738FDC6
:100E5000E003009069466648FFF7F4FC0E220F217C
:100E60006348FFF72DFD009469466648FFF7EAFCEA
:100E70000E2200216348FFF723FD80270097694673
:100E80006148FFF7DFFC0E2207215F48FFF718FDDE
:100E9000CDF8008069465B48FFF7D4FC0E220221A2
:100EA0005848FFF70DFD4FF01008CDF80080694657
:100EB0005348FFF7C7FC0E2204215148FFF700FDFD
:100EC0002003009069464D48FFF7BCFC0E220C2120
:100ED0004A48FFF7F5FC00954C4D69462846FFF758
:100EE000B1FC0E2206212846FFF7EAFCCDF800B03F
:100EF00069464248FFF7A6FC0E220B213F48FFF748
:100F0000DFFCCDF8008069463E48FFF79BFC0E22CF
:100F100004213C48FFF7D4FCCDF8009069463648E0
:100F2000FFF790FC0E2203213348FFF7C9FCCDF8F0
:100F300000A069462F48FFF785FC0E2208212D48A6
:100F4000FFF7BEFC4FF40079CDF8009069462948C0
:100F5000FFF778FC0E2209212648FFF7B1FC009725
:100F600069462648FFF76EFC0E2207212348FFF74B
:100F7000A7FC009669462348FFF764FC0E220A216D
:100F80002048FFF79DFCCDF8009069461D48FFF70B
:100F900059FC0E2209211B48FFF792FC00961C4EBB
:100FA00069463046FFF74EFC0E220A213046FFF715
:100FB00087FCCDF8008002208DF805008DF80440F4
:100FC00000208DF806008DF8074069462846FFF797
:100FD00039FC009769462846FFF734FC1021284663
:100FE000FFF780FC80212846FFF77CFCBDE8FC9FD2
:100FF000001C0240000402400000024000180240B1
:10100000001002400020024000080240000C024094
:10101000001402400148C068704700002C00002006
:1010200010B590B00121880600F036FD0121C805F9
:1010300000F0DEFCFFF770FE00F086FF0024019454
:101040000294039404940D940E940F9404220721A7
:101050004FF4C07000F0ACFD4FF4803000F098FD0C
:10106000012000F09FFD3D2000F076FD0028FAD021
:101070000594022006902E2007901920089040F237
:101080004E30099040F2F9100A9040F276300B9001
:1010900040F206200C9001A800F0B4F810B010BD8A
:1010A00030B591B02F20019040F24E3002901820C0
:1010B000039040F2F710049002200590FF20069064
:1010C00000200790089009900A904FF480600B90E0
:1010D00005200C9040F243600E90C01E0F904FF41C
:1010E000F07010904FF050400D90154C01A9204623
:1010F00000F0EAF80321059112490D914FF4C06107
:101100000B9107210C910E4D01A98035284600F066
:10111000DBF8012000F024F90121204600F0C8F896
:101120000121284600F0C4F8012000F019F9064812
:1011300000F012F8012000F055F811B030BD0000A9
:101140008468014000B80BD03C000020014A1080A8
:10115000518070472C0000200149C8607047000092
:101160002C0000200649002804D0064848600120D1
:10117000886070474FF0504048600020886070479A
:101180002C00002000B80BD00149088070470000F7
:101190002C00002010B509498968002908D00146B3
:1011A000074800F083F8BDE81040012000F0D8B8EF
:1011B00001460348803800F079F8F4E72C0000205D
:1011C000046901400649002804D0086840F0010085
:1011D00008607047086820F0010008607047000050
:1011E000186801400649002804D0086840F480309F
:1011F00008607047086820F480300860704700007D
:101200001868014030B5264A136826490B40136020
:10121000038A1B04146845692C431C431460121D87
:1012200013680B401360038B1B041468C5692C43BF
:101230001C431460121D13680B401360038C1B04C5
:101240001468456A2C431C431460121D13680B403C
:101250001360018D09041368C46A23430B431360B0
:10126000111D0A68104B1A400A60D0E900231A4386
:10127000D0E9023423431A430B681A430A60416BD6
:101280000A02018E0B04064924310C6804F07F44E5
:101290000C600C68806B134304431C430C6030BD2E
:1012A0000868014000F800F08F88FE0F4161704728
:1012B000002904D0016841F0010101607047016814
:1012C00021F001010160704770B58A8812044368FB
:1012D00003F4704343600B68134343608A8912042C
:1012E000836803F4704383608B68134383600269EF
:1012F00022F0070202610A690261CA6913020A8CBC
:10130000120491F8244024068569002585618E69C0
:1013100022431E4316438661426922F0FF02426166
:101320004A694261C26940F207739A43C261D1E9D6
:101330000A231A43C261826A85620A6B82620A8F3B
:101340001204C36A03F0E023C3624B6B1343C3620E
:10135000026B6FF30A020263C96B016370BD000088
:10136000014908607047000024680140FEE77047AB
:1013700030B50F23C27801250178002A1FD0154A05
:10138000126802F4E062C2F5E062C2F30722C2F121
:101390000404D3404278A24084781C4014432201C4
:1013A00001F1E02181F80024007800F01F018D4058
:1013B0004009800000F1E020C0F8005130BD01F08C
:1013C0001F0085404809800000F1E020C0F88051EE
:1013D00030BD00000CED00E00249084302490860FE
:1013E000704700000000FA050CED00E070B590B009
:1013F00005460C460121880500F0FAFA1A4E002134
:101400003046FFF797F83046FFF7A0F80028FAD1EA
:101410004FF0007001901548029003950020049051
:10142000059406904FF48061079189000891490066
:10143000099149110A9149020B9104210C91032150
:101440000D914FF080710E910F9001A93046FFF77A
:10145000C9F801213046FFF76DF83046FFF776F8FE
:101460000128FAD110B070BD286402402800055050
:101470002DE9F04F87B0012140F2C91000F0B8FA11
:101480002020059002278DF8187003208DF8190090
:1014900000248DF81A404FF001088DF81B8005A933
:1014A0006A48FFF7CFF90D2205216848FFF708FACF
:1014B00010200590664E05A93046FFF7C3F90D22AE
:1014C00004213046FFF7FCF94025059505A9304673
:1014D000FFF7B8F90D2206213046FFF7F1F94FF07A
:1014E0000809CDF814905B4E05A93046FFF7AAF91C
:1014F00008213046FFF7F4F9E8000590DFF858B10D
:1015000005A95846FFF79EF90D2209215846FFF715
:10151000D7F94FF4806ACDF814A005A95846FFF713
:1015200091F90D220A215846FFF7CAF96801059082
:1015300005A95846FFF786F90D220B215846FFF7FB
:10154000BFF9A801059005A95846FFF77BF90D22C0
:101550000C215846FFF7B4F92E02059605A9584606
:10156000FFF770F90D220E215846FFF7A9F9CDF8C3
:101570001490DFF8E89005A94846FFF763F90D22BB
:1015800003214846FFF79CF9059505A92F48FFF769
:1015900059F90D2206212D48FFF792F94FF08009E5
:1015A000CDF8149005A92948FFF74CF90D22072121
:1015B0002648FFF785F90121480500F051FA01217D
:1015C000022000F015FADFF898B0042206215846F0
:1015D000FFF776F9042207215846FFF771F90595C0
:1015E0008DF818708DF819408DF81A808DF81B4011
:1015F00005A95846FFF726F9042206215846FFF7A9
:101600005FF9CDF8149005A95846FFF71BF9154D61
:101610002846FFF7B5F9ADF808404BF6FF71ADF875
:101620000A10FE20ADF80C00ADF80EA0ADF8106069
:1016300049F64040019001A92846FFF7EBF9012146
:101640002846FFF790F907B0BDE8F08F0020024070
:101650000000024000180240001C0240000C024042
:10166000000402400054004030B585B00121084616
:1016700000F0DAF90024ADF80440ADF8064020206F
:10168000ADF80800ADF80A40ADF80C40ADF80E40DA
:10169000ADF8104001A8FEF765FE1A48818842881F
:1016A0000088521E42434FF05040490800EB420070
:1016B000FFF79CFE4FF4C060FFF78EFE39208DF8D7
:1016C000000001258DF801508DF802508DF803506F
:1016D0006846FFF74DFE012210210B48FEF768FF18
:1016E0004E208DF800008DF801408DF802508DF8E5
:1016F00003506846FFF73CFE01210846FEF722FE34
:1017000005B030BD460000202864024070B5820755
:1017100001D0012070BD8A0701D0022070BD84086D
:101720008D080021FF2000F001F90421E02000F0E5
:10173000FDF80021502000F0F9F8E1B25A2000F045
:10174000F5F8E9B25B2000F0F1F8C4F301200421C0
:1017500001EA951101435C2000F0E8F80021E02047
:1017600000F0E4F8002070BD10B504460121FF2010
:1017700000F0DCF81C2000F00FF820701D2000F0B5
:101780000BF860700A2000F007F8A0700B2000F042
:1017900003F8E07010BD00002DE9F047044642F266
:1017A00010763546DFF8008101214046FFF71AF92F
:1017B0003E4F02E06D1E681C0ED039464046FFF7D2
:1017C000C6F80028F6D0002261214046FFF783F9D1
:1017D0003546DFF8DC9005E0FF20BDE8F0876D1EA0
:1017E000681C0DD049464046FFF7B1F80028F6D0F6
:1017F000E1B24046FFF778F934462D4DAD1C04E0C8
:10180000FF20EAE7641E611C11D029464046FFF71D
:101810009EF80028F6D024481430018841F48061F5
:10182000018001214046FFF7DDF8354604E0FF2046
:10183000D3E76D1E681C0FD039464046FFF787F886
:101840000028F6D0012261214046FFF744F93446D2
:101850002546164E761C04E0FF20BEE76D1E681C70
:101860000CD031464046FFF772F80028F6D0002130
:101870004046FFF760F80D4D3F3504E0FF20ACE730
:10188000641E601C0ED029464046FFF760F8002811
:10189000F6D001214046FFF7B1F84046BDE8F047D9
:1018A000FFF716B9FF2098E700540040010003003D
:1018B0008200070010B50121FF2000F037F88021D9
:1018C000BDE81040122000F031B8000070B5FFF7FD
:1018D000F1FF0024134D05EB4400417815F8140086
:1018E00000F024F8641CDC2CF5D3002405EB440044
:1018F000417815F8140000F019F8641CDC2CF5D3BD
:10190000002405EB4400417815F8140000F00EF8AF
:10191000641CDC2CF5D30448C1888088BDE8704085
:10192000FFF7F4BED83F0008460000202DE9F0473D
:1019300007460E4642F210752C46DFF8A4800121BE
:101940004046FFF74FF8DFF89C9002E0641E601CF1
:101950000ED049464046FEF7FAFF0028F6D0002296
:1019600060214046FFF7B7F82C46DFF87C9005E091
:10197000FF20BDE8F087641E601C0DD0494640463C
:10198000FEF7E5FF0028F6D0F9B24046FFF7ACF8C5
:101990002C46154FBF1C04E0FF20EAE7641E601CC4
:1019A0000AD039464046FEF7D2FF0028F6D031462D
:1019B0004046FFF799F804E0FF20DAE76D1E681C47
:1019C0000BD039464046FEF7C2FF0028F6D0012171
:1019D0004046FFF713F80020CBE7FF20C9E70000DF
:1019E000005400400100030082000700704700001F
:1019F000054A002903D0116801431160704711683E
:101A0000814311607047000030380240054A0029C8
:101A100003D0116801431160704711688143116060
:101A20007047000010380240054A002903D01168B1
:101A300001431160704711688143116070470000D5
:101A400034380240054A002903D01168014311606F
:101A500070471168814311607047000038380240B8
:101A6000054A002903D011680143116070471168CD
:101A7000814311607047000040380240054A002948
:101A800003D01168014311607047116881431160F0
:101A90007047000020380240054A002903D0116831
:101AA0000143116070471168814311607047000065
:101AB0004438024070B5244B196801F00C01234CE6
:101AC00000291ED0224E04291DD008291DD00460F3
:101AD000196801F0F00109091E4A545C0168E140EF
:101AE00041601C6804F4E054A40A145D21FA04F473
:101AF00084601B6803F460435B0BD25CD140C1601F
:101B000070BD0460E4E70660E2E70F4A121F116847
:101B1000C1F38055116801F03F0135B1B6FBF1F119
:101B20001468C4F38814614305E0B4FBF1F1146850
:101B3000C4F3881461431268C2F30142521C52007C
:101B4000B1FBF2F10160C3E7083802400024F40061
:101B500040787D011400002002460020510901292F
:101B60000BD002290DD00949096802F01F02012398
:101B700093400B4200D00120704704497439096832
:101B8000F3E70249091F0968EFE7000074380240D3
:101B9000034A116821F4403101431160704700008D
:101BA0008C38024001490867704700000000474236
:101BB000800140EA0160024940EA02700860704713
:101BC000883802402DE9FC5F0121FC20FFF710FF5F
:101BD00002208DF804008DF8050000208DF8060025
:101BE0008DF80700012000906946D148FEF72AFED3
:101BF0000C220021CE48FEF763FE022000906946C9
:101C0000CB48FEF71FFE0C220121C948FEF758FE03
:101C1000042000906946C648FEF714FE0C220221FB
:101C2000C348FEF74DFE082000906946C048FEF705
:101C300009FE0C220321BE48FEF742FE1027009742
:101C40006946BB48FEF7FEFD0C220421B848FEF7AA
:101C500037FE4FF02008CDF800806946B448FEF703
:101C6000F1FD0C220521B248FEF72AFE4FF48059FF
:101C7000CDF800906946AE48FEF7E4FD0C2211460F
:101C8000AB48FEF71DFE4FF4005ACDF800A06946A0
:101C9000A748FEF7D7FD0C220D21A548FEF710FE40
:101CA000BD0200956946A248FEF7CCFD0C220E212C
:101CB0009F48FEF705FE6C00009469469C48FEF7BD
:101CC000C1FD0C220F219A48FEF7FAFD0120009079
:101CD00069469848FEF7B6FD0C2200219548FEF7AC
:101CE000EFFD0220009069469248FEF7ABFD0C2202
:101CF00001219048FEF7E4FD009569468E48FEF705
:101D0000A1FD0C220E218C48FEF7DAFD00946946F5
:101D10008948FEF797FD0C220F218748FEF7D0FD7A
:101D20000120009069468448FEF78CFD0C220021BA
:101D30008148FEF7C5FD0220009069467E48FEF707
:101D400081FD0C2201217C48FEF7BAFD4FF0800B8B
:101D5000CDF800B069467948FEF774FD0C220721E2
:101D60007648FEF7ADFDE611009669467348FEF72A
:101D700069FD0C2208217148FEF7A2FDA011009018
:101D800069466E48FEF75EFD0C2209216B48FEF79E
:101D900097FD6011009069466848FEF753FD0C22DC
:101DA0000A216648FEF78CFD2011009069466348C1
:101DB000FEF748FD0C220B216048FEF781FDCDF8AF
:101DC000009069465D48FEF73DFD0C2211465B48D8
:101DD000FEF776FDCDF800A069465848FEF732FDC3
:101DE0000C220D215548FEF76BFD009569465348BE
:101DF000FEF728FD0C220E215048FEF761FD0094ED
:101E000069464E48FEF71EFD0C220F214B48FEF797
:101E100057FD009669464848FEF714FD0C2208213C
:101E20004548FEF74DFDA011009069464248FEF777
:101E300009FD0C2209214048FEF742FD6011009087
:101E400069463D48FEF7FEFC0C220A213A48FEF79F
:101E500037FD402000903A4D69462846FEF7F2FCD7
:101E60000C2206212846FEF72BFD009769463148D3
:101E7000FEF7E8FC0C2204212E48FEF721FDCDF8E8
:101E8000008069462B48FEF7DDFC0C22052129481D
:101E9000FEF716FD012000902A4F69463846FEF7EE
:101EA000D1FC0C2200213846FEF70AFD20110090DB
:101EB00069461F48FEF7C6FC0C220B211C48FEF7A2
:101EC000FFFC009469461B48FEF7BCFC0C220F2166
:101ED0001848FEF7F5FC009669461648FEF7B2FC76
:101EE0000C2208211348FEF7EBFCCDF800B0694640
:101EF0002846FEF7A7FC0C2207212846FEF7E0FC47
:101F00000220009069460D48FEF79CFC0C2201213E
:101F10000A48FEF7D5FC0120009069460748FEF705
:101F200091FC0C2200210548FEF7CAFCBDE8FC9F8D
:101F30000014024000180240000C02400010024051
:101F4000001C02400008024000B593B0FFF73AFEC3
:101F500001210846FFF776FD022001900722029238
:101F600004210391049205900690079001200890A7
:101F7000002009900A9110210B9140210C914FF4FF
:101F8000C0710D910E904FF400610F911090880078
:101F9000119001A8129008A8FEF7C8FB00F002F803
:101FA00013B000BD2DE9FF410125009508260196DB
:101FB00002950024039420210120FEF78BFB0028CA
:101FC000F9D16846FEF7A2FB0A2000F041F8022092
:101FD000009001960295039420210120FEF77AFBE0
:101FE0000028F9D16846FEF791FB03200090019686
:101FF00004270297039420210120FEF76BFB0028A1
:10200000F9D16846FEF782FB20210120FEF762FB32
:102010000028F9D16846FEF779FB40F2312000979D
:1020200001960295039020210120FEF753FB002822
:10203000F9D16846FEF76AFB40F26A50FEF7FAFBF8
:1020400020210120FEF746FB0028F9D1BDE8FF81E1
:1020500001B581B0054901984843009002E000981D
:10206000401E009000980028F9D10CBDA086010008
:10207000002904D0018841F04001018070470188A7
:1020800021F04001018070472DE9F04104460F46E0
:1020900015460F4840260680032000F089F8C7F354
:1020A000074000F085F8C7F3072000F081F8F8B288
:1020B00000F07EF804E0FF2000F07AF804F8010B4D
:1020C0006D1EADB2F7D20248801E0680BDE8F081D9
:1020D0001A1402402DE9F04387B001212020FFF7B8
:1020E00087FC01210805FFF7D7FCDFF8BC9005222B
:1020F00007214846FEF7E4FB052208214846FEF783
:10210000DFFB052209214846FEF7DAFB802000901C
:102110004FF002088DF8048000248DF8064003205B
:102120008DF805008DF8074069464846FEF78AFBA2
:102130004FF48070009069464846FEF783FB4FF4E9
:102140000075009569464846FEF77CFB40270097DE
:1021500001268DF8046069464846FEF773FB124875
:1021600018300780ADF808404FF48270ADF80A00CF
:10217000ADF80C40ADF80E80ADF81060ADF812501F
:102180000820ADF81400ADF816400720ADF818008F
:10219000064C02A9204600F04EF801212046FFF728
:1021A00067FF07B0BDE8F083001402400050014013
:1021B0002DE9F0410746184C4FF480552560174E25
:1021C00009E02068411E216005D2002000F050F88F
:1021D000C0B2BDE8F0810221304600F021F80028AD
:1021E000EFD03946304600F024F8256008E0216839
:1021F0004A1E226004D2012000F03AF8C0B2E8E79B
:102200000121304600F00CF80028F0D0304600F0F4
:102210000EF8C0B2DDE70000500000200050014081
:102220000246002012890A4200D0012070478089AE
:1022300070478181704730B5028802F441530A88A3
:102240004C88CD8822438C882C4322430C8922431E
:102250004C8922438C892243CC8922431A43028031
:10226000828B22F400628283098A018230BD0000E1
:1022700010B5014602A000F069F9002010BD000071
:102280003C3C2D464C4153482D4552524F522D3E19
:102290003E2053504920B5C8B4FDB3ACCAB1216546
:1022A00072726F72436F6465203D2025640A0000DE
:1022B000704700001CB50021019100912E4A106862
:1022C00040F4803010604FF4A043106800F40030F8
:1022D00000900198401C0190009810B90198984214
:1022E000F3D11068800302D50120009000E0009136
:1022F000009801283FD120484030016841F08051CA
:1023000001601E49086840F4404008601A480830DF
:1023100003680360036843F400430360036843F405
:10232000A0530360041F164B2360136843F08073AF
:10233000136013689B01FCD50A6842F480320A607E
:102340004A68D203FCD50A6842F400320A604A683F
:102350009203FCD50B4A40F205711160016821F02F
:1023600003010160016841F0020101600168C1F3ED
:1023700081010229FAD11CBD0038024000700040E2
:10238000195A4007003C024010B500F05DF80020EB
:10239000054A52F8201011B1491E42F82010401C85
:1023A000C0B20328F5D310BD5C0000200D484FF4E7
:1023B0007A710068B0FBF1F0401EB0F1807F01D36C
:1023C00001200AE04FF0E0214861074AF020107038
:1023D00000208861072008610020002800D0FEE767
:1023E000704700000000002023ED00E010B5124807
:1023F000016841F4700101601048016841F0010179
:1024000001600E4A00210832116002680C4B1A402C
:102410000260031D0B4A1A60026822F480220260E7
:1024200006480C300160FFF745FF03494FF000609C
:102430008039086010BD000088ED00E000380240DF
:10244000FFFFF6FE1030002403480168002902D087
:102450000168491E0160704754000020002904D023
:10246000818941F4005181817047818921F40051B3
:10247000818170470246002012880A4200D0012064
:10248000704700007FB504460D46208A20F4405175
:10249000E88808432082A08941F20C618843A9881A
:1024A0002A8911436A8902431143A181A08A20F439
:1024B0004071A8890843A0826846FFF7FBFA1E48CE
:1024C000844202D01D48844201D1039800E0029862
:1024D000A189090408D500EBC00101EB00102968AF
:1024E0004900B0FBF1F007E000EBC00101EB001088
:1024F00029688900B0FBF1F06422B0FBF2F1090118
:102500000B096FF018056B4300EB8300A3891D04D2
:102510004FF0320307D503EBC000B0FBF2F000F040
:102520000700084306E003EB0010B0FBF2F000F0F8
:102530000F00084320817FBD0010014000140140BE
:10254000C1F3080181807047FEE700000FB4054B1E
:1025500010B503A9044A029800F018F810BC5DF801
:1025600014FB0000E52900085800002002E008C81C
:10257000121F08C1002AFAD170477047002001E0FD
:1025800001C1121F002AFBD1704700002DE9FF4F47
:102590008DB00F460546002606E025280BD0DDE964
:1025A0000F1290476D1C761C28780028F5D111B0C9
:1025B0003046BDE8F08F0024A246A1460122E94939
:1025C00000E0044315F8013F203B02FA03F0084203
:1025D000F7D128782A2810D06FF02F022878A0F1A0
:1025E0003001092914D80AEB8A0102EB410144F0B9
:1025F000020400EB010A6D1CF0E701CF5FEA000A5C
:1026000003D544F40054CAF1000A44F002046D1CDE
:1026100028782E2817D115F8010F44F004042A2831
:102620000ED06FF02F022878A0F1300109290AD8C6
:1026300009EB890102EB410100EB01096D1CF2E796
:1026400057F8049B6D1C28786C280FD006DC4C28AA
:1026500017D068280DD06A2814D104E0742810D04F
:102660007A280FD10DE044F400140AE044F48014F9
:1026700001E044F440146978814202D104F58014E9
:102680006D1C6D1C28786E281ED00CDC632830D0A1
:1026900004DC00288BD0582811D19FE0642867D033
:1026A00069280CD164E073282DD004DC6F2872D027
:1026B000702804D194E075286ED078286DD0DDE9BB
:1026C0000F129047761C4BE1C4F30250022806D04B
:1026D000032809D0042801CF09D0066040E101CFCA
:1026E000F117C0E900613BE101CF068038E10670D7
:1026F00036E117F8040B8DF8000000208DF801007A
:10270000EB46012003E057F804BB4FF0FF306107B0
:102710004FF0000102D40DE008F10101884649455F
:102720000FDA8045F8DB1BF808100029F4D108E027
:1027300008F1010188468142FADB1BF808100029E4
:10274000F6D1DDE90F23AAEB08008146214600F00F
:1027500031F9304400EB080604E0DDE90F121BF804
:10276000010B9047B8F10108F7D221464846F2E044
:102770000A21C4F302524FF0000B0891022A04D040
:1027800001CFC117032A09D00AE0FF1D27F0070770
:10279000F7E8020108E02CE01EE01FE000B2C117DC
:1027A000042A01D140B2C117021E71F1000206DAFB
:1027B0000023D0EB030063EB01012D2202E0220590
:1027C00004D52B228DF82420012203E0E20701D05A
:1027D0002022F7E7904653E00A210BE0102109E0A0
:1027E00010214FF0000B44F004044FF00809089149
:1027F00003E008214FF0000B0891C4F30252022AB3
:1028000004D001CF0021032A06D006E0FF1D27F0E7
:102810000707F7E8020103E080B2042A00D1C0B242
:102820004FF0000822072BD52A78702A07D0DDF850
:1028300020C08CF0100C5CEA0B0C05D00EE040229E
:102840008DF82420012208E050EA010306D030234D
:102850008DF824308DF8252002229046089B83F0C5
:10286000080353EA0B030BD150EA010201D16207BE
:1028700006D530228DF824204FF00108A9F1010976
:102880002A78582A04D038A20B9208AA0A920BE0A0
:102890003AA2F9E75B46089AFDF7A6FC0B9B9B5C06
:1028A0000A9A521E0A92137050EA0102F2D10A9853
:1028B000ADEB000000F1200B600702D524F480345A
:1028C00001E04FF00109D94502DDA9EB0B0000E062
:1028D000002000EB0B0141440890AAEB010AE00341
:1028E00006D4DDE90F232146504600F063F8064484
:1028F0004FF0000908E009A911F80900DDE90F12FD
:10290000904709F10109761CC145F4DBE0030CD5C1
:10291000DDE90F232146504600F04CF8064404E060
:10292000DDE90F1230209047761C0899481E089068
:102930000029F5DC08E00A980A990078491C0A91F8
:10294000DDE90F129047761CBBF10001ABF1010BE2
:10295000F1DC21465046DDE90F2300F019F806446A
:102960006D1C21E609280100303132333435363709
:1029700038396162636465660000000030313233CB
:10298000343536373839414243444546000000006B
:102990002DE9F041044600251E461746880404D45C
:1029A00005E039462020B0476D1C641EF9D5284645
:1029B000BDE8F0812DE9F041044600251E46904611
:1029C000C80301D5302700E02027880404D505E09E
:1029D00041463846B0476D1C641EF9D52846BDE80F
:1029E000F081000070B50446064DE1B22846FFF7BD
:1029F000A7FD80212846FFF73DFD0028F9D020469D
:102A000070BD000000100140FDF718FEFFF7CEFC7E
:102A1000FEF706FBFEF744FB0120FEF7D3FB002088
:102A2000FEF7A0FBFF20FEF7B5FB4FF40040FEF7DA
:102A30005DF80120FEF796FBFF20FEF7ABFB47F6A3
:102A4000FF742046FEF752F821464FF47C4420469E
:102A5000FEF77CFBFEF7DEFAC0884FF6FF7500EB51
:102A6000C00005EA4000FEF777F8FEF7D3FAC08809
:102A700019A100EBC00005EA4000FEF7D7F850218D
:102A80001AA0FFF763FDFEF7F3FC2648FEF76CFE85
:102A90002448817826290DD02046FEF775FBFEF7E5
:102AA000B9FA21A10020FEF7C1F863212948FFF7F8
:102AB0004DFDFEE7437802785C2127A0FFF746FD35
:102AC000FEF7D2FDFEF702FF0120FDF707FC012013
:102AD000FDF7EEFBFEE7000020C4A3CABD3A55583F
:102AE0004741203830307834383000003C3C2D43AA
:102AF000414D4552412D44454255472D3E3E205BB8
:102B000025645D53544D3332463432392044434DAD
:102B10004920C7FDB6AF4F5632363430C0FDB3CC76
:102B20000A00000025000020202020202020202056
:102B300020C3BBD3D0BCECB2E2B5BD4F5632363465
:102B400030A3ACC7EBD6D8D0C2BCECB2E9C1ACBDA7
:102B5000D3A1A300684400083C3C2D43414D45529D
:102B6000412D44454255472D3E3E205B25645D2561
:102B7000782025780A000000000000000000000016
:102B80000000000000000000000000000000000045
:102B90000000000000000000000000000000000035
:102BA00000000000000000000000800180018001A2
:102BB000800180018001800180018001800180010D
:102BC0008001800100000000800180010000000001
:102BD000000000000000000000000000CC00CC005D
:102BE000CC00CC00CC00CC000000000000000000B5
:102BF00000000000000000000000000000000000D5
:102C000000000000000000000000000000000000C4
:102C100000000000600C600C600C30063006FE1FE7
:102C2000FE1F300638071803FE1FFE1F1803180387
:102C30008C018C018C01000000008000E003F80F83
:102C40009C0E8C1C8C188C009800F801E007800EFC
:102C5000801C8C188C189C18B80CF00FE0038000B6
:102C600080000000000000000000000000000E18BE
:102C70001B0C110C11061106110311039B018E018F
:102C8000C038C06C60446044304430441844186C10
:102C90000C380000000000000000E001F0033807DD
:102CA000180618063003F001F000F8009C310E33CE
:102CB000061E061C061C063FFC73F02100000000E7
:102CC0000000000000000000000000000C000C00EC
:102CD0000C000C000C000C000000000000000000C4
:102CE00000000000000000000000000000000000E4
:102CF000000000000000000000000002000380014E
:102D0000C000C000600060003000300030003000C3
:102D1000300030003000300060006000C000C000B3
:102D20008001000300020000000020006000C000DD
:102D30008001800100030003000600060006000673
:102D40000006000600060006000300038001800163
:102D5000C000600020000000000000000000000033
:102D600000000000C000C000D806F807E0013003F2
:102D70003807000000000000000000000000000014
:102D80000000000000000000000000000000000043
:102D90000000000080018001800180018001FC3F73
:102DA000FC3F800180018001800180010000000063
:102DB0000000000000000000000000000000000013
:102DC0000000000000000000000000000000000003
:102DD00000000000000000000000800180010001F0
:102DE0000001800000000000000000000000000062
:102DF00000000000000000000000000000000000D3
:102E0000E007E007000000000000000000000000F4
:102E100000000000000000000000000000000000B2
:102E200000000000000000000000000000000000A2
:102E300000000000000000000000C000C000000012
:102E400000000000000000000000000C000C000664
:102E500000060006000300030003800380018001D8
:102E60008001C000C000C0006000600000000000E1
:102E700000000000000000000000E003F007380E32
:102E8000180C0C180C180C180C180C180C180C1822
:102E90000C180C18180C380EF007E00300000000A6
:102EA0000000000000000000000000018001C001DF
:102EB000F00198018801800180018001800180017A
:102EC00080018001800180018001800100000000FC
:102ED00000000000000000000000E003F80F180CE4
:102EE0000C180C1800180018000C000600038001D4
:102EF000C000600030001800FC1FFC1F0000000034
:102F000000000000000000000000E001F807180EBB
:102F10000C0C0C0C000C0006C003C007000C0018C1
:102F200000180C180C18180CF807E003000000003B
:102F300000000000000000000000000C000E000F68
:102F4000000F800DC00C600C600C300C180C0C0CC9
:102F5000FC3FFC3F000C000C000C000C00000000CB
:102F600000000000000000000000F80FF80F18003B
:102F700018000C00EC03FC071C0E001C00180018C5
:102F800000180C181C0C180EF807E00300000000D5
:102F900000000000000000000000C007F00F381C17
:102FA000181818000C00CC03EC0F3C0E1C1C0C185D
:102FB0000C180C18181C380EF007E0030000000075
:102FC00000000000000000000000FC1FFC1F000CBF
:102FD00000060006000380038001C001C000E0007D
:102FE0006000600070003000300030000000000021
:102FF00000000000000000000000E003F007380EB1
:10300000180C180C180C3806F007F007180C0C18E0
:103010000C180C180C18380CF80FE0030000000016
:1030200000000000000000000000E003F007380E80
:103030001C0C0C180C180C181C1C381EF81BE01962
:103040000018000C000C1C0EF807F0010000000036
:103050000000000000000000000000000000000070
:10306000000000008001800100000000000000005E
:10307000000000000000000080018001000000004E
:103080000000000000000000000000000000000040
:10309000000000008001800100000000000000002E
:1030A000000000000000000080018001000100011C
:1030B0008000000000000000000000000000000090
:1030C00000000000000000000010001C800FE00362
:1030D000F8001800F800E003800F001C001000004A
:1030E00000000000000000000000000000000000E0
:1030F0000000000000000000F81F000000000000B9
:10310000F81F0000000000000000000000000000A8
:1031100000000000000000000000000000000000AF
:10312000000000000000000008003800F001C007A7
:10313000001F0018001FC007F00138000800000041
:1031400000000000000000000000E003F80F180C71
:103150000C180C180018000C000600038001C000B9
:10316000C000C00000000000C000C000000000005F
:10317000000000000000000000000000E007181838
:103180000420C229224A114409440944094409225D
:103190001113E20C024004201818E00700000000A0
:1031A0000000000000000000000080038003C00653
:1031B000C006C006600C600C301830183018F83F9C
:1031C000F83F1C700C600C6006C006C000000000D8
:1031D00000000000000000000000FC03FC0F0C0CCD
:1031E0000C180C180C180C0CFC07FC0F0C180C30ED
:1031F0000C300C300C300C18FC1FFC0700000000D9
:1032000000000000000000000000C007F01F383878
:103210001C300C7006600600060006000600060062
:10322000060006600C701C30F01FE0070000000074
:1032300000000000000000000000FE03FE0F060E6C
:1032400006180618063006300630063006300630FE
:10325000063006180618060EFE0FFE0300000000DA
:1032600000000000000000000000FC3FFC3F0C00DC
:103270000C000C000C000C00FC1FFC1F0C000C00D0
:103280000C000C000C000C00FC3FFC3F0000000098
:1032900000000000000000000000F83FF83F1800A8
:1032A0001800180018001800F81FF81F1800180060
:1032B000180018001800180018001800000000007E
:1032C00000000000000000000000E00FF83F3C7824
:1032D0000E6006E007C00300030003FE03FE03C008
:1032E00007C006C00EC03CF0F83FE00F0000000031
:1032F000000000000000000000000C300C300C301A
:103300000C300C300C300C30FC3FFC3F0C300C30DF
:103310000C300C300C300C300C300C300000000045
:10332000000000000000000000008001800180011A
:103330008001800180018001800180018001800185
:103340008001800180018001800180010000000077
:10335000000000000000000000000006000600065B
:10336000000600060006000600060006000600062D
:103370000006180618063807F003E00100000000F8
:103380000000000000000000000006300618060CD7
:10339000060606038601C60066007600DE008E0182
:1033A00006030606060C061806300660000000003C
:1033B00000000000000000000000180018001800C5
:1033C000180018001800180018001800180018003D
:1033D0001800180018001800F81FF81F000000005F
:1033E000000000000000000000000EE01EF01EF0D3
:1033F0001EF036D836D836D836D866CC66CC66CCF1
:10340000C6C6C6C6C6C6C6C686C386C300000000FA
:10341000000000000000000000000C301C303C30B8
:103420003C306C306C30CC30CC308C310C330C33C5
:103430000C360C360C3C0C3C0C380C3000000000F8
:1034400000000000000000000000E007F81F1C382A
:103450000E70066003C003C003C003C003C003C0F6
:1034600003C006600E701C38F81FE0070000000063
:1034700000000000000000000000FC0FFC1F0C38E2
:103480000C300C300C300C300C18FC1FFC070C00FE
:103490000C000C000C000C000C000C0000000000E4
:1034A00000000000000000000000E007F81F1C38CA
:1034B0000E70066003E003C003C003C003C003C076
:1034C00007E006630E3F1C3CF83FE0F700C0000039
:1034D00000000000000000000000FE0FFE1F063884
:1034E0000630063006300638FE1FFE0706030606C5
:1034F000060C0618061806300630066000000000AC
:1035000000000000000000000000E003F80F1C0CA9
:103510000C180C180C001C00F803E00F001E0038FB
:10352000063006300E301C1CF80FE00700000000CB
:1035300000000000000000000000FE7FFE7F800110
:103540008001800180018001800180018001800173
:103550008001800180018001800180010000000065
:10356000000000000000000000000C300C300C30A7
:103570000C300C300C300C300C300C300C300C306B
:103580000C300C300C301818F81FE0070000000059
:10359000000000000000000000000360063006305C
:1035A00006300C180C180C18180C180C380E3006B5
:1035B0003006700760036003C001C0010000000016
:1035C000000000000000000000000360C361C36150
:1035D000C3616633663366336633663366336C1BAA
:1035E0006C1B6C1B2C1A3C1E380E380E00000000A1
:1035F000000000000000000000000FE00C70183018
:103600003018700C600EC00780038003C003E00612
:10361000700C301C18180C300E6007E00000000021
:103620000000000000000000000003C006600C3035
:103630001C383818300C6006E007C0038001800198
:103640008001800180018001800180010000000074
:1036500000000000000000000000FC7FFC7F006014
:1036600000300018000C000600038001C00060005C
:10367000300018000C000600FE7FFE7F00000000F6
:1036800000000000000000000000E003E003600014
:10369000600060006000600060006000600060002A
:1036A000600060006000600060006000600060001A
:1036B0006000E003E0030000000030003000600024
:1036C00060006000C000C000C000C0018001800137
:1036D0008001000300030003000600060000000054
:1036E00000000000000000000000E003E003000311
:1036F00000030003000300030003000300030003B2
:1037000000030003000300030003000300030003A1
:103710000003E003E003000000000000C001C0015E
:1037200060036003600330063006180C180C0000BC
:103730000000000000000000000000000000000089
:103740000000000000000000000000000000000079
:103750000000000000000000000000000000000069
:1037600000000000000000000000FFFFFFFF00005D
:10377000000000000000000000000C000C000C0025
:103780000C000C000C000000000000000000000015
:103790000000000000000000000000000000000029
:1037A0000000000000000000000000000000000019
:1037B00000000000F003F8071C0C0C0C000FF00FC9
:1037C000F80C0C0C0C0C1C0FF80FF018000000008B
:1037D00000000000000000000000180018001800A1
:1037E00018001800D803F80F380C181818181818F3
:1037F000181818181818380CF80FD8030000000013
:1038000000000000000000000000000000000000B8
:1038100000000000C003F007300E180C180018005C
:1038200018001800180C300EF007C003000000004C
:103830000000000000000000000000180018001840
:1038400000180018C01BF01F301C18181818181882
:10385000181818181818301CF01FC01B00000000A2
:103860000000000000000000000000000000000058
:1038700000000000C003F00F300C1818F81FF81FEC
:10388000180018003818301CF00FC00700000000A6
:1038900000000000000000000000800FC00FC0000A
:1038A000C000C000F007F007C000C000C000C000AA
:1038B000C000C000C000C000C000C0000000000088
:1038C00000000000000000000000000000000000F8
:1038D00000000000E00DF80F180E0C0C0C0C0C0C86
:1038E0000C0C0C0C0C0C180EF80FE00D000C0C0C52
:1038F0001C06F807F001000000001800180018006E
:1039000018001800D807F80F381C181818181818BD
:103910001818181818181818181818180000000087
:1039200000000000000000000000C000C000000017
:1039300000000000C000C000C000C000C000C00007
:10394000C000C000C000C000C000C00000000000F7
:1039500000000000000000000000C000C0000000E7
:1039600000000000C000C000C000C000C000C000D7
:10397000C000C000C000C000C000C000C000C00047
:10398000C000F8007800000000000C000C000C00E3
:103990000C000C000C0C0C060C038C01CC006C0011
:1039A000FC009C018C030C030C060C0C00000000B6
:1039B00000000000000000000000C000C000C000C7
:1039C000C000C000C000C000C000C000C000C000F7
:1039D000C000C000C000C000C000C0000000000067
:1039E00000000000000000000000000000000000D7
:1039F000000000007C3CFF7EC7E383C183C183C11C
:103A000083C183C183C183C183C183C1000000001E
:103A100000000000000000000000000000000000A6
:103A2000000000009807F80F381C1818181818180C
:103A30001818181818181818181818180000000066
:103A40000000000000000000000000000000000076
:103A500000000000C003F00F300C181818181818D8
:103A6000181818181818300CF00FC00300000000C8
:103A70000000000000000000000000000000000046
:103A800000000000D803F80F380C18181818181880
:103A9000181818181818380CF80FD8031800180040
:103AA00018001800180000000000000000000000CE
:103AB00000000000C01BF01F301C18181818181840
:103AC000181818181818301CF01FC01B0018001800
:103AD000001800180018000000000000000000009E
:103AE00000000000B007F00370003000300030002C
:103AF00030003000300030003000300000000000A6
:103B000000000000000000000000000000000000B5
:103B100000000000E003F003380E180C3800F0033A
:103B2000C007000C180C380EF007E003000000007E
:103B30000000000000000000000000008000C00045
:103B4000C000C000F007F007C000C000C000C00007
:103B5000C000C000C000C000C00780070000000017
:103B60000000000000000000000000000000000055
:103B70000000000018181818181818181818181825
:103B8000181818181818381CF01FE0190000000049
:103B90000000000000000000000000000000000025
:103BA000000000000C18180C180C180C3006300619
:103BB0003006600360036003C001C0010000000024
:103BC00000000000000000000000000000000000F5
:103BD00000000000C141C141C3616363636363636B
:103BE0003636363636361C1C1C1C1C1C00000000E9
:103BF00000000000000000000000000000000000C5
:103C0000000000001C38381C300C600660036003A4
:103C1000600360036006300C381C1C380000000094
:103C20000000000000000000000000000000000094
:103C3000000000001830301830187018600C600C4C
:103C4000E00CC006C0068003800380038001800171
:103C5000C001F00070000000000000000000000043
:103C600000000000FC1FFC1F000C00060003800188
:103C7000C000600030001800FC1FFC1F00000000A6
:103C80000000000000000000000000038001C000F0
:103C9000C000C000C000C000C00060006000300074
:103CA00060004000C000C000C000C000C000C000F4
:103CB00080010003000000000000800180018001FD
:103CC00080018001800180018001800180018001EC
:103CD00080018001800180018001800180018001DC
:103CE000800180018001000000006000C000C00170
:103CF0008001800180018001800100030003000633
:103D000000030001800180018001800180018001A9
:103D1000C000600000000000000000000000000083
:103D20000000000000000000F010F81F080F000065
:103D30000000000000000000000000000000000083
:103D40000000000000000000FF002CFF2EDFFF013C
:103D50003C321100090203CF040813E514482C0C6F
:103D600033783A333BFB3E00431116103902358855
:103D7000220A3740230034A0361A060207C00DB7C6
:103D80000E014C004A812199243A253226825C009A
:103D900063005D555E7D5F7D6055617062807C056E
:103DA000208028306C006D806E007002719673E187
:103DB0003D345A574FBB509C0F43FF00E57FF9C07D
:103DC0004124E01476FF33A0422043184C0087D0F2
:103DD000883FD703D910D382C808C9807C007D02F0
:103DE0007C037D487D487C087D207D107D0E900001
:103DF000910E911A9131915A91699175917E9188A4
:103E0000918F919691A391AF91C491D791E8912010
:103E10009200930693E39305930593009300930018
:103E200093009300930093009300930096009708EB
:103E300097199702970C97249730972897269702FF
:103E40009798978097009700C3EDA400A800BF0043
:103E5000BAF0BC64BB02B63DB857B738B94EB3E848
:103E6000B4E1B566B067B15EB204C700C651C51112
:103E7000C49CCF02A600A7E0A710A71EA721A700F9
:103E8000A728A7D0A710A716A721A700A728A7D0C3
:103E9000A710A717A721A700A728C0C8C196861DED
:103EA00050005190521853005400558857005A90B2
:103EB0005B185C05C3EF7F00DA00E51FE167E000F7
:103EC000DDFF0500FF01FF01120017111875190130
:103ED0001A9732364FBB6D803D3439023588220A3D
:103EE0003740230034A0361A060207C00DB70E0172
:103EF0004C00FF00E0048C0087D0E000FF00E014DD
:103F0000E177E51FD703DA10E000FF00E004C0C846
:103F1000C196861D50005190522C53005400558874
:103F200057005A905B2C5C05E000D304FF00C3EF00
:103F3000A600A7DDA778A77EA724A700A725A60629
:103F4000A720A758A773A734A700A725A60CA728C2
:103F5000A758A76DA734A700A725FF00E004E167D5
:103F6000E51FD701DA08DA09E00098009900FF019F
:103F70000428FF0112401711184319001A4B320987
:103F80004FCA50A85A236D00391235DA221A37C3A6
:103F9000230034C0361A068807C00D870E414C0036
:103FA000FF00E004C064C14B8635509251C8529660
:103FB00053005400550057005A285B1E5C00E00077
:103FC000FF0111003D382D005065FF00D3047C0037
:103FD0007D047C097D287D00FF002CFF2EDFFF0182
:103FE0003C321100090204A013E514482C0C33786C
:103FF0003A333BFB3E00431116104A81219924407D
:10400000253826825C006300463F0C3C617062806C
:104010007C05208028306C006D806E0070027194E9
:1040200073C13D345A571200110017111875190148
:104030001A973236030F37404FBB509C5A576D804A
:104040006D3839023588220A3740230034A0361AE9
:10405000060207C00DB70E014C00FF00E57FF9C056
:104060004124E01476FF33A0422043184C0087D04F
:10407000883FD703D910D382C808C9807D007C034C
:104080007D487C087D207D107D0E9000910E911A58
:104090009131915A91699175917E9188918F919604
:1040A00091A391AF91C491D791E89120920093068A
:1040B00093E393029302930093049300930393007A
:1040C0009300930093009300930093009600970849
:1040D00097199702970C972497309728972697025D
:1040E0009798978097009700C3EFFF00BADCBB0852
:1040F000B624B833B720B930B3B4B4CAB543B05C52
:10410000B14FB206C700C651C511C49CBF00BC6404
:10411000A600A71EA76BA747A733A700A723A72E14
:10412000A785A742A733A700A723A71BA774A74269
:10413000A733A700A723C0C8C1968C00863D509224
:104140005190522C5300540055885A505B3C5C00EF
:10415000D3047F00DA00E51FE167E000DD7F0500A2
:10416000FF00E004C0C8C196863D50925190522C89
:1041700053005400558857005A505B3C5C00D304F0
:10418000E000FF000500DA08DA0998009900000055
:10419000FF002CFF2EDFFF013C3211300902042802
:1041A00013E514482C0C33783A333BFB3E004311A3
:1041B0001610399235DA221A37C3230034C0361A62
:1041C000068807C00D870E414C0048005B00420383
:1041D0004A8121992440253826825C006300617061
:1041E00062807C05208028306C006D806E0070023B
:1041F000719473C112401711184319001A4B3209F8
:1042000037C04F6050A86D003D38463F4F600C3CB2
:10421000FF00E57FF9C04124E01476FF33A042207F
:1042200043184C0087D5883FD703D910D382C808DC
:10423000C9807C007D007C037D487D487C087D2012
:104240007D107D0E9000910E911A9131915A9169D5
:104250009175917E9188918F919691A391AF91C420
:1042600091D791E891209200930693E393059305EB
:1042700093009304930093009300930093009300A2
:1042800093009600970897199702970C97249730F8
:104290009728972697029798978097009700C3EDE5
:1042A000A400A800C511C651BF80C710B666B8A546
:1042B000B764B97CB3AFB497B5FFB0C5B194B20FD2
:1042C000C45CC064C14B8C00863D500051C85296FE
:1042D0005300540055005AC85B965C00D37FC3ED71
:1042E0007F00DA00E51FE167E000DD7F0500124096
:1042F000D37FC016C1128C00863D5000512C522431
:104300005300540055005A2C5B245C00FF0005004C
:10431000DA10D703DF0033803C40E1770000E0147F
:10432000E177E51FD703DA10E000FF010408FF0181
:1043300012401711184319001A4B32094FCA50A8DE
:104340005A236D00391235DA221A37C3230034C0DC
:10435000361A068807C00D870E414C00FF00E004A6
:10436000C064C14B8635509251C8529653005400D8
:10437000550057005A285B1E5C00E000FF01124008
:104380001711184319001A4B32094FCA50A85A2363
:104390006D00391235DA221A37C3230034C0361AB9
:1043A000068807C00D870E414C00FF00E004C06482
:1043B000C14B8635509251C8529653005400550057
:1043C00057005A2C5B245C00E000FF0112401711DB
:1043D000184319001A4B32094FCA50A85A236D00CE
:1043E000391235DA221A37C3230034C0361A068848
:1043F00007C00D870E414C00FF00E004C064C14BB4
:104400008635508951C852965300540055005700C4
:104410005A505B3C5C00E000FF011240171118434A
:1044200019001A4B32094FCA50A85A236D0039128D
:1044300035DA221A37C3230034C0361A068807C07B
:104440000D870E414C00FF00E004C064C14B86356F
:10445000508951C8529653005400550057005A587D
:104460005B485C00E00000003C3C2D43414D455260
:10447000412D44454255472D3E3E205B25645DC39A
:10448000BBD3D0BCECB2E2B5BD4F5632363430C9E6
:10449000E3CFF1CDB7A3ACC7EBD6D8D0C2BCECB25A
:1044A000E9C1ACBDD3A1A30A00000000CC440008C0
:1044B000000000205C0000006C2500082845000872
:1044C0005C0000200C0400007C2500080095BA0A5E
:1044D00000000000000000000102030406070809B4
:1044E000000000000102030401020304060708099A
:1044F00000000000000000000000FFFF000000D0EE
:104500000000000000000000782B000810001800D8
:1045100000002003E0012003E001000000A00000F3
:08452000000000000000000093
:04000005080001AD41
:00000001FF
