Component: ARM Compiler 5.06 update 7 (build 960) Tool: armlink [4d3601]

==============================================================================

Section Cross References

    startup_stm32f429_439xx.o(RESET) refers to startup_stm32f429_439xx.o(STACK) for __initial_sp
    startup_stm32f429_439xx.o(RESET) refers to startup_stm32f429_439xx.o(.text) for Reset_Handler
    startup_stm32f429_439xx.o(RESET) refers to stm32f4xx_it.o(i.NMI_Handler) for NMI_Handler
    startup_stm32f429_439xx.o(RESET) refers to stm32f4xx_it.o(i.HardFault_Handler) for HardFault_Handler
    startup_stm32f429_439xx.o(RESET) refers to stm32f4xx_it.o(i.MemManage_Handler) for MemManage_Handler
    startup_stm32f429_439xx.o(RESET) refers to stm32f4xx_it.o(i.BusFault_Handler) for BusFault_Handler
    startup_stm32f429_439xx.o(RESET) refers to stm32f4xx_it.o(i.UsageFault_Handler) for UsageFault_Handler
    startup_stm32f429_439xx.o(RESET) refers to stm32f4xx_it.o(i.SVC_Handler) for SVC_Handler
    startup_stm32f429_439xx.o(RESET) refers to stm32f4xx_it.o(i.DebugMon_Handler) for DebugMon_Handler
    startup_stm32f429_439xx.o(RESET) refers to stm32f4xx_it.o(i.PendSV_Handler) for PendSV_Handler
    startup_stm32f429_439xx.o(RESET) refers to stm32f4xx_it.o(i.SysTick_Handler) for SysTick_Handler
    startup_stm32f429_439xx.o(RESET) refers to stm32f4xx_it.o(i.DMA2_Stream1_IRQHandler) for DMA2_Stream1_IRQHandler
    startup_stm32f429_439xx.o(RESET) refers to stm32f4xx_it.o(i.DCMI_IRQHandler) for DCMI_IRQHandler
    startup_stm32f429_439xx.o(.text) refers to system_stm32f4xx.o(i.SystemInit) for SystemInit
    startup_stm32f429_439xx.o(.text) refers to entry.o(.ARM.Collect$$$$00000000) for __main
    system_stm32f4xx.o(i.SystemCoreClockUpdate) refers to system_stm32f4xx.o(.data) for .data
    system_stm32f4xx.o(i.SystemInit) refers to system_stm32f4xx.o(i.SetSysClock) for SetSysClock
    stm32f4xx_adc.o(i.ADC_DeInit) refers to stm32f4xx_rcc.o(i.RCC_APB2PeriphResetCmd) for RCC_APB2PeriphResetCmd
==============================================================================

Removing Unused input sections from the image.

    Removing startup_stm32f429_439xx.o(HEAP), (512 bytes).
    Removing system_stm32f4xx.o(.rev16_text), (4 bytes).
    Removing system_stm32f4xx.o(.revsh_text), (4 bytes).
    Removing system_stm32f4xx.o(.rrx_text), (6 bytes).
    Removing system_stm32f4xx.o(i.SystemCoreClockUpdate), (136 bytes).
    Removing misc.o(.rev16_text), (4 bytes).
    Removing misc.o(.revsh_text), (4 bytes).
    Removing misc.o(.rrx_text), (6 bytes).
    Removing misc.o(i.NVIC_SetVectorTable), (20 bytes).
    Removing misc.o(i.NVIC_SystemLPConfig), (28 bytes).
    Removing misc.o(i.SysTick_CLKSourceConfig), (28 bytes).
    Removing stm32f4xx_adc.o(.rev16_text), (4 bytes).
    Removing stm32f4xx_adc.o(.revsh_text), (4 bytes).
    Removing stm32f4xx_adc.o(.rrx_text), (6 bytes).
    Removing stm32f4xx_adc.o(i.ADC_AnalogWatchdogCmd), (16 bytes).
    Removing stm32f4xx_adc.o(i.ADC_AnalogWatchdogSingleChannelConfig), (12 bytes).
    Removing stm32f4xx_adc.o(i.ADC_AnalogWatchdogThresholdsConfig), (6 bytes).
    Removing stm32f4xx_adc.o(i.ADC_AutoInjectedConvCmd), (24 bytes).
==============================================================================

Image Symbol Table

    Local Symbols

    Symbol Name                              Value     Ov Type        Size  Object(Section)

    ../clib/microlib/division.c              0x00000000   Number         0  uidiv.o ABSOLUTE
    ../clib/microlib/division.c              0x00000000   Number         0  uldiv.o ABSOLUTE
    ../clib/microlib/init/entry.s            0x00000000   Number         0  entry9b.o ABSOLUTE
    ../clib/microlib/init/entry.s            0x00000000   Number         0  entry11a.o ABSOLUTE
    ../clib/microlib/init/entry.s            0x00000000   Number         0  entry8b.o ABSOLUTE
    ../clib/microlib/init/entry.s            0x00000000   Number         0  entry8a.o ABSOLUTE
    ../clib/microlib/init/entry.s            0x00000000   Number         0  entry7b.o ABSOLUTE
    ../clib/microlib/init/entry.s            0x00000000   Number         0  entry7a.o ABSOLUTE
    ../clib/microlib/init/entry.s            0x00000000   Number         0  entry9a.o ABSOLUTE
    ../clib/microlib/init/entry.s            0x00000000   Number         0  entry11b.o ABSOLUTE
    ../clib/microlib/init/entry.s            0x00000000   Number         0  entry12a.o ABSOLUTE
    ../clib/microlib/init/entry.s            0x00000000   Number         0  entry5.o ABSOLUTE
    ../clib/microlib/init/entry.s            0x00000000   Number         0  entry2.o ABSOLUTE
    ../clib/microlib/init/entry.s            0x00000000   Number         0  entry10b.o ABSOLUTE
    ../clib/microlib/init/entry.s            0x00000000   Number         0  entry.o ABSOLUTE
    ../clib/microlib/init/entry.s            0x00000000   Number         0  entry12b.o ABSOLUTE
    ../clib/microlib/init/entry.s            0x00000000   Number         0  entry10a.o ABSOLUTE
    ../clib/microlib/longlong.c              0x00000000   Number         0  llushr.o ABSOLUTE
    ../clib/microlib/longlong.c              0x00000000   Number         0  llsshr.o ABSOLUTE
    ../clib/microlib/longlong.c              0x00000000   Number         0  llshl.o ABSOLUTE
    ../clib/microlib/printf/printf.c         0x00000000   Number         0  printf5.o ABSOLUTE
    ../clib/microlib/printf/printf.c         0x00000000   Number         0  printf7.o ABSOLUTE
    ../clib/microlib/printf/printf.c         0x00000000   Number         0  printf4.o ABSOLUTE
    ../clib/microlib/printf/printf.c         0x00000000   Number         0  printf3.o ABSOLUTE
    ../clib/microlib/printf/printf.c         0x00000000   Number         0  printf2.o ABSOLUTE
    ../clib/microlib/printf/printf.c         0x00000000   Number         0  printf8.o ABSOLUTE
    ../clib/microlib/printf/printf.c         0x00000000   Number         0  printfa.o ABSOLUTE
    ../clib/microlib/printf/printf.c         0x00000000   Number         0  printfb.o ABSOLUTE
    ../clib/microlib/printf/printf.c         0x00000000   Number         0  printf0.o ABSOLUTE
    ../clib/microlib/printf/printf.c         0x00000000   Number         0  printf1.o ABSOLUTE
    ../clib/microlib/printf/printf.c         0x00000000   Number         0  printf6.o ABSOLUTE
    ../clib/microlib/printf/stubs.s          0x00000000   Number         0  stubs.o ABSOLUTE
    ../clib/microlib/stdio/streams.c         0x00000000   Number         0  stdout.o ABSOLUTE
    ../clib/microlib/stubs.s                 0x00000000   Number         0  iusefp.o ABSOLUTE
    ../fplib/microlib/fpadd.c                0x00000000   Number         0  dadd.o ABSOLUTE
    ../fplib/microlib/fpdiv.c                0x00000000   Number         0  ddiv.o ABSOLUTE
    ../fplib/microlib/fpepilogue.c           0x00000000   Number         0  depilogue.o ABSOLUTE
    ../fplib/microlib/fpfix.c                0x00000000   Number         0  dfixul.o ABSOLUTE
    ../fplib/microlib/fpmul.c                0x00000000   Number         0  dmul.o ABSOLUTE
    ..\..\Libraries\CMSIS\Device\ST\STM32F4xx\Source\Templates\arm\startup_stm32f429_439xx.s 0x00000000   Number         0  startup_stm32f429_439xx.o ABSOLUTE
    ..\..\Libraries\CMSIS\Device\ST\STM32F4xx\Source\Templates\system_stm32f4xx.c 0x00000000   Number         0  system_stm32f4xx.o ABSOLUTE
    ..\..\Libraries\STM32F4xx_StdPeriph_Driver\src\misc.c 0x00000000   Number         0  misc.o ABSOLUTE
    ..\..\Libraries\STM32F4xx_StdPeriph_Driver\src\stm32f4xx_adc.c 0x00000000   Number         0  stm32f4xx_adc.o ABSOLUTE
    ..\..\Libraries\STM32F4xx_StdPeriph_Driver\src\stm32f4xx_can.c 0x00000000   Number         0  stm32f4xx_can.o ABSOLUTE
    ..\..\Libraries\STM32F4xx_StdPeriph_Driver\src\stm32f4xx_crc.c 0x00000000   Number         0  stm32f4xx_crc.o ABSOLUTE
    ..\..\Libraries\STM32F4xx_StdPeriph_Driver\src\stm32f4xx_cryp.c 0x00000000   Number         0  stm32f4xx_cryp.o ABSOLUTE
    ..\..\Libraries\STM32F4xx_StdPeriph_Driver\src\stm32f4xx_cryp_aes.c 0x00000000   Number         0  stm32f4xx_cryp_aes.o ABSOLUTE
    ..\..\Libraries\STM32F4xx_StdPeriph_Driver\src\stm32f4xx_cryp_des.c 0x00000000   Number         0  stm32f4xx_cryp_des.o ABSOLUTE
    ..\..\Libraries\STM32F4xx_StdPeriph_Driver\src\stm32f4xx_cryp_tdes.c 0x00000000   Number         0  stm32f4xx_cryp_tdes.o ABSOLUTE
    ..\..\Libraries\STM32F4xx_StdPeriph_Driver\src\stm32f4xx_dac.c 0x00000000   Number         0  stm32f4xx_dac.o ABSOLUTE
    ..\..\Libraries\STM32F4xx_StdPeriph_Driver\src\stm32f4xx_dbgmcu.c 0x00000000   Number         0  stm32f4xx_dbgmcu.o ABSOLUTE
    ..\..\Libraries\STM32F4xx_StdPeriph_Driver\src\stm32f4xx_dcmi.c 0x00000000   Number         0  stm32f4xx_dcmi.o ABSOLUTE
    ..\..\Libraries\STM32F4xx_StdPeriph_Driver\src\stm32f4xx_dma.c 0x00000000   Number         0  stm32f4xx_dma.o ABSOLUTE
    ..\..\Libraries\STM32F4xx_StdPeriph_Driver\src\stm32f4xx_dma2d.c 0x00000000   Number         0  stm32f4xx_dma2d.o ABSOLUTE
    ..\..\Libraries\STM32F4xx_StdPeriph_Driver\src\stm32f4xx_exti.c 0x00000000   Number         0  stm32f4xx_exti.o ABSOLUTE
    ..\..\Libraries\STM32F4xx_StdPeriph_Driver\src\stm32f4xx_flash.c 0x00000000   Number         0  stm32f4xx_flash.o ABSOLUTE
    ..\..\Libraries\STM32F4xx_StdPeriph_Driver\src\stm32f4xx_fmc.c 0x00000000   Number         0  stm32f4xx_fmc.o ABSOLUTE
    ..\..\Libraries\STM32F4xx_StdPeriph_Driver\src\stm32f4xx_gpio.c 0x00000000   Number         0  stm32f4xx_gpio.o ABSOLUTE
    ..\..\Libraries\STM32F4xx_StdPeriph_Driver\src\stm32f4xx_hash.c 0x00000000   Number         0  stm32f4xx_hash.o ABSOLUTE
    ..\..\Libraries\STM32F4xx_StdPeriph_Driver\src\stm32f4xx_hash_md5.c 0x00000000   Number         0  stm32f4xx_hash_md5.o ABSOLUTE
    ..\..\Libraries\STM32F4xx_StdPeriph_Driver\src\stm32f4xx_hash_sha1.c 0x00000000   Number         0  stm32f4xx_hash_sha1.o ABSOLUTE
    ..\..\Libraries\STM32F4xx_StdPeriph_Driver\src\stm32f4xx_i2c.c 0x00000000   Number         0  stm32f4xx_i2c.o ABSOLUTE
    ..\..\Libraries\STM32F4xx_StdPeriph_Driver\src\stm32f4xx_iwdg.c 0x00000000   Number         0  stm32f4xx_iwdg.o ABSOLUTE
    ..\..\Libraries\STM32F4xx_StdPeriph_Driver\src\stm32f4xx_ltdc.c 0x00000000   Number         0  stm32f4xx_ltdc.o ABSOLUTE
    ..\..\Libraries\STM32F4xx_StdPeriph_Driver\src\stm32f4xx_pwr.c 0x00000000   Number         0  stm32f4xx_pwr.o ABSOLUTE
    ..\..\Libraries\STM32F4xx_StdPeriph_Driver\src\stm32f4xx_rcc.c 0x00000000   Number         0  stm32f4xx_rcc.o ABSOLUTE
    ..\..\Libraries\STM32F4xx_StdPeriph_Driver\src\stm32f4xx_rng.c 0x00000000   Number         0  stm32f4xx_rng.o ABSOLUTE
    ..\..\Libraries\STM32F4xx_StdPeriph_Driver\src\stm32f4xx_rtc.c 0x00000000   Number         0  stm32f4xx_rtc.o ABSOLUTE
    ..\..\Libraries\STM32F4xx_StdPeriph_Driver\src\stm32f4xx_sai.c 0x00000000   Number         0  stm32f4xx_sai.o ABSOLUTE
    ..\..\Libraries\STM32F4xx_StdPeriph_Driver\src\stm32f4xx_sdio.c 0x00000000   Number         0  stm32f4xx_sdio.o ABSOLUTE
    ..\..\Libraries\STM32F4xx_StdPeriph_Driver\src\stm32f4xx_spi.c 0x00000000   Number         0  stm32f4xx_spi.o ABSOLUTE
    ..\..\Libraries\STM32F4xx_StdPeriph_Driver\src\stm32f4xx_syscfg.c 0x00000000   Number         0  stm32f4xx_syscfg.o ABSOLUTE
    ..\..\Libraries\STM32F4xx_StdPeriph_Driver\src\stm32f4xx_tim.c 0x00000000   Number         0  stm32f4xx_tim.o ABSOLUTE
    ..\..\Libraries\STM32F4xx_StdPeriph_Driver\src\stm32f4xx_usart.c 0x00000000   Number         0  stm32f4xx_usart.o ABSOLUTE
    ..\..\Libraries\STM32F4xx_StdPeriph_Driver\src\stm32f4xx_wwdg.c 0x00000000   Number         0  stm32f4xx_wwdg.o ABSOLUTE
    ..\..\User\camera\bsp_ov2640.c           0x00000000   Number         0  bsp_ov2640.o ABSOLUTE
    ..\..\User\flash\bsp_spi_flash.c         0x00000000   Number         0  bsp_spi_flash.o ABSOLUTE
    ..\..\User\font\fonts.c                  0x00000000   Number         0  fonts.o ABSOLUTE
    ..\..\User\lcd\bsp_lcd.c                 0x00000000   Number         0  bsp_lcd.o ABSOLUTE
    ..\..\User\main.c                        0x00000000   Number         0  main.o ABSOLUTE
    ..\..\User\sdram\bsp_sdram.c             0x00000000   Number         0  bsp_sdram.o ABSOLUTE
    ..\..\User\stm32f4xx_it.c                0x00000000   Number         0  stm32f4xx_it.o ABSOLUTE
    ..\..\User\systick\bsp_SysTick.c         0x00000000   Number         0  bsp_systick.o ABSOLUTE
    ..\..\User\usart\bsp_debug_usart.c       0x00000000   Number         0  bsp_debug_usart.o ABSOLUTE
    ..\\..\\Libraries\\CMSIS\\Device\\ST\\STM32F4xx\\Source\\Templates\\system_stm32f4xx.c 0x00000000   Number         0  system_stm32f4xx.o ABSOLUTE
    ..\\..\\Libraries\\STM32F4xx_StdPeriph_Driver\\src\\misc.c 0x00000000   Number         0  misc.o ABSOLUTE
    ..\\..\\Libraries\\STM32F4xx_StdPeriph_Driver\\src\\stm32f4xx_adc.c 0x00000000   Number         0  stm32f4xx_adc.o ABSOLUTE
    ..\\..\\Libraries\\STM32F4xx_StdPeriph_Driver\\src\\stm32f4xx_can.c 0x00000000   Number         0  stm32f4xx_can.o ABSOLUTE
    ..\\..\\Libraries\\STM32F4xx_StdPeriph_Driver\\src\\stm32f4xx_crc.c 0x00000000   Number         0  stm32f4xx_crc.o ABSOLUTE
    ..\\..\\Libraries\\STM32F4xx_StdPeriph_Driver\\src\\stm32f4xx_cryp.c 0x00000000   Number         0  stm32f4xx_cryp.o ABSOLUTE
    ..\\..\\Libraries\\STM32F4xx_StdPeriph_Driver\\src\\stm32f4xx_cryp_aes.c 0x00000000   Number         0  stm32f4xx_cryp_aes.o ABSOLUTE
    ..\\..\\Libraries\\STM32F4xx_StdPeriph_Driver\\src\\stm32f4xx_cryp_des.c 0x00000000   Number         0  stm32f4xx_cryp_des.o ABSOLUTE
    ..\\..\\Libraries\\STM32F4xx_StdPeriph_Driver\\src\\stm32f4xx_cryp_tdes.c 0x00000000   Number         0  stm32f4xx_cryp_tdes.o ABSOLUTE
    ..\\..\\Libraries\\STM32F4xx_StdPeriph_Driver\\src\\stm32f4xx_dac.c 0x00000000   Number         0  stm32f4xx_dac.o ABSOLUTE
    ..\\..\\Libraries\\STM32F4xx_StdPeriph_Driver\\src\\stm32f4xx_dbgmcu.c 0x00000000   Number         0  stm32f4xx_dbgmcu.o ABSOLUTE
    ..\\..\\Libraries\\STM32F4xx_StdPeriph_Driver\\src\\stm32f4xx_dcmi.c 0x00000000   Number         0  stm32f4xx_dcmi.o ABSOLUTE
    ..\\..\\Libraries\\STM32F4xx_StdPeriph_Driver\\src\\stm32f4xx_dma.c 0x00000000   Number         0  stm32f4xx_dma.o ABSOLUTE
    ..\\..\\Libraries\\STM32F4xx_StdPeriph_Driver\\src\\stm32f4xx_dma2d.c 0x00000000   Number         0  stm32f4xx_dma2d.o ABSOLUTE
    ..\\..\\Libraries\\STM32F4xx_StdPeriph_Driver\\src\\stm32f4xx_exti.c 0x00000000   Number         0  stm32f4xx_exti.o ABSOLUTE
    ..\\..\\Libraries\\STM32F4xx_StdPeriph_Driver\\src\\stm32f4xx_flash.c 0x00000000   Number         0  stm32f4xx_flash.o ABSOLUTE
    ..\\..\\Libraries\\STM32F4xx_StdPeriph_Driver\\src\\stm32f4xx_fmc.c 0x00000000   Number         0  stm32f4xx_fmc.o ABSOLUTE
    ..\\..\\Libraries\\STM32F4xx_StdPeriph_Driver\\src\\stm32f4xx_gpio.c 0x00000000   Number         0  stm32f4xx_gpio.o ABSOLUTE
    ..\\..\\Libraries\\STM32F4xx_StdPeriph_Driver\\src\\stm32f4xx_hash.c 0x00000000   Number         0  stm32f4xx_hash.o ABSOLUTE
    ..\\..\\Libraries\\STM32F4xx_StdPeriph_Driver\\src\\stm32f4xx_hash_md5.c 0x00000000   Number         0  stm32f4xx_hash_md5.o ABSOLUTE
    ..\\..\\Libraries\\STM32F4xx_StdPeriph_Driver\\src\\stm32f4xx_hash_sha1.c 0x00000000   Number         0  stm32f4xx_hash_sha1.o ABSOLUTE
    ..\\..\\Libraries\\STM32F4xx_StdPeriph_Driver\\src\\stm32f4xx_i2c.c 0x00000000   Number         0  stm32f4xx_i2c.o ABSOLUTE
    ..\\..\\Libraries\\STM32F4xx_StdPeriph_Driver\\src\\stm32f4xx_iwdg.c 0x00000000   Number         0  stm32f4xx_iwdg.o ABSOLUTE
    ..\\..\\Libraries\\STM32F4xx_StdPeriph_Driver\\src\\stm32f4xx_ltdc.c 0x00000000   Number         0  stm32f4xx_ltdc.o ABSOLUTE
    ..\\..\\Libraries\\STM32F4xx_StdPeriph_Driver\\src\\stm32f4xx_pwr.c 0x00000000   Number         0  stm32f4xx_pwr.o ABSOLUTE
    ..\\..\\Libraries\\STM32F4xx_StdPeriph_Driver\\src\\stm32f4xx_rcc.c 0x00000000   Number         0  stm32f4xx_rcc.o ABSOLUTE
    ..\\..\\Libraries\\STM32F4xx_StdPeriph_Driver\\src\\stm32f4xx_rng.c 0x00000000   Number         0  stm32f4xx_rng.o ABSOLUTE
    ..\\..\\Libraries\\STM32F4xx_StdPeriph_Driver\\src\\stm32f4xx_rtc.c 0x00000000   Number         0  stm32f4xx_rtc.o ABSOLUTE
    ..\\..\\Libraries\\STM32F4xx_StdPeriph_Driver\\src\\stm32f4xx_sai.c 0x00000000   Number         0  stm32f4xx_sai.o ABSOLUTE
    ..\\..\\Libraries\\STM32F4xx_StdPeriph_Driver\\src\\stm32f4xx_sdio.c 0x00000000   Number         0  stm32f4xx_sdio.o ABSOLUTE
    ..\\..\\Libraries\\STM32F4xx_StdPeriph_Driver\\src\\stm32f4xx_spi.c 0x00000000   Number         0  stm32f4xx_spi.o ABSOLUTE
    ..\\..\\Libraries\\STM32F4xx_StdPeriph_Driver\\src\\stm32f4xx_syscfg.c 0x00000000   Number         0  stm32f4xx_syscfg.o ABSOLUTE
    ..\\..\\Libraries\\STM32F4xx_StdPeriph_Driver\\src\\stm32f4xx_tim.c 0x00000000   Number         0  stm32f4xx_tim.o ABSOLUTE
    ..\\..\\Libraries\\STM32F4xx_StdPeriph_Driver\\src\\stm32f4xx_usart.c 0x00000000   Number         0  stm32f4xx_usart.o ABSOLUTE
    ..\\..\\Libraries\\STM32F4xx_StdPeriph_Driver\\src\\stm32f4xx_wwdg.c 0x00000000   Number         0  stm32f4xx_wwdg.o ABSOLUTE
    ..\\..\\User\\camera\\bsp_ov2640.c       0x00000000   Number         0  bsp_ov2640.o ABSOLUTE
    ..\\..\\User\\flash\\bsp_spi_flash.c     0x00000000   Number         0  bsp_spi_flash.o ABSOLUTE
    ..\\..\\User\\font\\fonts.c              0x00000000   Number         0  fonts.o ABSOLUTE
    ..\\..\\User\\lcd\\bsp_lcd.c             0x00000000   Number         0  bsp_lcd.o ABSOLUTE
    ..\\..\\User\\main.c                     0x00000000   Number         0  main.o ABSOLUTE
    ..\\..\\User\\sdram\\bsp_sdram.c         0x00000000   Number         0  bsp_sdram.o ABSOLUTE
    ..\\..\\User\\stm32f4xx_it.c             0x00000000   Number         0  stm32f4xx_it.o ABSOLUTE
    ..\\..\\User\\systick\\bsp_SysTick.c     0x00000000   Number         0  bsp_systick.o ABSOLUTE
    ..\\..\\User\\usart\\bsp_debug_usart.c   0x00000000   Number         0  bsp_debug_usart.o ABSOLUTE
    cdrcmple.s                               0x00000000   Number         0  cdrcmple.o ABSOLUTE
    dc.s                                     0x00000000   Number         0  dc.o ABSOLUTE
    handlers.s                               0x00000000   Number         0  handlers.o ABSOLUTE
    init.s                                   0x00000000   Number         0  init.o ABSOLUTE
    RESET                                    0x08000000   Section      428  startup_stm32f429_439xx.o(RESET)
    .ARM.Collect$$$$00000000                 0x080001ac   Section        0  entry.o(.ARM.Collect$$$$00000000)
    .ARM.Collect$$$$00000001                 0x080001ac   Section        4  entry2.o(.ARM.Collect$$$$00000001)
    .ARM.Collect$$$$00000004                 0x080001b0   Section        4  entry5.o(.ARM.Collect$$$$00000004)
    .ARM.Collect$$$$00000008                 0x080001b4   Section        0  entry7b.o(.ARM.Collect$$$$00000008)
    .ARM.Collect$$$$0000000A                 0x080001b4   Section        0  entry8b.o(.ARM.Collect$$$$0000000A)
    .ARM.Collect$$$$0000000B                 0x080001b4   Section        8  entry9a.o(.ARM.Collect$$$$0000000B)
    .ARM.Collect$$$$0000000E                 0x080001bc   Section        4  entry12b.o(.ARM.Collect$$$$0000000E)
    .ARM.Collect$$$$0000000F                 0x080001c0   Section        0  entry10a.o(.ARM.Collect$$$$0000000F)
    .ARM.Collect$$$$00000011                 0x080001c0   Section        0  entry11a.o(.ARM.Collect$$$$00000011)
    .ARM.Collect$$$$00002712                 0x080001c0   Section        4  entry2.o(.ARM.Collect$$$$00002712)
    __lit__00000000                          0x080001c0   Data           4  entry2.o(.ARM.Collect$$$$00002712)
    .text                                    0x080001c4   Section       36  startup_stm32f429_439xx.o(.text)
    $v0                                      0x080001c4   Number         0  startup_stm32f429_439xx.o(.text)
    .text                                    0x080001e8   Section        0  uldiv.o(.text)
    .text                                    0x0800024c   Section       36  init.o(.text)
    .text                                    0x08000270   Section        0  llshl.o(.text)
    .text                                    0x0800028e   Section        0  llushr.o(.text)
    i.BusFault_Handler                       0x080002ae   Section        0  stm32f4xx_it.o(i.BusFault_Handler)
    i.DCMI_CaptureCmd                        0x080002b0   Section        0  stm32f4xx_dcmi.o(i.DCMI_CaptureCmd)
    i.DCMI_ClearITPendingBit                 0x080002d0   Section        0  stm32f4xx_dcmi.o(i.DCMI_ClearITPendingBit)
    i.DCMI_Cmd                               0x080002dc   Section        0  stm32f4xx_dcmi.o(i.DCMI_Cmd)
    i.DCMI_GetITStatus                       0x080002fc   Section        0  stm32f4xx_dcmi.o(i.DCMI_GetITStatus)
    i.DCMI_IRQHandler                        0x08000314   Section        0  stm32f4xx_it.o(i.DCMI_IRQHandler)
    i.DCMI_ITConfig                          0x08000344   Section        0  stm32f4xx_dcmi.o(i.DCMI_ITConfig)
    i.DCMI_Init                              0x08000364   Section        0  stm32f4xx_dcmi.o(i.DCMI_Init)
    i.DMA2D_DeInit                           0x080003a0   Section        0  stm32f4xx_dma2d.o(i.DMA2D_DeInit)
    i.DMA2D_GetFlagStatus                    0x080003b8   Section        0  stm32f4xx_dma2d.o(i.DMA2D_GetFlagStatus)
    i.DMA2D_Init                             0x080003cc   Section        0  stm32f4xx_dma2d.o(i.DMA2D_Init)
    i.DMA2D_StartTransfer                    0x08000484   Section        0  stm32f4xx_dma2d.o(i.DMA2D_StartTransfer)
    i.DMA2_Stream1_IRQHandler                0x08000494   Section        0  stm32f4xx_it.o(i.DMA2_Stream1_IRQHandler)
    i.DMA_ClearITPendingBit                  0x08000508   Section        0  stm32f4xx_dma.o(i.DMA_ClearITPendingBit)
    i.DMA_Cmd                                0x08000534   Section        0  stm32f4xx_dma.o(i.DMA_Cmd)
    i.DMA_GetCmdStatus                       0x0800054c   Section        0  stm32f4xx_dma.o(i.DMA_GetCmdStatus)
    i.DMA_GetITStatus                        0x0800055c   Section        0  stm32f4xx_dma.o(i.DMA_GetITStatus)
    i.DMA_ITConfig                           0x080005b0   Section        0  stm32f4xx_dma.o(i.DMA_ITConfig)
    i.DMA_Init                               0x080005e4   Section        0  stm32f4xx_dma.o(i.DMA_Init)
    i.DebugMon_Handler                       0x08000638   Section        0  stm32f4xx_it.o(i.DebugMon_Handler)
    i.Debug_USART_Config                     0x0800063c   Section        0  bsp_debug_usart.o(i.Debug_USART_Config)
    i.FMC_GetFlagStatus                      0x080006d4   Section        0  stm32f4xx_fmc.o(i.FMC_GetFlagStatus)
    i.FMC_SDRAMCmdConfig                     0x0800070c   Section        0  stm32f4xx_fmc.o(i.FMC_SDRAMCmdConfig)
    i.FMC_SDRAMInit                          0x0800072c   Section        0  stm32f4xx_fmc.o(i.FMC_SDRAMInit)
    i.FMC_SetRefreshCount                    0x08000834   Section        0  stm32f4xx_fmc.o(i.FMC_SetRefreshCount)
    i.GPIO_Init                              0x08000844   Section        0  stm32f4xx_gpio.o(i.GPIO_Init)
    i.GPIO_PinAFConfig                       0x080008c0   Section        0  stm32f4xx_gpio.o(i.GPIO_PinAFConfig)
    i.GPIO_ResetBits                         0x080008e0   Section        0  stm32f4xx_gpio.o(i.GPIO_ResetBits)
    i.GPIO_SetBits                           0x080008e4   Section        0  stm32f4xx_gpio.o(i.GPIO_SetBits)
    i.GetGBKCode_from_EXFlash                0x080008e8   Section        0  fonts.o(i.GetGBKCode_from_EXFlash)
    i.HardFault_Handler                      0x08000934   Section        0  stm32f4xx_it.o(i.HardFault_Handler)
    i.I2C_AcknowledgeConfig                  0x08000936   Section        0  stm32f4xx_i2c.o(i.I2C_AcknowledgeConfig)
    i.I2C_CheckEvent                         0x0800094e   Section        0  stm32f4xx_i2c.o(i.I2C_CheckEvent)
    i.I2C_Cmd                                0x08000966   Section        0  stm32f4xx_i2c.o(i.I2C_Cmd)
    i.I2C_DeInit                             0x08000980   Section        0  stm32f4xx_i2c.o(i.I2C_DeInit)
    i.I2C_GenerateSTART                      0x080009e4   Section        0  stm32f4xx_i2c.o(i.I2C_GenerateSTART)
    i.I2C_GenerateSTOP                       0x080009fc   Section        0  stm32f4xx_i2c.o(i.I2C_GenerateSTOP)
    i.I2C_Init                               0x08000a14   Section        0  stm32f4xx_i2c.o(i.I2C_Init)
    i.I2C_ReceiveData                        0x08000ad0   Section        0  stm32f4xx_i2c.o(i.I2C_ReceiveData)
    i.I2C_Send7bitAddress                    0x08000ad6   Section        0  stm32f4xx_i2c.o(i.I2C_Send7bitAddress)
    i.I2C_SendData                           0x08000ae8   Section        0  stm32f4xx_i2c.o(i.I2C_SendData)
    i.LCD_Clear                              0x08000aec   Section        0  bsp_lcd.o(i.LCD_Clear)
    i.LCD_ClearLine                          0x08000b58   Section        0  bsp_lcd.o(i.LCD_ClearLine)
    i.LCD_DispChar_CH                        0x08000b90   Section        0  bsp_lcd.o(i.LCD_DispChar_CH)
    i.LCD_DisplayChar                        0x08000c0c   Section        0  bsp_lcd.o(i.LCD_DisplayChar)
    i.LCD_DisplayStringLine_EN_CH            0x08000c2c   Section        0  bsp_lcd.o(i.LCD_DisplayStringLine_EN_CH)
    i.LCD_DrawChar                           0x08000c8c   Section        0  bsp_lcd.o(i.LCD_DrawChar)
    i.LCD_GPIO_Config                        0x08000d18   Section        0  bsp_lcd.o(i.LCD_GPIO_Config)
    LCD_GPIO_Config                          0x08000d19   Thumb Code   728  bsp_lcd.o(i.LCD_GPIO_Config)
    i.LCD_GetFont                            0x08001014   Section        0  bsp_lcd.o(i.LCD_GetFont)
    i.LCD_Init                               0x08001020   Section        0  bsp_lcd.o(i.LCD_Init)
    i.LCD_LayerInit                          0x080010a0   Section        0  bsp_lcd.o(i.LCD_LayerInit)
    i.LCD_SetColors                          0x0800114c   Section        0  bsp_lcd.o(i.LCD_SetColors)
    i.LCD_SetFont                            0x08001158   Section        0  bsp_lcd.o(i.LCD_SetFont)
    i.LCD_SetLayer                           0x08001164   Section        0  bsp_lcd.o(i.LCD_SetLayer)
    i.LCD_SetTextColor                       0x08001188   Section        0  bsp_lcd.o(i.LCD_SetTextColor)
    i.LCD_SetTransparency                    0x08001194   Section        0  bsp_lcd.o(i.LCD_SetTransparency)
    i.LTDC_Cmd                               0x080011c4   Section        0  stm32f4xx_ltdc.o(i.LTDC_Cmd)
    i.LTDC_DitherCmd                         0x080011e4   Section        0  stm32f4xx_ltdc.o(i.LTDC_DitherCmd)
    i.LTDC_Init                              0x08001204   Section        0  stm32f4xx_ltdc.o(i.LTDC_Init)
    i.LTDC_LayerAlpha                        0x080012ac   Section        0  stm32f4xx_ltdc.o(i.LTDC_LayerAlpha)
    i.LTDC_LayerCmd                          0x080012b0   Section        0  stm32f4xx_ltdc.o(i.LTDC_LayerCmd)
    i.LTDC_LayerInit                         0x080012c8   Section        0  stm32f4xx_ltdc.o(i.LTDC_LayerInit)
    i.LTDC_ReloadConfig                      0x08001360   Section        0  stm32f4xx_ltdc.o(i.LTDC_ReloadConfig)
    i.MemManage_Handler                      0x0800136c   Section        0  stm32f4xx_it.o(i.MemManage_Handler)
    i.NMI_Handler                            0x0800136e   Section        0  stm32f4xx_it.o(i.NMI_Handler)
    i.NVIC_Init                              0x08001370   Section        0  misc.o(i.NVIC_Init)
    i.NVIC_PriorityGroupConfig               0x080013d8   Section        0  misc.o(i.NVIC_PriorityGroupConfig)
    i.OV2640_DMA_Config                      0x080013ec   Section        0  bsp_ov2640.o(i.OV2640_DMA_Config)
    i.OV2640_HW_Init                         0x08001470   Section        0  bsp_ov2640.o(i.OV2640_HW_Init)
    i.OV2640_Init                            0x08001668   Section        0  bsp_ov2640.o(i.OV2640_Init)
    i.OV2640_OutSize_Set                     0x0800170c   Section        0  bsp_ov2640.o(i.OV2640_OutSize_Set)
    i.OV2640_ReadID                          0x08001768   Section        0  bsp_ov2640.o(i.OV2640_ReadID)
    i.OV2640_ReadReg                         0x08001798   Section        0  bsp_ov2640.o(i.OV2640_ReadReg)
    i.OV2640_Reset                           0x080018b4   Section        0  bsp_ov2640.o(i.OV2640_Reset)
    i.OV2640_UXGAConfig                      0x080018cc   Section        0  bsp_ov2640.o(i.OV2640_UXGAConfig)
    i.OV2640_WriteReg                        0x0800192c   Section        0  bsp_ov2640.o(i.OV2640_WriteReg)
    i.PendSV_Handler                         0x080019ec   Section        0  stm32f4xx_it.o(i.PendSV_Handler)
    i.RCC_AHB1PeriphClockCmd                 0x080019f0   Section        0  stm32f4xx_rcc.o(i.RCC_AHB1PeriphClockCmd)
    i.RCC_AHB1PeriphResetCmd                 0x08001a0c   Section        0  stm32f4xx_rcc.o(i.RCC_AHB1PeriphResetCmd)
    i.RCC_AHB2PeriphClockCmd                 0x08001a28   Section        0  stm32f4xx_rcc.o(i.RCC_AHB2PeriphClockCmd)
    i.RCC_AHB3PeriphClockCmd                 0x08001a44   Section        0  stm32f4xx_rcc.o(i.RCC_AHB3PeriphClockCmd)
    i.RCC_APB1PeriphClockCmd                 0x08001a60   Section        0  stm32f4xx_rcc.o(i.RCC_APB1PeriphClockCmd)
    i.RCC_APB1PeriphResetCmd                 0x08001a7c   Section        0  stm32f4xx_rcc.o(i.RCC_APB1PeriphResetCmd)
    i.RCC_APB2PeriphClockCmd                 0x08001a98   Section        0  stm32f4xx_rcc.o(i.RCC_APB2PeriphClockCmd)
    i.RCC_GetClocksFreq                      0x08001ab4   Section        0  stm32f4xx_rcc.o(i.RCC_GetClocksFreq)
    i.RCC_GetFlagStatus                      0x08001b58   Section        0  stm32f4xx_rcc.o(i.RCC_GetFlagStatus)
    i.RCC_LTDCCLKDivConfig                   0x08001b90   Section        0  stm32f4xx_rcc.o(i.RCC_LTDCCLKDivConfig)
    i.RCC_PLLSAICmd                          0x08001ba4   Section        0  stm32f4xx_rcc.o(i.RCC_PLLSAICmd)
    i.RCC_PLLSAIConfig                       0x08001bb0   Section        0  stm32f4xx_rcc.o(i.RCC_PLLSAIConfig)
    i.SDRAM_GPIO_Config                      0x08001bc4   Section        0  bsp_sdram.o(i.SDRAM_GPIO_Config)
    SDRAM_GPIO_Config                        0x08001bc5   Thumb Code   876  bsp_sdram.o(i.SDRAM_GPIO_Config)
    i.SDRAM_Init                             0x08001f48   Section        0  bsp_sdram.o(i.SDRAM_Init)
    i.SDRAM_InitSequence                     0x08001fa4   Section        0  bsp_sdram.o(i.SDRAM_InitSequence)
    SDRAM_InitSequence                       0x08001fa5   Thumb Code   172  bsp_sdram.o(i.SDRAM_InitSequence)
    i.SDRAM_delay                            0x08002050   Section        0  bsp_sdram.o(i.SDRAM_delay)
    SDRAM_delay                              0x08002051   Thumb Code    28  bsp_sdram.o(i.SDRAM_delay)
    i.SPI_Cmd                                0x08002070   Section        0  stm32f4xx_spi.o(i.SPI_Cmd)
    i.SPI_FLASH_BufferRead                   0x08002088   Section        0  bsp_spi_flash.o(i.SPI_FLASH_BufferRead)
    i.SPI_FLASH_Init                         0x080020d4   Section        0  bsp_spi_flash.o(i.SPI_FLASH_Init)
    i.SPI_FLASH_SendByte                     0x080021b0   Section        0  bsp_spi_flash.o(i.SPI_FLASH_SendByte)
    i.SPI_I2S_GetFlagStatus                  0x08002220   Section        0  stm32f4xx_spi.o(i.SPI_I2S_GetFlagStatus)
    i.SPI_I2S_ReceiveData                    0x0800222e   Section        0  stm32f4xx_spi.o(i.SPI_I2S_ReceiveData)
    i.SPI_I2S_SendData                       0x08002232   Section        0  stm32f4xx_spi.o(i.SPI_I2S_SendData)
    i.SPI_Init                               0x08002236   Section        0  stm32f4xx_spi.o(i.SPI_Init)
    i.SPI_TIMEOUT_UserCallback               0x08002270   Section        0  bsp_spi_flash.o(i.SPI_TIMEOUT_UserCallback)
    SPI_TIMEOUT_UserCallback                 0x08002271   Thumb Code    14  bsp_spi_flash.o(i.SPI_TIMEOUT_UserCallback)
    i.SVC_Handler                            0x080022b0   Section        0  stm32f4xx_it.o(i.SVC_Handler)
    i.SetSysClock                            0x080022b4   Section        0  system_stm32f4xx.o(i.SetSysClock)
    SetSysClock                              0x080022b5   Thumb Code   196  system_stm32f4xx.o(i.SetSysClock)
    i.SysTick_Handler                        0x08002388   Section        0  stm32f4xx_it.o(i.SysTick_Handler)
    i.SysTick_Init                           0x080023ac   Section        0  bsp_systick.o(i.SysTick_Init)
    i.SystemInit                             0x080023ec   Section        0  system_stm32f4xx.o(i.SystemInit)
    i.TimingDelay_Decrement                  0x08002448   Section        0  bsp_systick.o(i.TimingDelay_Decrement)
    i.USART_Cmd                              0x0800245c   Section        0  stm32f4xx_usart.o(i.USART_Cmd)
    i.USART_GetFlagStatus                    0x08002474   Section        0  stm32f4xx_usart.o(i.USART_GetFlagStatus)
    i.USART_Init                             0x08002484   Section        0  stm32f4xx_usart.o(i.USART_Init)
    i.USART_SendData                         0x08002540   Section        0  stm32f4xx_usart.o(i.USART_SendData)
    i.UsageFault_Handler                     0x08002548   Section        0  stm32f4xx_it.o(i.UsageFault_Handler)
    i.__0printf$8                            0x0800254c   Section        0  printf8.o(i.__0printf$8)
    i.__scatterload_copy                     0x0800256c   Section       14  handlers.o(i.__scatterload_copy)
    i.__scatterload_null                     0x0800257a   Section        2  handlers.o(i.__scatterload_null)
    i.__scatterload_zeroinit                 0x0800257c   Section       14  handlers.o(i.__scatterload_zeroinit)
    i._printf_core                           0x0800258c   Section        0  printf8.o(i._printf_core)
    _printf_core                             0x0800258d   Thumb Code   984  printf8.o(i._printf_core)
    i._printf_post_padding                   0x08002990   Section        0  printf8.o(i._printf_post_padding)
    _printf_post_padding                     0x08002991   Thumb Code    36  printf8.o(i._printf_post_padding)
    i._printf_pre_padding                    0x080029b4   Section        0  printf8.o(i._printf_pre_padding)
    _printf_pre_padding                      0x080029b5   Thumb Code    46  printf8.o(i._printf_pre_padding)
    i.fputc                                  0x080029e4   Section        0  bsp_debug_usart.o(i.fputc)
    i.main                                   0x08002a08   Section        0  main.o(i.main)
    .constdata                               0x08002b78   Section     4560  fonts.o(.constdata)
    .constdata                               0x08003d48   Section     1822  bsp_ov2640.o(.constdata)
    .conststring                             0x08004468   Section       65  main.o(.conststring)
    .data                                    0x20000000   Section       20  system_stm32f4xx.o(.data)
    .data                                    0x20000014   Section       16  stm32f4xx_rcc.o(.data)
    APBAHBPrescTable                         0x20000014   Data          16  stm32f4xx_rcc.o(.data)
    .data                                    0x20000024   Section        1  main.o(.data)
    .data                                    0x20000025   Section        4  main.o(.data)
    .data                                    0x2000002a   Section        2  stm32f4xx_it.o(.data)
    line_num                                 0x2000002a   Data           2  stm32f4xx_it.o(.data)
    .data                                    0x2000002c   Section       16  bsp_lcd.o(.data)
    CurrentTextColor                         0x2000002c   Data           2  bsp_lcd.o(.data)
    CurrentBackColor                         0x2000002e   Data           2  bsp_lcd.o(.data)
    CurrentFrameBuffer                       0x20000030   Data           4  bsp_lcd.o(.data)
    CurrentLayer                             0x20000034   Data           4  bsp_lcd.o(.data)
    LCD_Currentfonts                         0x20000038   Data           4  bsp_lcd.o(.data)
    .data                                    0x2000003c   Section        8  fonts.o(.data)
    .data                                    0x20000044   Section        1  fonts.o(.data)
    everRead                                 0x20000044   Data           1  fonts.o(.data)
    .data                                    0x20000046   Section        8  bsp_ov2640.o(.data)
    .data                                    0x20000050   Section        4  bsp_spi_flash.o(.data)
    SPITimeout                               0x20000050   Data           4  bsp_spi_flash.o(.data)
    .data                                    0x20000054   Section        4  bsp_systick.o(.data)
    TimingDelay                              0x20000054   Data           4  bsp_systick.o(.data)
    .data                                    0x20000058   Section        4  stdout.o(.data)
    .bss                                     0x2000005c   Section       12  main.o(.bss)
    STACK                                    0x20000068   Section     1024  startup_stm32f429_439xx.o(STACK)

    Global Symbols

    Symbol Name                              Value     Ov Type        Size  Object(Section)

    BuildAttributes$$THM_ISAv4$E$P$D$K$B$S$7EM$VFPi3$EXTD16$VFPS$VFMA$PE$A:L22UL41UL21$X:L11$S22US41US21$IEEE1$IW$USESV6$~STKCKD$USESV7$~SHL$OSPACE$ROPI$EBA8$MICROLIB$REQ8$PRES8$EABIv2 0x00000000   Number         0  anon$$obj.o ABSOLUTE
    __ARM_use_no_argv                        0x00000000   Number         0  main.o ABSOLUTE
    _printf_a                                0x00000000   Number         0  stubs.o ABSOLUTE
    _printf_c                                0x00000000   Number         0  stubs.o ABSOLUTE
    _printf_charcount                        0x00000000   Number         0  stubs.o ABSOLUTE
    _printf_d                                0x00000000   Number         0  stubs.o ABSOLUTE
    _printf_e                                0x00000000   Number         0  stubs.o ABSOLUTE
    _printf_f                                0x00000000   Number         0  stubs.o ABSOLUTE
    _printf_flags                            0x00000000   Number         0  stubs.o ABSOLUTE
    _printf_fp_dec                           0x00000000   Number         0  stubs.o ABSOLUTE
    _printf_fp_hex                           0x00000000   Number         0  stubs.o ABSOLUTE
    _printf_g                                0x00000000   Number         0  stubs.o ABSOLUTE
    _printf_i                                0x00000000   Number         0  stubs.o ABSOLUTE
    _printf_int_dec                          0x00000000   Number         0  stubs.o ABSOLUTE
    _printf_l                                0x00000000   Number         0  stubs.o ABSOLUTE
    _printf_lc                               0x00000000   Number         0  stubs.o ABSOLUTE
    _printf_ll                               0x00000000   Number         0  stubs.o ABSOLUTE
    _printf_lld                              0x00000000   Number         0  stubs.o ABSOLUTE
    _printf_lli                              0x00000000   Number         0  stubs.o ABSOLUTE
    _printf_llo                              0x00000000   Number         0  stubs.o ABSOLUTE
    _printf_llu                              0x00000000   Number         0  stubs.o ABSOLUTE
    _printf_llx                              0x00000000   Number         0  stubs.o ABSOLUTE
    _printf_longlong_dec                     0x00000000   Number         0  stubs.o ABSOLUTE
    _printf_longlong_hex                     0x00000000   Number         0  stubs.o ABSOLUTE
    _printf_longlong_oct                     0x00000000   Number         0  stubs.o ABSOLUTE
    _printf_ls                               0x00000000   Number         0  stubs.o ABSOLUTE
    _printf_mbtowc                           0x00000000   Number         0  stubs.o ABSOLUTE
    _printf_n                                0x00000000   Number         0  stubs.o ABSOLUTE
    _printf_o                                0x00000000   Number         0  stubs.o ABSOLUTE
    _printf_p                                0x00000000   Number         0  stubs.o ABSOLUTE
    _printf_percent                          0x00000000   Number         0  stubs.o ABSOLUTE
    _printf_pre_padding                      0x00000000   Number         0  stubs.o ABSOLUTE
    _printf_return_value                     0x00000000   Number         0  stubs.o ABSOLUTE
    _printf_s                                0x00000000   Number         0  stubs.o ABSOLUTE
    _printf_sizespec                         0x00000000   Number         0  stubs.o ABSOLUTE
    _printf_str                              0x00000000   Number         0  stubs.o ABSOLUTE
    _printf_truncate_signed                  0x00000000   Number         0  stubs.o ABSOLUTE
    _printf_truncate_unsigned                0x00000000   Number         0  stubs.o ABSOLUTE
    _printf_u                                0x00000000   Number         0  stubs.o ABSOLUTE
    _printf_wc                               0x00000000   Number         0  stubs.o ABSOLUTE
    _printf_wctomb                           0x00000000   Number         0  stubs.o ABSOLUTE
    _printf_widthprec                        0x00000000   Number         0  stubs.o ABSOLUTE
    _printf_x                                0x00000000   Number         0  stubs.o ABSOLUTE
    __arm_fini_                               - Undefined Weak Reference
    __cpp_initialize__aeabi_                  - Undefined Weak Reference
    __cxa_finalize                            - Undefined Weak Reference
    __decompress                              - Undefined Weak Reference
    _clock_init                               - Undefined Weak Reference
    _microlib_exit                            - Undefined Weak Reference
    __Vectors_Size                           0x000001ac   Number         0  startup_stm32f429_439xx.o ABSOLUTE
    __Vectors                                0x08000000   Data           4  startup_stm32f429_439xx.o(RESET)
    __Vectors_End                            0x080001ac   Data           0  startup_stm32f429_439xx.o(RESET)
    __main                                   0x080001ad   Thumb Code     0  entry.o(.ARM.Collect$$$$00000000)
    _main_stk                                0x080001ad   Thumb Code     0  entry2.o(.ARM.Collect$$$$00000001)
    _main_scatterload                        0x080001b1   Thumb Code     0  entry5.o(.ARM.Collect$$$$00000004)
    __main_after_scatterload                 0x080001b5   Thumb Code     0  entry5.o(.ARM.Collect$$$$00000004)
    _main_clock                              0x080001b5   Thumb Code     0  entry7b.o(.ARM.Collect$$$$00000008)
    _main_cpp_init                           0x080001b5   Thumb Code     0  entry8b.o(.ARM.Collect$$$$0000000A)
    _main_init                               0x080001b5   Thumb Code     0  entry9a.o(.ARM.Collect$$$$0000000B)
    __rt_lib_shutdown_fini                   0x080001bd   Thumb Code     0  entry12b.o(.ARM.Collect$$$$0000000E)
    __rt_final_cpp                           0x080001c1   Thumb Code     0  entry10a.o(.ARM.Collect$$$$0000000F)
    __rt_final_exit                          0x080001c1   Thumb Code     0  entry11a.o(.ARM.Collect$$$$00000011)
    Reset_Handler                            0x080001c5   Thumb Code     8  startup_stm32f429_439xx.o(.text)
    ADC_IRQHandler                           0x080001df   Thumb Code     0  startup_stm32f429_439xx.o(.text)
    CAN1_RX0_IRQHandler                      0x080001df   Thumb Code     0  startup_stm32f429_439xx.o(.text)
    CAN1_RX1_IRQHandler                      0x080001df   Thumb Code     0  startup_stm32f429_439xx.o(.text)
    CAN1_SCE_IRQHandler                      0x080001df   Thumb Code     0  startup_stm32f429_439xx.o(.text)
    CAN1_TX_IRQHandler                       0x080001df   Thumb Code     0  startup_stm32f429_439xx.o(.text)
    CAN2_RX0_IRQHandler                      0x080001df   Thumb Code     0  startup_stm32f429_439xx.o(.text)
    CAN2_RX1_IRQHandler                      0x080001df   Thumb Code     0  startup_stm32f429_439xx.o(.text)
    CAN2_SCE_IRQHandler                      0x080001df   Thumb Code     0  startup_stm32f429_439xx.o(.text)
    CAN2_TX_IRQHandler                       0x080001df   Thumb Code     0  startup_stm32f429_439xx.o(.text)
    CRYP_IRQHandler                          0x080001df   Thumb Code     0  startup_stm32f429_439xx.o(.text)
    DMA1_Stream0_IRQHandler                  0x080001df   Thumb Code     0  startup_stm32f429_439xx.o(.text)
    DMA1_Stream1_IRQHandler                  0x080001df   Thumb Code     0  startup_stm32f429_439xx.o(.text)
    DMA1_Stream2_IRQHandler                  0x080001df   Thumb Code     0  startup_stm32f429_439xx.o(.text)
    DMA1_Stream3_IRQHandler                  0x080001df   Thumb Code     0  startup_stm32f429_439xx.o(.text)
    DMA1_Stream4_IRQHandler                  0x080001df   Thumb Code     0  startup_stm32f429_439xx.o(.text)
    DMA1_Stream5_IRQHandler                  0x080001df   Thumb Code     0  startup_stm32f429_439xx.o(.text)
    DMA1_Stream6_IRQHandler                  0x080001df   Thumb Code     0  startup_stm32f429_439xx.o(.text)
    DMA1_Stream7_IRQHandler                  0x080001df   Thumb Code     0  startup_stm32f429_439xx.o(.text)
    DMA2D_IRQHandler                         0x080001df   Thumb Code     0  startup_stm32f429_439xx.o(.text)
    DMA2_Stream0_IRQHandler                  0x080001df   Thumb Code     0  startup_stm32f429_439xx.o(.text)
    DMA2_Stream2_IRQHandler                  0x080001df   Thumb Code     0  startup_stm32f429_439xx.o(.text)
    DMA2_Stream3_IRQHandler                  0x080001df   Thumb Code     0  startup_stm32f429_439xx.o(.text)
    DMA2_Stream4_IRQHandler                  0x080001df   Thumb Code     0  startup_stm32f429_439xx.o(.text)
    DMA2_Stream5_IRQHandler                  0x080001df   Thumb Code     0  startup_stm32f429_439xx.o(.text)
    DMA2_Stream6_IRQHandler                  0x080001df   Thumb Code     0  startup_stm32f429_439xx.o(.text)
    DMA2_Stream7_IRQHandler                  0x080001df   Thumb Code     0  startup_stm32f429_439xx.o(.text)
    ETH_IRQHandler                           0x080001df   Thumb Code     0  startup_stm32f429_439xx.o(.text)
    ETH_WKUP_IRQHandler                      0x080001df   Thumb Code     0  startup_stm32f429_439xx.o(.text)
    EXTI0_IRQHandler                         0x080001df   Thumb Code     0  startup_stm32f429_439xx.o(.text)
    EXTI15_10_IRQHandler                     0x080001df   Thumb Code     0  startup_stm32f429_439xx.o(.text)
    EXTI1_IRQHandler                         0x080001df   Thumb Code     0  startup_stm32f429_439xx.o(.text)
    EXTI2_IRQHandler                         0x080001df   Thumb Code     0  startup_stm32f429_439xx.o(.text)
    EXTI3_IRQHandler                         0x080001df   Thumb Code     0  startup_stm32f429_439xx.o(.text)
    EXTI4_IRQHandler                         0x080001df   Thumb Code     0  startup_stm32f429_439xx.o(.text)
    EXTI9_5_IRQHandler                       0x080001df   Thumb Code     0  startup_stm32f429_439xx.o(.text)
    FLASH_IRQHandler                         0x080001df   Thumb Code     0  startup_stm32f429_439xx.o(.text)
    FMC_IRQHandler                           0x080001df   Thumb Code     0  startup_stm32f429_439xx.o(.text)
    FPU_IRQHandler                           0x080001df   Thumb Code     0  startup_stm32f429_439xx.o(.text)
    HASH_RNG_IRQHandler                      0x080001df   Thumb Code     0  startup_stm32f429_439xx.o(.text)
    I2C1_ER_IRQHandler                       0x080001df   Thumb Code     0  startup_stm32f429_439xx.o(.text)
    I2C1_EV_IRQHandler                       0x080001df   Thumb Code     0  startup_stm32f429_439xx.o(.text)
    I2C2_ER_IRQHandler                       0x080001df   Thumb Code     0  startup_stm32f429_439xx.o(.text)
    I2C2_EV_IRQHandler                       0x080001df   Thumb Code     0  startup_stm32f429_439xx.o(.text)
    I2C3_ER_IRQHandler                       0x080001df   Thumb Code     0  startup_stm32f429_439xx.o(.text)
    I2C3_EV_IRQHandler                       0x080001df   Thumb Code     0  startup_stm32f429_439xx.o(.text)
    LTDC_ER_IRQHandler                       0x080001df   Thumb Code     0  startup_stm32f429_439xx.o(.text)
    LTDC_IRQHandler                          0x080001df   Thumb Code     0  startup_stm32f429_439xx.o(.text)
    OTG_FS_IRQHandler                        0x080001df   Thumb Code     0  startup_stm32f429_439xx.o(.text)
    OTG_FS_WKUP_IRQHandler                   0x080001df   Thumb Code     0  startup_stm32f429_439xx.o(.text)
    OTG_HS_EP1_IN_IRQHandler                 0x080001df   Thumb Code     0  startup_stm32f429_439xx.o(.text)
    OTG_HS_EP1_OUT_IRQHandler                0x080001df   Thumb Code     0  startup_stm32f429_439xx.o(.text)
    OTG_HS_IRQHandler                        0x080001df   Thumb Code     0  startup_stm32f429_439xx.o(.text)
    OTG_HS_WKUP_IRQHandler                   0x080001df   Thumb Code     0  startup_stm32f429_439xx.o(.text)
    PVD_IRQHandler                           0x080001df   Thumb Code     0  startup_stm32f429_439xx.o(.text)
    RCC_IRQHandler                           0x080001df   Thumb Code     0  startup_stm32f429_439xx.o(.text)
    RTC_Alarm_IRQHandler                     0x080001df   Thumb Code     0  startup_stm32f429_439xx.o(.text)
    RTC_WKUP_IRQHandler                      0x080001df   Thumb Code     0  startup_stm32f429_439xx.o(.text)
    SAI1_IRQHandler                          0x080001df   Thumb Code     0  startup_stm32f429_439xx.o(.text)
    SDIO_IRQHandler                          0x080001df   Thumb Code     0  startup_stm32f429_439xx.o(.text)
    SPI1_IRQHandler                          0x080001df   Thumb Code     0  startup_stm32f429_439xx.o(.text)
    SPI2_IRQHandler                          0x080001df   Thumb Code     0  startup_stm32f429_439xx.o(.text)
    SPI3_IRQHandler                          0x080001df   Thumb Code     0  startup_stm32f429_439xx.o(.text)
    SPI4_IRQHandler                          0x080001df   Thumb Code     0  startup_stm32f429_439xx.o(.text)
    SPI5_IRQHandler                          0x080001df   Thumb Code     0  startup_stm32f429_439xx.o(.text)
    SPI6_IRQHandler                          0x080001df   Thumb Code     0  startup_stm32f429_439xx.o(.text)
    TAMP_STAMP_IRQHandler                    0x080001df   Thumb Code     0  startup_stm32f429_439xx.o(.text)
    TIM1_BRK_TIM9_IRQHandler                 0x080001df   Thumb Code     0  startup_stm32f429_439xx.o(.text)
    TIM1_CC_IRQHandler                       0x080001df   Thumb Code     0  startup_stm32f429_439xx.o(.text)
    TIM1_TRG_COM_TIM11_IRQHandler            0x080001df   Thumb Code     0  startup_stm32f429_439xx.o(.text)
    TIM1_UP_TIM10_IRQHandler                 0x080001df   Thumb Code     0  startup_stm32f429_439xx.o(.text)
    TIM2_IRQHandler                          0x080001df   Thumb Code     0  startup_stm32f429_439xx.o(.text)
    TIM3_IRQHandler                          0x080001df   Thumb Code     0  startup_stm32f429_439xx.o(.text)
    TIM4_IRQHandler                          0x080001df   Thumb Code     0  startup_stm32f429_439xx.o(.text)
    TIM5_IRQHandler                          0x080001df   Thumb Code     0  startup_stm32f429_439xx.o(.text)
    TIM6_DAC_IRQHandler                      0x080001df   Thumb Code     0  startup_stm32f429_439xx.o(.text)
    TIM7_IRQHandler                          0x080001df   Thumb Code     0  startup_stm32f429_439xx.o(.text)
    TIM8_BRK_TIM12_IRQHandler                0x080001df   Thumb Code     0  startup_stm32f429_439xx.o(.text)
    TIM8_CC_IRQHandler                       0x080001df   Thumb Code     0  startup_stm32f429_439xx.o(.text)
    TIM8_TRG_COM_TIM14_IRQHandler            0x080001df   Thumb Code     0  startup_stm32f429_439xx.o(.text)
    TIM8_UP_TIM13_IRQHandler                 0x080001df   Thumb Code     0  startup_stm32f429_439xx.o(.text)
    UART4_IRQHandler                         0x080001df   Thumb Code     0  startup_stm32f429_439xx.o(.text)
    UART5_IRQHandler                         0x080001df   Thumb Code     0  startup_stm32f429_439xx.o(.text)
    UART7_IRQHandler                         0x080001df   Thumb Code     0  startup_stm32f429_439xx.o(.text)
    UART8_IRQHandler                         0x080001df   Thumb Code     0  startup_stm32f429_439xx.o(.text)
    USART1_IRQHandler                        0x080001df   Thumb Code     0  startup_stm32f429_439xx.o(.text)
    USART2_IRQHandler                        0x080001df   Thumb Code     0  startup_stm32f429_439xx.o(.text)
    USART3_IRQHandler                        0x080001df   Thumb Code     0  startup_stm32f429_439xx.o(.text)
    USART6_IRQHandler                        0x080001df   Thumb Code     0  startup_stm32f429_439xx.o(.text)
    WWDG_IRQHandler                          0x080001df   Thumb Code     0  startup_stm32f429_439xx.o(.text)
    __aeabi_uldivmod                         0x080001e9   Thumb Code    98  uldiv.o(.text)
    __scatterload                            0x0800024d   Thumb Code    28  init.o(.text)
    __scatterload_rt2                        0x0800024d   Thumb Code     0  init.o(.text)
    __aeabi_llsl                             0x08000271   Thumb Code    30  llshl.o(.text)
    _ll_shift_l                              0x08000271   Thumb Code     0  llshl.o(.text)
    __aeabi_llsr                             0x0800028f   Thumb Code    32  llushr.o(.text)
    _ll_ushift_r                             0x0800028f   Thumb Code     0  llushr.o(.text)
    BusFault_Handler                         0x080002af   Thumb Code     2  stm32f4xx_it.o(i.BusFault_Handler)
    DCMI_CaptureCmd                          0x080002b1   Thumb Code    26  stm32f4xx_dcmi.o(i.DCMI_CaptureCmd)
    DCMI_ClearITPendingBit                   0x080002d1   Thumb Code     6  stm32f4xx_dcmi.o(i.DCMI_ClearITPendingBit)
    DCMI_Cmd                                 0x080002dd   Thumb Code    26  stm32f4xx_dcmi.o(i.DCMI_Cmd)
    DCMI_GetITStatus                         0x080002fd   Thumb Code    18  stm32f4xx_dcmi.o(i.DCMI_GetITStatus)
    DCMI_IRQHandler                          0x08000315   Thumb Code    38  stm32f4xx_it.o(i.DCMI_IRQHandler)
    DCMI_ITConfig                            0x08000345   Thumb Code    26  stm32f4xx_dcmi.o(i.DCMI_ITConfig)
    DCMI_Init                                0x08000365   Thumb Code    54  stm32f4xx_dcmi.o(i.DCMI_Init)
    DMA2D_DeInit                             0x080003a1   Thumb Code    24  stm32f4xx_dma2d.o(i.DMA2D_DeInit)
    DMA2D_GetFlagStatus                      0x080003b9   Thumb Code    16  stm32f4xx_dma2d.o(i.DMA2D_GetFlagStatus)
    DMA2D_Init                               0x080003cd   Thumb Code   174  stm32f4xx_dma2d.o(i.DMA2D_Init)
    DMA2D_StartTransfer                      0x08000485   Thumb Code    12  stm32f4xx_dma2d.o(i.DMA2D_StartTransfer)
    DMA2_Stream1_IRQHandler                  0x08000495   Thumb Code    88  stm32f4xx_it.o(i.DMA2_Stream1_IRQHandler)
    DMA_ClearITPendingBit                    0x08000509   Thumb Code    32  stm32f4xx_dma.o(i.DMA_ClearITPendingBit)
    DMA_Cmd                                  0x08000535   Thumb Code    24  stm32f4xx_dma.o(i.DMA_Cmd)
    DMA_GetCmdStatus                         0x0800054d   Thumb Code    14  stm32f4xx_dma.o(i.DMA_GetCmdStatus)
    DMA_GetITStatus                          0x0800055d   Thumb Code    68  stm32f4xx_dma.o(i.DMA_GetITStatus)
    DMA_ITConfig                             0x080005b1   Thumb Code    50  stm32f4xx_dma.o(i.DMA_ITConfig)
    DMA_Init                                 0x080005e5   Thumb Code    80  stm32f4xx_dma.o(i.DMA_Init)
    DebugMon_Handler                         0x08000639   Thumb Code     2  stm32f4xx_it.o(i.DebugMon_Handler)
    Debug_USART_Config                       0x0800063d   Thumb Code   142  bsp_debug_usart.o(i.Debug_USART_Config)
    FMC_GetFlagStatus                        0x080006d5   Thumb Code    54  stm32f4xx_fmc.o(i.FMC_GetFlagStatus)
    FMC_SDRAMCmdConfig                       0x0800070d   Thumb Code    26  stm32f4xx_fmc.o(i.FMC_SDRAMCmdConfig)
    FMC_SDRAMInit                            0x0800072d   Thumb Code   262  stm32f4xx_fmc.o(i.FMC_SDRAMInit)
    FMC_SetRefreshCount                      0x08000835   Thumb Code    12  stm32f4xx_fmc.o(i.FMC_SetRefreshCount)
    GPIO_Init                                0x08000845   Thumb Code   124  stm32f4xx_gpio.o(i.GPIO_Init)
    GPIO_PinAFConfig                         0x080008c1   Thumb Code    32  stm32f4xx_gpio.o(i.GPIO_PinAFConfig)
    GPIO_ResetBits                           0x080008e1   Thumb Code     4  stm32f4xx_gpio.o(i.GPIO_ResetBits)
    GPIO_SetBits                             0x080008e5   Thumb Code     4  stm32f4xx_gpio.o(i.GPIO_SetBits)
    GetGBKCode_from_EXFlash                  0x080008e9   Thumb Code    72  fonts.o(i.GetGBKCode_from_EXFlash)
    HardFault_Handler                        0x08000935   Thumb Code     2  stm32f4xx_it.o(i.HardFault_Handler)
    I2C_AcknowledgeConfig                    0x08000937   Thumb Code    24  stm32f4xx_i2c.o(i.I2C_AcknowledgeConfig)
    I2C_CheckEvent                           0x0800094f   Thumb Code    24  stm32f4xx_i2c.o(i.I2C_CheckEvent)
    I2C_Cmd                                  0x08000967   Thumb Code    24  stm32f4xx_i2c.o(i.I2C_Cmd)
    I2C_DeInit                               0x08000981   Thumb Code    88  stm32f4xx_i2c.o(i.I2C_DeInit)
    I2C_GenerateSTART                        0x080009e5   Thumb Code    24  stm32f4xx_i2c.o(i.I2C_GenerateSTART)
    I2C_GenerateSTOP                         0x080009fd   Thumb Code    24  stm32f4xx_i2c.o(i.I2C_GenerateSTOP)
    I2C_Init                                 0x08000a15   Thumb Code   178  stm32f4xx_i2c.o(i.I2C_Init)
    I2C_ReceiveData                          0x08000ad1   Thumb Code     6  stm32f4xx_i2c.o(i.I2C_ReceiveData)
    I2C_Send7bitAddress                      0x08000ad7   Thumb Code    18  stm32f4xx_i2c.o(i.I2C_Send7bitAddress)
    I2C_SendData                             0x08000ae9   Thumb Code     4  stm32f4xx_i2c.o(i.I2C_SendData)
    LCD_Clear                                0x08000aed   Thumb Code   104  bsp_lcd.o(i.LCD_Clear)
    LCD_ClearLine                            0x08000b59   Thumb Code    50  bsp_lcd.o(i.LCD_ClearLine)
    LCD_DispChar_CH                          0x08000b91   Thumb Code   118  bsp_lcd.o(i.LCD_DispChar_CH)
    LCD_DisplayChar                          0x08000c0d   Thumb Code    26  bsp_lcd.o(i.LCD_DisplayChar)
    LCD_DisplayStringLine_EN_CH              0x08000c2d   Thumb Code    92  bsp_lcd.o(i.LCD_DisplayStringLine_EN_CH)
    LCD_DrawChar                             0x08000c8d   Thumb Code   134  bsp_lcd.o(i.LCD_DrawChar)
    LCD_GetFont                              0x08001015   Thumb Code     6  bsp_lcd.o(i.LCD_GetFont)
    LCD_Init                                 0x08001021   Thumb Code   128  bsp_lcd.o(i.LCD_Init)
    LCD_LayerInit                            0x080010a1   Thumb Code   158  bsp_lcd.o(i.LCD_LayerInit)
    LCD_SetColors                            0x0800114d   Thumb Code     8  bsp_lcd.o(i.LCD_SetColors)
    LCD_SetFont                              0x08001159   Thumb Code     6  bsp_lcd.o(i.LCD_SetFont)
    LCD_SetLayer                             0x08001165   Thumb Code    28  bsp_lcd.o(i.LCD_SetLayer)
    LCD_SetTextColor                         0x08001189   Thumb Code     6  bsp_lcd.o(i.LCD_SetTextColor)
    LCD_SetTransparency                      0x08001195   Thumb Code    40  bsp_lcd.o(i.LCD_SetTransparency)
    LTDC_Cmd                                 0x080011c5   Thumb Code    26  stm32f4xx_ltdc.o(i.LTDC_Cmd)
    LTDC_DitherCmd                           0x080011e5   Thumb Code    26  stm32f4xx_ltdc.o(i.LTDC_DitherCmd)
    LTDC_Init                                0x08001205   Thumb Code   156  stm32f4xx_ltdc.o(i.LTDC_Init)
    LTDC_LayerAlpha                          0x080012ad   Thumb Code     4  stm32f4xx_ltdc.o(i.LTDC_LayerAlpha)
    LTDC_LayerCmd                            0x080012b1   Thumb Code    24  stm32f4xx_ltdc.o(i.LTDC_LayerCmd)
    LTDC_LayerInit                           0x080012c9   Thumb Code   150  stm32f4xx_ltdc.o(i.LTDC_LayerInit)
    LTDC_ReloadConfig                        0x08001361   Thumb Code     6  stm32f4xx_ltdc.o(i.LTDC_ReloadConfig)
    MemManage_Handler                        0x0800136d   Thumb Code     2  stm32f4xx_it.o(i.MemManage_Handler)
    NMI_Handler                              0x0800136f   Thumb Code     2  stm32f4xx_it.o(i.NMI_Handler)
    NVIC_Init                                0x08001371   Thumb Code    98  misc.o(i.NVIC_Init)
    NVIC_PriorityGroupConfig                 0x080013d9   Thumb Code    10  misc.o(i.NVIC_PriorityGroupConfig)
    OV2640_DMA_Config                        0x080013ed   Thumb Code   124  bsp_ov2640.o(i.OV2640_DMA_Config)
    OV2640_HW_Init                           0x08001471   Thumb Code   476  bsp_ov2640.o(i.OV2640_HW_Init)
    OV2640_Init                              0x08001669   Thumb Code   156  bsp_ov2640.o(i.OV2640_Init)
    OV2640_OutSize_Set                       0x0800170d   Thumb Code    92  bsp_ov2640.o(i.OV2640_OutSize_Set)
    OV2640_ReadID                            0x08001769   Thumb Code    46  bsp_ov2640.o(i.OV2640_ReadID)
    OV2640_ReadReg                           0x08001799   Thumb Code   272  bsp_ov2640.o(i.OV2640_ReadReg)
    OV2640_Reset                             0x080018b5   Thumb Code    22  bsp_ov2640.o(i.OV2640_Reset)
    OV2640_UXGAConfig                        0x080018cd   Thumb Code    88  bsp_ov2640.o(i.OV2640_UXGAConfig)
    OV2640_WriteReg                          0x0800192d   Thumb Code   178  bsp_ov2640.o(i.OV2640_WriteReg)
    PendSV_Handler                           0x080019ed   Thumb Code     2  stm32f4xx_it.o(i.PendSV_Handler)
    RCC_AHB1PeriphClockCmd                   0x080019f1   Thumb Code    22  stm32f4xx_rcc.o(i.RCC_AHB1PeriphClockCmd)
    RCC_AHB1PeriphResetCmd                   0x08001a0d   Thumb Code    22  stm32f4xx_rcc.o(i.RCC_AHB1PeriphResetCmd)
    RCC_AHB2PeriphClockCmd                   0x08001a29   Thumb Code    22  stm32f4xx_rcc.o(i.RCC_AHB2PeriphClockCmd)
    RCC_AHB3PeriphClockCmd                   0x08001a45   Thumb Code    22  stm32f4xx_rcc.o(i.RCC_AHB3PeriphClockCmd)
    RCC_APB1PeriphClockCmd                   0x08001a61   Thumb Code    22  stm32f4xx_rcc.o(i.RCC_APB1PeriphClockCmd)
    RCC_APB1PeriphResetCmd                   0x08001a7d   Thumb Code    22  stm32f4xx_rcc.o(i.RCC_APB1PeriphResetCmd)
    RCC_APB2PeriphClockCmd                   0x08001a99   Thumb Code    22  stm32f4xx_rcc.o(i.RCC_APB2PeriphClockCmd)
    RCC_GetClocksFreq                        0x08001ab5   Thumb Code   148  stm32f4xx_rcc.o(i.RCC_GetClocksFreq)
    RCC_GetFlagStatus                        0x08001b59   Thumb Code    50  stm32f4xx_rcc.o(i.RCC_GetFlagStatus)
    RCC_LTDCCLKDivConfig                     0x08001b91   Thumb Code    14  stm32f4xx_rcc.o(i.RCC_LTDCCLKDivConfig)
    RCC_PLLSAICmd                            0x08001ba5   Thumb Code     6  stm32f4xx_rcc.o(i.RCC_PLLSAICmd)
    RCC_PLLSAIConfig                         0x08001bb1   Thumb Code    16  stm32f4xx_rcc.o(i.RCC_PLLSAIConfig)
    SDRAM_Init                               0x08001f49   Thumb Code    92  bsp_sdram.o(i.SDRAM_Init)
    SPI_Cmd                                  0x08002071   Thumb Code    24  stm32f4xx_spi.o(i.SPI_Cmd)
    SPI_FLASH_BufferRead                     0x08002089   Thumb Code    72  bsp_spi_flash.o(i.SPI_FLASH_BufferRead)
    SPI_FLASH_Init                           0x080020d5   Thumb Code   212  bsp_spi_flash.o(i.SPI_FLASH_Init)
    SPI_FLASH_SendByte                       0x080021b1   Thumb Code   102  bsp_spi_flash.o(i.SPI_FLASH_SendByte)
    SPI_I2S_GetFlagStatus                    0x08002221   Thumb Code    14  stm32f4xx_spi.o(i.SPI_I2S_GetFlagStatus)
    SPI_I2S_ReceiveData                      0x0800222f   Thumb Code     4  stm32f4xx_spi.o(i.SPI_I2S_ReceiveData)
    SPI_I2S_SendData                         0x08002233   Thumb Code     4  stm32f4xx_spi.o(i.SPI_I2S_SendData)
    SPI_Init                                 0x08002237   Thumb Code    56  stm32f4xx_spi.o(i.SPI_Init)
    SVC_Handler                              0x080022b1   Thumb Code     2  stm32f4xx_it.o(i.SVC_Handler)
    SysTick_Handler                          0x08002389   Thumb Code    32  stm32f4xx_it.o(i.SysTick_Handler)
    SysTick_Init                             0x080023ad   Thumb Code    54  bsp_systick.o(i.SysTick_Init)
    SystemInit                               0x080023ed   Thumb Code    74  system_stm32f4xx.o(i.SystemInit)
    TimingDelay_Decrement                    0x08002449   Thumb Code    16  bsp_systick.o(i.TimingDelay_Decrement)
    USART_Cmd                                0x0800245d   Thumb Code    24  stm32f4xx_usart.o(i.USART_Cmd)
    USART_GetFlagStatus                      0x08002475   Thumb Code    14  stm32f4xx_usart.o(i.USART_GetFlagStatus)
    USART_Init                               0x08002485   Thumb Code   180  stm32f4xx_usart.o(i.USART_Init)
    USART_SendData                           0x08002541   Thumb Code     8  stm32f4xx_usart.o(i.USART_SendData)
    UsageFault_Handler                       0x08002549   Thumb Code     2  stm32f4xx_it.o(i.UsageFault_Handler)
    __0printf$8                              0x0800254d   Thumb Code    22  printf8.o(i.__0printf$8)
    __1printf$8                              0x0800254d   Thumb Code     0  printf8.o(i.__0printf$8)
    __2printf                                0x0800254d   Thumb Code     0  printf8.o(i.__0printf$8)
    __scatterload_copy                       0x0800256d   Thumb Code    14  handlers.o(i.__scatterload_copy)
    __scatterload_null                       0x0800257b   Thumb Code     2  handlers.o(i.__scatterload_null)
    __scatterload_zeroinit                   0x0800257d   Thumb Code    14  handlers.o(i.__scatterload_zeroinit)
    fputc                                    0x080029e5   Thumb Code    30  bsp_debug_usart.o(i.fputc)
    main                                     0x08002a09   Thumb Code   206  main.o(i.main)
    ASCII16x24_Table                         0x08002b78   Data        4560  fonts.o(.constdata)
    OV2640_QQVGA                             0x08003d48   Data         656  bsp_ov2640.o(.constdata)
    OV2640_UXGA                              0x08003fd8   Data         440  bsp_ov2640.o(.constdata)
    OV2640_JPEG_INIT                         0x08004190   Data         380  bsp_ov2640.o(.constdata)
    OV2640_YUV422                            0x0800430c   Data          18  bsp_ov2640.o(.constdata)
    OV2640_JPEG                              0x0800431e   Data          16  bsp_ov2640.o(.constdata)
    OV2640_160x120_JPEG                      0x0800432e   Data          78  bsp_ov2640.o(.constdata)
    OV2640_176x144_JPEG                      0x0800437c   Data          78  bsp_ov2640.o(.constdata)
    OV2640_320x240_JPEG                      0x080043ca   Data          78  bsp_ov2640.o(.constdata)
    OV2640_352x288_JPEG                      0x08004418   Data          78  bsp_ov2640.o(.constdata)
    Region$$Table$$Base                      0x080044ac   Number         0  anon$$obj.o(Region$$Table)
    Region$$Table$$Limit                     0x080044cc   Number         0  anon$$obj.o(Region$$Table)
    SystemCoreClock                          0x20000000   Data           4  system_stm32f4xx.o(.data)
    AHBPrescTable                            0x20000004   Data          16  system_stm32f4xx.o(.data)
    fps                                      0x20000024   Data           1  main.o(.data)
    OV2640_Camera_ID                         0x20000025   Data           4  main.o(.data)
    Font16x24                                0x2000003c   Data           8  fonts.o(.data)
    lcd_width                                0x20000046   Data           2  bsp_ov2640.o(.data)
    lcd_height                               0x20000048   Data           2  bsp_ov2640.o(.data)
    img_width                                0x2000004a   Data           2  bsp_ov2640.o(.data)
    img_height                               0x2000004c   Data           2  bsp_ov2640.o(.data)
    __stdout                                 0x20000058   Data           4  stdout.o(.data)
    Task_Delay                               0x2000005c   Data          12  main.o(.bss)
    __initial_sp                             0x20000468   Data           0  startup_stm32f429_439xx.o(STACK)



==============================================================================

Memory Map of the image

  Image Entry point : 0x080001ad

  Load Region LR_IROM1 (Base: 0x08000000, Size: 0x00004528, Max: 0x00100000, ABSOLUTE)

    Execution Region ER_IROM1 (Exec base: 0x08000000, Load base: 0x08000000, Size: 0x000044cc, Max: 0x00100000, ABSOLUTE)

    Exec Addr    Load Addr    Size         Type   Attr      Idx    E Section Name        Object

    0x08000000   0x08000000   0x000001ac   Data   RO            3    RESET               startup_stm32f429_439xx.o
    0x080001ac   0x080001ac   0x00000000   Code   RO         5906  * .ARM.Collect$$$$00000000  mc_w.l(entry.o)
    0x080001ac   0x080001ac   0x00000004   Code   RO         6170    .ARM.Collect$$$$00000001  mc_w.l(entry2.o)
    0x080001b0   0x080001b0   0x00000004   Code   RO         6173    .ARM.Collect$$$$00000004  mc_w.l(entry5.o)
    0x080001b4   0x080001b4   0x00000000   Code   RO         6175    .ARM.Collect$$$$00000008  mc_w.l(entry7b.o)
    0x080001b4   0x080001b4   0x00000000   Code   RO         6177    .ARM.Collect$$$$0000000A  mc_w.l(entry8b.o)
    0x080001b4   0x080001b4   0x00000008   Code   RO         6178    .ARM.Collect$$$$0000000B  mc_w.l(entry9a.o)
    0x080001bc   0x080001bc   0x00000004   Code   RO         6185    .ARM.Collect$$$$0000000E  mc_w.l(entry12b.o)
    0x080001c0   0x080001c0   0x00000000   Code   RO         6180    .ARM.Collect$$$$0000000F  mc_w.l(entry10a.o)
    0x080001c0   0x080001c0   0x00000000   Code   RO         6182    .ARM.Collect$$$$00000011  mc_w.l(entry11a.o)
    0x080001c0   0x080001c0   0x00000004   Code   RO         6171    .ARM.Collect$$$$00002712  mc_w.l(entry2.o)
    0x080001c4   0x080001c4   0x00000024   Code   RO            4    .text               startup_stm32f429_439xx.o
    0x080001e8   0x080001e8   0x00000062   Code   RO         6189    .text               mc_w.l(uldiv.o)
    0x0800024a   0x0800024a   0x00000002   PAD
    0x0800024c   0x0800024c   0x00000024   Code   RO         6202    .text               mc_w.l(init.o)
    0x08000270   0x08000270   0x0000001e   Code   RO         6204    .text               mc_w.l(llshl.o)
    0x0800028e   0x0800028e   0x00000020   Code   RO         6206    .text               mc_w.l(llushr.o)
    0x080002ae   0x080002ae   0x00000002   Code   RO         5098    i.BusFault_Handler  stm32f4xx_it.o
    0x080002b0   0x080002b0   0x00000020   Code   RO         1093    i.DCMI_CaptureCmd   stm32f4xx_dcmi.o
    0x080002d0   0x080002d0   0x0000000c   Code   RO         1095    i.DCMI_ClearITPendingBit  stm32f4xx_dcmi.o
    0x080002dc   0x080002dc   0x00000020   Code   RO         1096    i.DCMI_Cmd          stm32f4xx_dcmi.o
    0x080002fc   0x080002fc   0x00000018   Code   RO         1099    i.DCMI_GetITStatus  stm32f4xx_dcmi.o
    0x08000314   0x08000314   0x00000030   Code   RO         5099    i.DCMI_IRQHandler   stm32f4xx_it.o
    0x08000344   0x08000344   0x00000020   Code   RO         1100    i.DCMI_ITConfig     stm32f4xx_dcmi.o
    0x08000364   0x08000364   0x0000003c   Code   RO         1101    i.DCMI_Init         stm32f4xx_dcmi.o
    0x080003a0   0x080003a0   0x00000018   Code   RO         1337    i.DMA2D_DeInit      stm32f4xx_dma2d.o
    0x080003b8   0x080003b8   0x00000014   Code   RO         1342    i.DMA2D_GetFlagStatus  stm32f4xx_dma2d.o
    0x080003cc   0x080003cc   0x000000b8   Code   RO         1345    i.DMA2D_Init        stm32f4xx_dma2d.o
    0x08000484   0x08000484   0x00000010   Code   RO         1347    i.DMA2D_StartTransfer  stm32f4xx_dma2d.o
    0x08000494   0x08000494   0x00000074   Code   RO         5100    i.DMA2_Stream1_IRQHandler  stm32f4xx_it.o
    0x08000508   0x08000508   0x0000002c   Code   RO         1200    i.DMA_ClearITPendingBit  stm32f4xx_dma.o
    0x08000534   0x08000534   0x00000018   Code   RO         1201    i.DMA_Cmd           stm32f4xx_dma.o
    0x0800054c   0x0800054c   0x0000000e   Code   RO         1206    i.DMA_GetCmdStatus  stm32f4xx_dma.o
    0x0800055a   0x0800055a   0x00000002   PAD
    0x0800055c   0x0800055c   0x00000054   Code   RO         1211    i.DMA_GetITStatus   stm32f4xx_dma.o
    0x080005b0   0x080005b0   0x00000032   Code   RO         1212    i.DMA_ITConfig      stm32f4xx_dma.o
    0x080005e2   0x080005e2   0x00000002   PAD
    0x080005e4   0x080005e4   0x00000054   Code   RO         1213    i.DMA_Init          stm32f4xx_dma.o
    0x08000638   0x08000638   0x00000002   Code   RO         5101    i.DebugMon_Handler  stm32f4xx_it.o
    0x0800063a   0x0800063a   0x00000002   PAD
    0x0800063c   0x0800063c   0x00000098   Code   RO         5568    i.Debug_USART_Config  bsp_debug_usart.o
    0x080006d4   0x080006d4   0x00000036   Code   RO         1790    i.FMC_GetFlagStatus  stm32f4xx_fmc.o
    0x0800070a   0x0800070a   0x00000002   PAD
    0x0800070c   0x0800070c   0x00000020   Code   RO         1807    i.FMC_SDRAMCmdConfig  stm32f4xx_fmc.o
    0x0800072c   0x0800072c   0x00000106   Code   RO         1809    i.FMC_SDRAMInit     stm32f4xx_fmc.o
    0x08000832   0x08000832   0x00000002   PAD
    0x08000834   0x08000834   0x00000010   Code   RO         1813    i.FMC_SetRefreshCount  stm32f4xx_fmc.o
    0x08000844   0x08000844   0x0000007c   Code   RO         1971    i.GPIO_Init         stm32f4xx_gpio.o
    0x080008c0   0x080008c0   0x00000020   Code   RO         1972    i.GPIO_PinAFConfig  stm32f4xx_gpio.o
    0x080008e0   0x080008e0   0x00000004   Code   RO         1978    i.GPIO_ResetBits    stm32f4xx_gpio.o
    0x080008e4   0x080008e4   0x00000004   Code   RO         1979    i.GPIO_SetBits      stm32f4xx_gpio.o
    0x080008e8   0x080008e8   0x0000004c   Code   RO         5527    i.GetGBKCode_from_EXFlash  fonts.o
    0x08000934   0x08000934   0x00000002   Code   RO         5102    i.HardFault_Handler  stm32f4xx_it.o
    0x08000936   0x08000936   0x00000018   Code   RO         2259    i.I2C_AcknowledgeConfig  stm32f4xx_i2c.o
    0x0800094e   0x0800094e   0x00000018   Code   RO         2262    i.I2C_CheckEvent    stm32f4xx_i2c.o
    0x08000966   0x08000966   0x00000018   Code   RO         2265    i.I2C_Cmd           stm32f4xx_i2c.o
    0x0800097e   0x0800097e   0x00000002   PAD
    0x08000980   0x08000980   0x00000064   Code   RO         2268    i.I2C_DeInit        stm32f4xx_i2c.o
    0x080009e4   0x080009e4   0x00000018   Code   RO         2273    i.I2C_GenerateSTART  stm32f4xx_i2c.o
    0x080009fc   0x080009fc   0x00000018   Code   RO         2274    i.I2C_GenerateSTOP  stm32f4xx_i2c.o
    0x08000a14   0x08000a14   0x000000bc   Code   RO         2280    i.I2C_Init          stm32f4xx_i2c.o
    0x08000ad0   0x08000ad0   0x00000006   Code   RO         2285    i.I2C_ReceiveData   stm32f4xx_i2c.o
    0x08000ad6   0x08000ad6   0x00000012   Code   RO         2287    i.I2C_Send7bitAddress  stm32f4xx_i2c.o
    0x08000ae8   0x08000ae8   0x00000004   Code   RO         2288    i.I2C_SendData      stm32f4xx_i2c.o
    0x08000aec   0x08000aec   0x0000006c   Code   RO         5245    i.LCD_Clear         bsp_lcd.o
    0x08000b58   0x08000b58   0x00000038   Code   RO         5246    i.LCD_ClearLine     bsp_lcd.o
    0x08000b90   0x08000b90   0x0000007c   Code   RO         5250    i.LCD_DispChar_CH   bsp_lcd.o
    0x08000c0c   0x08000c0c   0x00000020   Code   RO         5252    i.LCD_DisplayChar   bsp_lcd.o
    0x08000c2c   0x08000c2c   0x00000060   Code   RO         5254    i.LCD_DisplayStringLine_EN_CH  bsp_lcd.o
    0x08000c8c   0x08000c8c   0x0000008c   Code   RO         5255    i.LCD_DrawChar      bsp_lcd.o
    0x08000d18   0x08000d18   0x000002fc   Code   RO         5267    i.LCD_GPIO_Config   bsp_lcd.o
    0x08001014   0x08001014   0x0000000c   Code   RO         5269    i.LCD_GetFont       bsp_lcd.o
    0x08001020   0x08001020   0x00000080   Code   RO         5270    i.LCD_Init          bsp_lcd.o
    0x080010a0   0x080010a0   0x000000ac   Code   RO         5271    i.LCD_LayerInit     bsp_lcd.o
    0x0800114c   0x0800114c   0x0000000c   Code   RO         5278    i.LCD_SetColors     bsp_lcd.o
    0x08001158   0x08001158   0x0000000c   Code   RO         5281    i.LCD_SetFont       bsp_lcd.o
    0x08001164   0x08001164   0x00000024   Code   RO         5282    i.LCD_SetLayer      bsp_lcd.o
    0x08001188   0x08001188   0x0000000c   Code   RO         5283    i.LCD_SetTextColor  bsp_lcd.o
    0x08001194   0x08001194   0x00000030   Code   RO         5284    i.LCD_SetTransparency  bsp_lcd.o
    0x080011c4   0x080011c4   0x00000020   Code   RO         2545    i.LTDC_Cmd          stm32f4xx_ltdc.o
    0x080011e4   0x080011e4   0x00000020   Code   RO         2549    i.LTDC_DitherCmd    stm32f4xx_ltdc.o
    0x08001204   0x08001204   0x000000a8   Code   RO         2556    i.LTDC_Init         stm32f4xx_ltdc.o
    0x080012ac   0x080012ac   0x00000004   Code   RO         2559    i.LTDC_LayerAlpha   stm32f4xx_ltdc.o
    0x080012b0   0x080012b0   0x00000018   Code   RO         2560    i.LTDC_LayerCmd     stm32f4xx_ltdc.o
    0x080012c8   0x080012c8   0x00000096   Code   RO         2561    i.LTDC_LayerInit    stm32f4xx_ltdc.o
    0x0800135e   0x0800135e   0x00000002   PAD
    0x08001360   0x08001360   0x0000000c   Code   RO         2568    i.LTDC_ReloadConfig  stm32f4xx_ltdc.o
    0x0800136c   0x0800136c   0x00000002   Code   RO         5103    i.MemManage_Handler  stm32f4xx_it.o
    0x0800136e   0x0800136e   0x00000002   Code   RO         5104    i.NMI_Handler       stm32f4xx_it.o
    0x08001370   0x08001370   0x00000068   Code   RO          164    i.NVIC_Init         misc.o
    0x080013d8   0x080013d8   0x00000014   Code   RO          165    i.NVIC_PriorityGroupConfig  misc.o
    0x080013ec   0x080013ec   0x00000084   Code   RO         5608    i.OV2640_DMA_Config  bsp_ov2640.o
    0x08001470   0x08001470   0x000001f8   Code   RO         5609    i.OV2640_HW_Init    bsp_ov2640.o
    0x08001668   0x08001668   0x000000a4   Code   RO         5612    i.OV2640_Init       bsp_ov2640.o
    0x0800170c   0x0800170c   0x0000005c   Code   RO         5615    i.OV2640_OutSize_Set  bsp_ov2640.o
    0x08001768   0x08001768   0x0000002e   Code   RO         5617    i.OV2640_ReadID     bsp_ov2640.o
    0x08001796   0x08001796   0x00000002   PAD
    0x08001798   0x08001798   0x0000011c   Code   RO         5618    i.OV2640_ReadReg    bsp_ov2640.o
    0x080018b4   0x080018b4   0x00000016   Code   RO         5619    i.OV2640_Reset      bsp_ov2640.o
    0x080018ca   0x080018ca   0x00000002   PAD
    0x080018cc   0x080018cc   0x00000060   Code   RO         5621    i.OV2640_UXGAConfig  bsp_ov2640.o
    0x0800192c   0x0800192c   0x000000c0   Code   RO         5623    i.OV2640_WriteReg   bsp_ov2640.o
    0x080019ec   0x080019ec   0x00000002   Code   RO         5105    i.PendSV_Handler    stm32f4xx_it.o
    0x080019ee   0x080019ee   0x00000002   PAD
    0x080019f0   0x080019f0   0x0000001c   Code   RO         2864    i.RCC_AHB1PeriphClockCmd  stm32f4xx_rcc.o
    0x08001a0c   0x08001a0c   0x0000001c   Code   RO         2866    i.RCC_AHB1PeriphResetCmd  stm32f4xx_rcc.o
    0x08001a28   0x08001a28   0x0000001c   Code   RO         2867    i.RCC_AHB2PeriphClockCmd  stm32f4xx_rcc.o
    0x08001a44   0x08001a44   0x0000001c   Code   RO         2870    i.RCC_AHB3PeriphClockCmd  stm32f4xx_rcc.o
    0x08001a60   0x08001a60   0x0000001c   Code   RO         2873    i.RCC_APB1PeriphClockCmd  stm32f4xx_rcc.o
    0x08001a7c   0x08001a7c   0x0000001c   Code   RO         2875    i.RCC_APB1PeriphResetCmd  stm32f4xx_rcc.o
    0x08001a98   0x08001a98   0x0000001c   Code   RO         2876    i.RCC_APB2PeriphClockCmd  stm32f4xx_rcc.o
    0x08001ab4   0x08001ab4   0x000000a4   Code   RO         2885    i.RCC_GetClocksFreq  stm32f4xx_rcc.o
    0x08001b58   0x08001b58   0x00000038   Code   RO         2886    i.RCC_GetFlagStatus  stm32f4xx_rcc.o
    0x08001b90   0x08001b90   0x00000014   Code   RO         2897    i.RCC_LTDCCLKDivConfig  stm32f4xx_rcc.o
    0x08001ba4   0x08001ba4   0x0000000c   Code   RO         2906    i.RCC_PLLSAICmd     stm32f4xx_rcc.o
    0x08001bb0   0x08001bb0   0x00000014   Code   RO         2907    i.RCC_PLLSAIConfig  stm32f4xx_rcc.o
    0x08001bc4   0x08001bc4   0x00000384   Code   RO         5188    i.SDRAM_GPIO_Config  bsp_sdram.o
    0x08001f48   0x08001f48   0x0000005c   Code   RO         5189    i.SDRAM_Init        bsp_sdram.o
    0x08001fa4   0x08001fa4   0x000000ac   Code   RO         5190    i.SDRAM_InitSequence  bsp_sdram.o
    0x08002050   0x08002050   0x00000020   Code   RO         5194    i.SDRAM_delay       bsp_sdram.o
    0x08002070   0x08002070   0x00000018   Code   RO         3998    i.SPI_Cmd           stm32f4xx_spi.o
    0x08002088   0x08002088   0x0000004c   Code   RO         5746    i.SPI_FLASH_BufferRead  bsp_spi_flash.o
    0x080020d4   0x080020d4   0x000000dc   Code   RO         5749    i.SPI_FLASH_Init    bsp_spi_flash.o
    0x080021b0   0x080021b0   0x00000070   Code   RO         5755    i.SPI_FLASH_SendByte  bsp_spi_flash.o
    0x08002220   0x08002220   0x0000000e   Code   RO         4006    i.SPI_I2S_GetFlagStatus  stm32f4xx_spi.o
    0x0800222e   0x0800222e   0x00000004   Code   RO         4009    i.SPI_I2S_ReceiveData  stm32f4xx_spi.o
    0x08002232   0x08002232   0x00000004   Code   RO         4010    i.SPI_I2S_SendData  stm32f4xx_spi.o
    0x08002236   0x08002236   0x00000038   Code   RO         4011    i.SPI_Init          stm32f4xx_spi.o
    0x0800226e   0x0800226e   0x00000002   PAD
    0x08002270   0x08002270   0x00000040   Code   RO         5762    i.SPI_TIMEOUT_UserCallback  bsp_spi_flash.o
    0x080022b0   0x080022b0   0x00000002   Code   RO         5106    i.SVC_Handler       stm32f4xx_it.o
    0x080022b2   0x080022b2   0x00000002   PAD
    0x080022b4   0x080022b4   0x000000d4   Code   RO           13    i.SetSysClock       system_stm32f4xx.o
    0x08002388   0x08002388   0x00000024   Code   RO         5107    i.SysTick_Handler   stm32f4xx_it.o
    0x080023ac   0x080023ac   0x00000040   Code   RO         5868    i.SysTick_Init      bsp_systick.o
    0x080023ec   0x080023ec   0x0000005c   Code   RO           15    i.SystemInit        system_stm32f4xx.o
    0x08002448   0x08002448   0x00000014   Code   RO         5869    i.TimingDelay_Decrement  bsp_systick.o
    0x0800245c   0x0800245c   0x00000018   Code   RO         4790    i.USART_Cmd         stm32f4xx_usart.o
    0x08002474   0x08002474   0x0000000e   Code   RO         4793    i.USART_GetFlagStatus  stm32f4xx_usart.o
    0x08002482   0x08002482   0x00000002   PAD
    0x08002484   0x08002484   0x000000bc   Code   RO         4797    i.USART_Init        stm32f4xx_usart.o
    0x08002540   0x08002540   0x00000008   Code   RO         4807    i.USART_SendData    stm32f4xx_usart.o
    0x08002548   0x08002548   0x00000002   Code   RO         5108    i.UsageFault_Handler  stm32f4xx_it.o
    0x0800254a   0x0800254a   0x00000002   PAD
    0x0800254c   0x0800254c   0x00000020   Code   RO         6116    i.__0printf$8       mc_w.l(printf8.o)
    0x0800256c   0x0800256c   0x0000000e   Code   RO         6214    i.__scatterload_copy  mc_w.l(handlers.o)
    0x0800257a   0x0800257a   0x00000002   Code   RO         6215    i.__scatterload_null  mc_w.l(handlers.o)
    0x0800257c   0x0800257c   0x0000000e   Code   RO         6216    i.__scatterload_zeroinit  mc_w.l(handlers.o)
    0x0800258a   0x0800258a   0x00000002   PAD
    0x0800258c   0x0800258c   0x00000404   Code   RO         6123    i._printf_core      mc_w.l(printf8.o)
    0x08002990   0x08002990   0x00000024   Code   RO         6124    i._printf_post_padding  mc_w.l(printf8.o)
    0x080029b4   0x080029b4   0x0000002e   Code   RO         6125    i._printf_pre_padding  mc_w.l(printf8.o)
    0x080029e2   0x080029e2   0x00000002   PAD
    0x080029e4   0x080029e4   0x00000024   Code   RO         5570    i.fputc             bsp_debug_usart.o
    0x08002a08   0x08002a08   0x00000170   Code   RO         5044    i.main              main.o
    0x08002b78   0x08002b78   0x000011d0   Data   RO         5528    .constdata          fonts.o
    0x08003d48   0x08003d48   0x0000071e   Data   RO         5624    .constdata          bsp_ov2640.o
    0x08004466   0x08004466   0x00000002   PAD
    0x08004468   0x08004468   0x00000041   Data   RO         5047    .conststring        main.o
    0x080044a9   0x080044a9   0x00000003   PAD
    0x080044ac   0x080044ac   0x00000020   Data   RO         6212    Region$$Table       anon$$obj.o


    Execution Region RW_IRAM1 (Exec base: 0x20000000, Load base: 0x080044cc, Size: 0x00000468, Max: 0x00030000, ABSOLUTE)

    Exec Addr    Load Addr    Size         Type   Attr      Idx    E Section Name        Object

    0x20000000   0x080044cc   0x00000014   Data   RW           16    .data               system_stm32f4xx.o
    0x20000014   0x080044e0   0x00000010   Data   RW         2917    .data               stm32f4xx_rcc.o
    0x20000024   0x080044f0   0x00000001   Data   RW         5048    .data               main.o
    0x20000025   0x080044f1   0x00000004   Data   RW         5049    .data               main.o
    0x20000029   0x080044f5   0x00000001   PAD
    0x2000002a   0x080044f6   0x00000002   Data   RW         5109    .data               stm32f4xx_it.o
    0x2000002c   0x080044f8   0x00000010   Data   RW         5289    .data               bsp_lcd.o
    0x2000003c   0x08004508   0x00000008   Data   RW         5532    .data               fonts.o
    0x20000044   0x08004510   0x00000001   Data   RW         5536    .data               fonts.o
    0x20000045   0x08004511   0x00000001   PAD
    0x20000046   0x08004512   0x00000008   Data   RW         5625    .data               bsp_ov2640.o
    0x2000004e   0x0800451a   0x00000002   PAD
    0x20000050   0x0800451c   0x00000004   Data   RW         5763    .data               bsp_spi_flash.o
    0x20000054   0x08004520   0x00000004   Data   RW         5870    .data               bsp_systick.o
    0x20000058   0x08004524   0x00000004   Data   RW         6186    .data               mc_w.l(stdout.o)
    0x2000005c        -       0x0000000c   Zero   RW         5045    .bss                main.o
    0x20000068        -       0x00000400   Zero   RW            1    STACK               startup_stm32f429_439xx.o


==============================================================================

Image component sizes


      Code (inc. data)   RO Data    RW Data    ZI Data      Debug   Object Name

       188         16          0          0          0       1509   bsp_debug_usart.o
      1752        120          0         16          0      12416   bsp_lcd.o
      1532         78       1822          8          0       9334   bsp_ov2640.o
      1196         28          0          0          0       3593   bsp_sdram.o
       472         72          0          4          0       3833   bsp_spi_flash.o
        84         14          0          4          0      28614   bsp_systick.o
        76          4       4560          9          0       2758   fonts.o
       368        162         65          5         12       9908   main.o
       124         16          0          0          0       2107   misc.o
        36          8        428          0       1024       1064   startup_stm32f429_439xx.o
       192         36          0          0          0       4997   stm32f4xx_dcmi.o
       300         32          0          0          0       6361   stm32f4xx_dma.o
       244         18          0          0          0       3848   stm32f4xx_dma2d.o
       364         10          0          0          0       4447   stm32f4xx_fmc.o
       164          0          0          0          0       3727   stm32f4xx_gpio.o
       436         22          0          0          0       8749   stm32f4xx_i2c.o
       216         42          0          2          0       6774   stm32f4xx_it.o
       422         30          0          0          0       6255   stm32f4xx_ltdc.o
       468         80          0         16          0      11981   stm32f4xx_rcc.o
       102          0          0          0          0       4562   stm32f4xx_spi.o
       234          8          0          0          0       4308   stm32f4xx_usart.o
       304         34          0         20          0     338045   system_stm32f4xx.o

    ----------------------------------------------------------------------
      9302        830       6912         88       1036     479190   Object Totals
         0          0         32          0          0          0   (incl. Generated)
        28          0          5          4          0          0   (incl. Padding)

    ----------------------------------------------------------------------

      Code (inc. data)   RO Data    RW Data    ZI Data      Debug   Library Member Name

         0          0          0          0          0          0   entry.o
         0          0          0          0          0          0   entry10a.o
         0          0          0          0          0          0   entry11a.o
         4          0          0          0          0          0   entry12b.o
         8          4          0          0          0          0   entry2.o
         4          0          0          0          0          0   entry5.o
         0          0          0          0          0          0   entry7b.o
         0          0          0          0          0          0   entry8b.o
         8          4          0          0          0          0   entry9a.o
        30          0          0          0          0          0   handlers.o
        36          8          0          0          0         68   init.o
        30          0          0          0          0         68   llshl.o
        32          0          0          0          0         68   llushr.o
      1142         54          0          0          0        352   printf8.o
         0          0          0          4          0          0   stdout.o
        98          0          0          0          0         92   uldiv.o

    ----------------------------------------------------------------------
      1398         70          0          4          0        648   Library Totals
         6          0          0          0          0          0   (incl. Padding)

    ----------------------------------------------------------------------

      Code (inc. data)   RO Data    RW Data    ZI Data      Debug   Library Name

      1392         70          0          4          0        648   mc_w.l

    ----------------------------------------------------------------------
      1398         70          0          4          0        648   Library Totals

    ----------------------------------------------------------------------

==============================================================================


      Code (inc. data)   RO Data    RW Data    ZI Data      Debug   

     10700        900       6912         92       1036     468882   Grand Totals
     10700        900       6912         92       1036     468882   ELF Image Totals
     10700        900       6912         92          0          0   ROM Totals

==============================================================================

    Total RO  Size (Code + RO Data)                17612 (  17.20kB)
    Total RW  Size (RW Data + ZI Data)              1128 (   1.10kB)
    Total ROM Size (Code + RO Data + RW Data)      17704 (  17.29kB)

==============================================================================

